{
  "address": "0x4693ed9c9ACfeF5df8E7D9c8F97d5eEBf406e7C7",
  "abi": [
    {
      "inputs": [
        {
          "internalType": "address",
          "name": "deuro_",
          "type": "address"
        },
        {
          "internalType": "address",
          "name": "deps_",
          "type": "address"
        }
      ],
      "stateMutability": "nonpayable",
      "type": "constructor"
    },
    {
      "inputs": [],
      "name": "EquityTooLow",
      "type": "error"
    },
    {
      "inputs": [],
      "name": "FrontendCodeAlreadyExists",
      "type": "error"
    },
    {
      "inputs": [],
      "name": "NoOpenChanges",
      "type": "error"
    },
    {
      "inputs": [
        {
          "internalType": "uint256",
          "name": "minmumExecutionTime",
          "type": "uint256"
        }
      ],
      "name": "NotDoneWaiting",
      "type": "error"
    },
    {
      "inputs": [],
      "name": "NotFrontendCodeOwner",
      "type": "error"
    },
    {
      "inputs": [],
      "name": "NotGatewayService",
      "type": "error"
    },
    {
      "inputs": [
        {
          "internalType": "address",
          "name": "owner",
          "type": "address"
        }
      ],
      "name": "OwnableInvalidOwner",
      "type": "error"
    },
    {
      "inputs": [
        {
          "internalType": "address",
          "name": "account",
          "type": "address"
        }
      ],
      "name": "OwnableUnauthorizedAccount",
      "type": "error"
    },
    {
      "inputs": [],
      "name": "ProposedChangesToHigh",
      "type": "error"
    },
    {
      "anonymous": false,
      "inputs": [
        {
          "indexed": false,
          "internalType": "address",
          "name": "owner",
          "type": "address"
        },
        {
          "indexed": false,
          "internalType": "bytes32",
          "name": "frontendCode",
          "type": "bytes32"
        }
      ],
      "name": "FrontendCodeRegistered",
      "type": "event"
    },
    {
      "anonymous": false,
      "inputs": [
        {
          "indexed": false,
          "internalType": "address",
          "name": "to",
          "type": "address"
        },
        {
          "indexed": false,
          "internalType": "uint256",
          "name": "amount",
          "type": "uint256"
        },
        {
          "indexed": false,
          "internalType": "bytes32",
          "name": "frontendCode",
          "type": "bytes32"
        }
      ],
      "name": "FrontendCodeRewardsWithdrawn",
      "type": "event"
    },
    {
      "anonymous": false,
      "inputs": [
        {
          "indexed": false,
          "internalType": "address",
          "name": "from",
          "type": "address"
        },
        {
          "indexed": false,
          "internalType": "address",
          "name": "to",
          "type": "address"
        },
        {
          "indexed": false,
          "internalType": "bytes32",
          "name": "frontendCode",
          "type": "bytes32"
        }
      ],
      "name": "FrontendCodeTransferred",
      "type": "event"
    },
    {
      "anonymous": false,
      "inputs": [
        {
          "indexed": false,
          "internalType": "address",
          "name": "position",
          "type": "address"
        },
        {
          "indexed": false,
          "internalType": "bytes32",
          "name": "frontendCode",
          "type": "bytes32"
        }
      ],
      "name": "NewPositionRegistered",
      "type": "event"
    },
    {
      "anonymous": false,
      "inputs": [
        {
          "indexed": true,
          "internalType": "address",
          "name": "previousOwner",
          "type": "address"
        },
        {
          "indexed": true,
          "internalType": "address",
          "name": "newOwner",
          "type": "address"
        }
      ],
      "name": "OwnershipTransferred",
      "type": "event"
    },
    {
      "anonymous": false,
      "inputs": [
        {
          "indexed": false,
          "internalType": "address",
          "name": "who",
          "type": "address"
        },
        {
          "indexed": false,
          "internalType": "uint24",
          "name": "nextFeeRate",
          "type": "uint24"
        },
        {
          "indexed": false,
          "internalType": "uint24",
          "name": "nextSavingsFeeRate",
          "type": "uint24"
        },
        {
          "indexed": false,
          "internalType": "uint24",
          "name": "nextMintingFeeRate",
          "type": "uint24"
        }
      ],
      "name": "RateChangesExecuted",
      "type": "event"
    },
    {
      "anonymous": false,
      "inputs": [
        {
          "indexed": false,
          "internalType": "address",
          "name": "who",
          "type": "address"
        },
        {
          "indexed": false,
          "internalType": "uint24",
          "name": "nextFeeRate",
          "type": "uint24"
        },
        {
          "indexed": false,
          "internalType": "uint24",
          "name": "nextSavingsFeeRate",
          "type": "uint24"
        },
        {
          "indexed": false,
          "internalType": "uint24",
          "name": "nextMintingFeeRate",
          "type": "uint24"
        },
        {
          "indexed": false,
          "internalType": "uint256",
          "name": "nextChange",
          "type": "uint256"
        }
      ],
      "name": "RateChangesProposed",
      "type": "event"
    },
    {
      "inputs": [],
      "name": "DEPS",
      "outputs": [
        {
          "internalType": "contract DEPSWrapper",
          "name": "",
          "type": "address"
        }
      ],
      "stateMutability": "view",
      "type": "function"
    },
    {
      "inputs": [],
      "name": "DEURO",
      "outputs": [
        {
          "internalType": "contract IERC20",
          "name": "",
          "type": "address"
        }
      ],
      "stateMutability": "view",
      "type": "function"
    },
    {
      "inputs": [],
      "name": "EQUITY",
      "outputs": [
        {
          "internalType": "contract Equity",
          "name": "",
          "type": "address"
        }
      ],
      "stateMutability": "view",
      "type": "function"
    },
    {
      "inputs": [],
      "name": "MINTING_HUB",
      "outputs": [
        {
          "internalType": "contract IMintingHubGateway",
          "name": "",
          "type": "address"
        }
      ],
      "stateMutability": "view",
      "type": "function"
    },
    {
      "inputs": [],
      "name": "SAVINGS",
      "outputs": [
        {
          "internalType": "contract SavingsGateway",
          "name": "",
          "type": "address"
        }
      ],
      "stateMutability": "view",
      "type": "function"
    },
    {
      "inputs": [],
      "name": "changeTimeLock",
      "outputs": [
        {
          "internalType": "uint256",
          "name": "",
          "type": "uint256"
        }
      ],
      "stateMutability": "view",
      "type": "function"
    },
    {
      "inputs": [],
      "name": "executeChanges",
      "outputs": [],
      "stateMutability": "nonpayable",
      "type": "function"
    },
    {
      "inputs": [],
      "name": "feeRate",
      "outputs": [
        {
          "internalType": "uint24",
          "name": "",
          "type": "uint24"
        }
      ],
      "stateMutability": "view",
      "type": "function"
    },
    {
      "inputs": [
        {
          "internalType": "bytes32",
          "name": "",
          "type": "bytes32"
        }
      ],
      "name": "frontendCodes",
      "outputs": [
        {
          "internalType": "uint256",
          "name": "balance",
          "type": "uint256"
        },
        {
          "internalType": "address",
          "name": "owner",
          "type": "address"
        }
      ],
      "stateMutability": "view",
      "type": "function"
    },
    {
      "inputs": [
        {
          "internalType": "address",
          "name": "position",
          "type": "address"
        }
      ],
      "name": "getPositionFrontendCode",
      "outputs": [
        {
          "internalType": "bytes32",
          "name": "",
          "type": "bytes32"
        }
      ],
      "stateMutability": "view",
      "type": "function"
    },
    {
      "inputs": [
        {
          "internalType": "address",
          "name": "savings",
          "type": "address"
        },
        {
          "internalType": "address",
          "name": "mintingHub",
          "type": "address"
        }
      ],
      "name": "init",
      "outputs": [],
      "stateMutability": "nonpayable",
      "type": "function"
    },
    {
      "inputs": [
        {
          "internalType": "uint256",
          "name": "amount",
          "type": "uint256"
        },
        {
          "internalType": "uint256",
          "name": "expectedShares",
          "type": "uint256"
        },
        {
          "internalType": "bytes32",
          "name": "frontendCode",
          "type": "bytes32"
        }
      ],
      "name": "invest",
      "outputs": [
        {
          "internalType": "uint256",
          "name": "",
          "type": "uint256"
        }
      ],
      "stateMutability": "nonpayable",
      "type": "function"
    },
    {
      "inputs": [
        {
          "internalType": "address",
          "name": "",
          "type": "address"
        }
      ],
      "name": "lastUsedFrontendCode",
      "outputs": [
        {
          "internalType": "bytes32",
          "name": "",
          "type": "bytes32"
        }
      ],
      "stateMutability": "view",
      "type": "function"
    },
    {
      "inputs": [],
      "name": "mintingFeeRate",
      "outputs": [
        {
          "internalType": "uint24",
          "name": "",
          "type": "uint24"
        }
      ],
      "stateMutability": "view",
      "type": "function"
    },
    {
      "inputs": [],
      "name": "nextFeeRate",
      "outputs": [
        {
          "internalType": "uint24",
          "name": "",
          "type": "uint24"
        }
      ],
      "stateMutability": "view",
      "type": "function"
    },
    {
      "inputs": [],
      "name": "nextMintingFeeRate",
      "outputs": [
        {
          "internalType": "uint24",
          "name": "",
          "type": "uint24"
        }
      ],
      "stateMutability": "view",
      "type": "function"
    },
    {
      "inputs": [],
      "name": "nextSavingsFeeRate",
      "outputs": [
        {
          "internalType": "uint24",
          "name": "",
          "type": "uint24"
        }
      ],
      "stateMutability": "view",
      "type": "function"
    },
    {
      "inputs": [],
      "name": "owner",
      "outputs": [
        {
          "internalType": "address",
          "name": "",
          "type": "address"
        }
      ],
      "stateMutability": "view",
      "type": "function"
    },
    {
      "inputs": [
        {
          "internalType": "uint24",
          "name": "newFeeRatePPM_",
          "type": "uint24"
        },
        {
          "internalType": "uint24",
          "name": "newSavingsFeeRatePPM_",
          "type": "uint24"
        },
        {
          "internalType": "uint24",
          "name": "newMintingFeeRatePPM_",
          "type": "uint24"
        },
        {
          "internalType": "address[]",
          "name": "helpers",
          "type": "address[]"
        }
      ],
      "name": "proposeChanges",
      "outputs": [],
      "stateMutability": "nonpayable",
      "type": "function"
    },
    {
      "inputs": [
        {
          "internalType": "address",
          "name": "target",
          "type": "address"
        },
        {
          "internalType": "uint256",
          "name": "shares",
          "type": "uint256"
        },
        {
          "internalType": "uint256",
          "name": "expectedProceeds",
          "type": "uint256"
        },
        {
          "internalType": "bytes32",
          "name": "frontendCode",
          "type": "bytes32"
        }
      ],
      "name": "redeem",
      "outputs": [
        {
          "internalType": "uint256",
          "name": "",
          "type": "uint256"
        }
      ],
      "stateMutability": "nonpayable",
      "type": "function"
    },
    {
      "inputs": [
        {
          "internalType": "address",
          "name": "",
          "type": "address"
        }
      ],
      "name": "referredPositions",
      "outputs": [
        {
          "internalType": "bytes32",
          "name": "",
          "type": "bytes32"
        }
      ],
      "stateMutability": "view",
      "type": "function"
    },
    {
      "inputs": [
        {
          "internalType": "bytes32",
          "name": "frontendCode",
          "type": "bytes32"
        }
      ],
      "name": "registerFrontendCode",
      "outputs": [
        {
          "internalType": "bool",
          "name": "",
          "type": "bool"
        }
      ],
      "stateMutability": "nonpayable",
      "type": "function"
    },
    {
      "inputs": [
        {
          "internalType": "address",
          "name": "position",
          "type": "address"
        },
        {
          "internalType": "bytes32",
          "name": "frontendCode",
          "type": "bytes32"
        }
      ],
      "name": "registerPosition",
      "outputs": [],
      "stateMutability": "nonpayable",
      "type": "function"
    },
    {
      "inputs": [],
      "name": "renounceOwnership",
      "outputs": [],
      "stateMutability": "nonpayable",
      "type": "function"
    },
    {
      "inputs": [],
      "name": "savingsFeeRate",
      "outputs": [
        {
          "internalType": "uint24",
          "name": "",
          "type": "uint24"
        }
      ],
      "stateMutability": "view",
      "type": "function"
    },
    {
      "inputs": [
        {
          "internalType": "bytes32",
          "name": "frontendCode",
          "type": "bytes32"
        },
        {
          "internalType": "address",
          "name": "to",
          "type": "address"
        }
      ],
      "name": "transferFrontendCode",
      "outputs": [
        {
          "internalType": "bool",
          "name": "",
          "type": "bool"
        }
      ],
      "stateMutability": "nonpayable",
      "type": "function"
    },
    {
      "inputs": [
        {
          "internalType": "address",
          "name": "newOwner",
          "type": "address"
        }
      ],
      "name": "transferOwnership",
      "outputs": [],
      "stateMutability": "nonpayable",
      "type": "function"
    },
    {
      "inputs": [
        {
          "internalType": "uint256",
          "name": "amount",
          "type": "uint256"
        },
        {
          "internalType": "bytes32",
          "name": "frontendCode",
          "type": "bytes32"
        }
      ],
      "name": "unwrapAndSell",
      "outputs": [
        {
          "internalType": "uint256",
          "name": "",
          "type": "uint256"
        }
      ],
      "stateMutability": "nonpayable",
      "type": "function"
    },
    {
      "inputs": [
        {
          "internalType": "address",
          "name": "position",
          "type": "address"
        },
        {
          "internalType": "uint256",
          "name": "amount",
          "type": "uint256"
        }
      ],
      "name": "updatePositionRewards",
      "outputs": [],
      "stateMutability": "nonpayable",
      "type": "function"
    },
    {
      "inputs": [
        {
          "internalType": "address",
          "name": "savingsOwner",
          "type": "address"
        },
        {
          "internalType": "bytes32",
          "name": "frontendCode",
          "type": "bytes32"
        }
      ],
      "name": "updateSavingCode",
      "outputs": [],
      "stateMutability": "nonpayable",
      "type": "function"
    },
    {
      "inputs": [
        {
          "internalType": "address",
          "name": "saver",
          "type": "address"
        },
        {
          "internalType": "uint256",
          "name": "interest",
          "type": "uint256"
        }
      ],
      "name": "updateSavingRewards",
      "outputs": [],
      "stateMutability": "nonpayable",
      "type": "function"
    },
    {
      "inputs": [
        {
          "internalType": "bytes32",
          "name": "frontendCode",
          "type": "bytes32"
        }
      ],
      "name": "withdrawRewards",
      "outputs": [
        {
          "internalType": "uint256",
          "name": "",
          "type": "uint256"
        }
      ],
      "stateMutability": "nonpayable",
      "type": "function"
    },
    {
      "inputs": [
        {
          "internalType": "bytes32",
          "name": "frontendCode",
          "type": "bytes32"
        },
        {
          "internalType": "address",
          "name": "to",
          "type": "address"
        }
      ],
      "name": "withdrawRewardsTo",
      "outputs": [
        {
          "internalType": "uint256",
          "name": "",
          "type": "uint256"
        }
      ],
      "stateMutability": "nonpayable",
      "type": "function"
    }
  ],
  "transactionHash": "0xf3c7af2e7d7ddd5da39a93bcb76717ee257ddbad9b3efde1c4ff125cea4c45c5",
  "args": [
    "0xe56E05a3E1375a147C122E5883667e57159485e6",
    "0x315f8Aa5823580d3135Bdc5BDf1D658be9eeb2D6"
  ],
  "numDeployments": 3,
  "solcInputHash": "4a5a3784dacf73f644d615d19c184266",
  "bytecode": "0x60e060405234801561001057600080fd5b5060405161186438038061186483398101604081905261002f9161016d565b338061005557604051631e4fbdf760e01b81526000600482015260240160405180910390fd5b61005e81610105565b506001600160a01b03821660808190526040805163669949ef60e11b8152905163cd3293de916004808201926020929091908290030181865afa1580156100a9573d6000803e3d6000fd5b505050506040513d601f19601f820116820180604052508101906100cd91906101a7565b6001600160a01b0390811660a0521660c0525060028054600160a01b600160e81b031916670c35000c3500027160a41b1790556101cb565b600080546001600160a01b038381166001600160a01b0319831681178455604051919092169283917f8be0079c531659141344cd1fd0a4f28419497f9722a3daafe3b4186f6b6457e09190a35050565b6001600160a01b038116811461016a57600080fd5b50565b6000806040838503121561018057600080fd5b825161018b81610155565b602084015190925061019c81610155565b809150509250929050565b6000602082840312156101b957600080fd5b81516101c481610155565b9392505050565b60805160a05160c0516116326102326000396000818161025f0152818161091a01526109d10152600081816104220152818161086401528181610bdd0152610e700152600081816104a301528181610a5201528181611087015261115d01526116326000f3fe608060405234801561001057600080fd5b50600436106101fb5760003560e01c80638da5cb5b1161011a578063d8f21747116100ad578063e28a0b961161007c578063e28a0b96146104f8578063f09a401614610507578063f2fde38b1461051a578063f83279501461052d578063fe9f9d2c1461054057600080fd5b8063d8f2174714610475578063dbe8a4c21461049e578063dc3012ef146104c5578063e0c01f79146104d857600080fd5b8063a34ca630116100e9578063a34ca6301461041d578063c275a20014610444578063c2db9d3214610457578063d8db60c91461045f57600080fd5b80638da5cb5b146103d0578063978bbdb9146103e15780639bfe870b146103f7578063a07377761461040a57600080fd5b8063423bf67411610192578063736a3f0511610161578063736a3f05146103715780637b025bdf146103945780637dfb6626146103aa5780638467004f146103bd57600080fd5b8063423bf6741461032357806357eac85f146103365780635ebdc04314610356578063715018a61461036957600080fd5b806331266ff5116101ce57806331266ff5146102965780633603f35d146102a9578063368da021146102f65780633f6068fb1461030c57600080fd5b806301137702146102005780631aa7a5591461022f5780631acad25d1461025a5780632a5e323114610281575b600080fd5b60025461021690600160e81b900462ffffff1681565b60405162ffffff90911681526020015b60405180910390f35b600254610242906001600160a01b031681565b6040516001600160a01b039091168152602001610226565b6102427f000000000000000000000000000000000000000000000000000000000000000081565b61029461028f36600461130e565b610553565b005b6102946102a436600461130e565b610605565b6102d96102b7366004611338565b600560205260009081526040902080546001909101546001600160a01b031682565b604080519283526001600160a01b03909116602083015201610226565b60025461021690600160b81b900462ffffff1681565b61031560045481565b604051908152602001610226565b61029461033136600461130e565b6106ac565b610315610344366004611351565b60076020526000908152604090205481565b61031561036436600461136c565b6106fc565b61029461074a565b61038461037f366004611338565b61075e565b6040519015158152602001610226565b60025461021690600160d01b900462ffffff1681565b6103156103b8366004611338565b61080a565b6103156103cb366004611398565b610857565b6000546001600160a01b0316610242565b60025461021690600160a01b900462ffffff1681565b6103156104053660046113c4565b61090e565b61029461041836600461130e565b610afd565b6102427f000000000000000000000000000000000000000000000000000000000000000081565b6102946104523660046113f9565b610b82565b610294610d04565b600354610216906301000000900462ffffff1681565b610315610483366004611351565b6001600160a01b031660009081526006602052604090205490565b6102427f000000000000000000000000000000000000000000000000000000000000000081565b6103156104d33660046114a0565b610e63565b6103156104e6366004611351565b60066020526000908152604090205481565b6003546102169062ffffff1681565b6102946105153660046114d9565b610f2b565b610294610528366004611351565b610f6f565b600154610242906001600160a01b031681565b61038461054e36600461136c565b610fad565b6001546001600160a01b031633811461057f576040516338b601a360e11b815260040160405180910390fd5b6001600160a01b0383166000908152600660205260409020541561060057600254620f4240906105bb90600160d01b900462ffffff1684611519565b6105c59190611530565b6001600160a01b03841660009081526006602090815260408083205483526005909152812080549091906105fa908490611552565b90915550505b505050565b6002546001600160a01b0316338114610631576040516338b601a360e11b815260040160405180910390fd5b6001600160a01b0383166000908152600760205260409020541561060057600254620f42409061066d90600160b81b900462ffffff1684611519565b6106779190611530565b6001600160a01b03841660009081526007602090815260408083205483526005909152812080549091906105fa908490611552565b6002546001600160a01b03163381146106d8576040516338b601a360e11b815260040160405180910390fd5b811561060057506001600160a01b0391909116600090815260076020526040902055565b60008281526005602052604081206001015483906001600160a01b031633146107385760405163729260b160e11b815260040160405180910390fd5b6107428484611068565b949350505050565b61075261120b565b61075c6000611238565b565b6000818152600560205260408120600101546001600160a01b0316151580610784575081155b156107a2576040516378d0770560e01b815260040160405180910390fd5b60008281526005602090815260409182902060010180546001600160a01b03191633908117909155825190815290810184905281517fac113b25e2f6da9f42c0fcfcb2a028fd74e615dca6ef2a71abffad4577797072929181900390910190a1506001919050565b60008181526005602052604081206001015482906001600160a01b031633146108465760405163729260b160e11b815260040160405180910390fd5b6108508333611068565b9392505050565b6000806001600160a01b037f00000000000000000000000000000000000000000000000000000000000000001663a1c1fb4f336040516001600160e01b031960e084901b1681526001600160a01b03909116600482015260248101889052604481018790526064016020604051808303816000875af11580156108de573d6000803e3d6000fd5b505050506040513d601f19601f820116820180604052508101906109029190611565565b90506107428386611288565b60006001600160a01b037f0000000000000000000000000000000000000000000000000000000000000000166323b872dd336040516001600160e01b031960e084901b1681526001600160a01b039091166004820152306024820152604481018690526064016020604051808303816000875af1158015610993573d6000803e3d6000fd5b505050506040513d601f19601f820116820180604052508101906109b7919061157e565b506040516387481e7360e01b8152600481018490526000907f00000000000000000000000000000000000000000000000000000000000000006001600160a01b0316906387481e73906024016020604051808303816000875af1158015610a22573d6000803e3d6000fd5b505050506040513d601f19601f82011682018060405250810190610a469190611565565b90506001600160a01b037f00000000000000000000000000000000000000000000000000000000000000001663a9059cbb336040516001600160e01b031960e084901b1681526001600160a01b039091166004820152602481018490526044016020604051808303816000875af1158015610ac5573d6000803e3d6000fd5b505050506040513d601f19601f82011682018060405250810190610ae9919061157e565b50610af48382611288565b90505b92915050565b6001546001600160a01b0316338114610b29576040516338b601a360e11b815260040160405180910390fd5b6001600160a01b038316600081815260066020908152604091829020859055815192835282018490527f9e429360cfeef15ad3c2ba1c39a2c8788c2774663312112e0af1b084a5d56010910160405180910390a1505050565b614e208562ffffff161180610b9e5750620f42408462ffffff16115b80610bb05750620f42408362ffffff16115b15610bce5760405163c2c7709b60e01b815260040160405180910390fd5b60405163352e3a8360e01b81527f00000000000000000000000000000000000000000000000000000000000000006001600160a01b03169063352e3a8390610c1e903390869086906004016115a0565b60006040518083038186803b158015610c3657600080fd5b505afa158015610c4a573d6000803e3d6000fd5b50506002805462ffffff808a16600160e81b026001600160e81b03909216919091179091556003805487831663010000000265ffffffffffff199091169289169290921791909117905550610ca490504262093a80611552565b60048190556040805133815262ffffff888116602083015287811682840152861660608201526080810192909252517f7675f8a1fec4ff7e3c4b4a7771beca147e122e702f5e632a812a983d74136e019181900360a00190a15050505050565b600254600160e81b810462ffffff908116600160a01b90920416148015610d3e575060025460035462ffffff908116600160b81b90920416145b8015610d6457506002546003546301000000900462ffffff908116600160d01b90920416145b15610d82576040516304fe479160e01b815260040160405180910390fd5b600454421015610dae57600480546040516374f75f6360e01b8152918201526024015b60405180910390fd5b60028054600354600160d01b6301000000820462ffffff908116820262ffffff60d01b19600160b81b948316850262ffffff60b81b19600160a01b600160e81b8904861681029190911665ffffffffffff60a01b19909816979097171716179485905560408051338152948604821660208601529285048116848401529304909216606082015290517fad985451be636dfc329b4c01326f5378dd03b425d9ddc03d21a38d7ebc8f6e599181900360800190a1565b6000806001600160a01b037f0000000000000000000000000000000000000000000000000000000000000000166391ac6f99336040516001600160e01b031960e084901b1681526001600160a01b039182166004820152908916602482015260448101889052606481018790526084016020604051808303816000875af1158015610ef2573d6000803e3d6000fd5b505050506040513d601f19601f82011682018060405250810190610f169190611565565b9050610f228382611288565b95945050505050565b610f3361120b565b600280546001600160a01b038085166001600160a01b0319928316179092556001805492841692909116919091179055610f6b61074a565b5050565b610f7761120b565b6001600160a01b038116610fa157604051631e4fbdf760e01b815260006004820152602401610da5565b610faa81611238565b50565b60008281526005602052604081206001015483906001600160a01b03163314610fe95760405163729260b160e11b815260040160405180910390fd5b600084815260056020526040902060010180546001600160a01b0319166001600160a01b0385161790557f4f1b00fb86992889ee465121c65a60c82612738f92c5de138d81ed4576e2544733604080516001600160a01b0392831681529186166020830152810186905260600160405180910390a15060019392505050565b60008060056000858152602001908152602001600020600001549050807f00000000000000000000000000000000000000000000000000000000000000006001600160a01b03166391a0ac6a6040518163ffffffff1660e01b8152600401602060405180830381865afa1580156110e3573d6000803e3d6000fd5b505050506040513d601f19601f820116820180604052508101906111079190611565565b101561112657604051639efc0a6960e01b815260040160405180910390fd5b60008481526005602052604080822091909155516308b8bb4b60e01b81526001600160a01b038481166004830152602482018390527f000000000000000000000000000000000000000000000000000000000000000016906308b8bb4b90604401600060405180830381600087803b1580156111a157600080fd5b505af11580156111b5573d6000803e3d6000fd5b5050604080516001600160a01b0387168152602081018590529081018790527f7728e907e9a9ce01e7031dcc773e276dab993b745d3295702af40a91d67683f89250606001905060405180910390a19392505050565b6000546001600160a01b0316331461075c5760405163118cdaa760e01b8152336004820152602401610da5565b600080546001600160a01b038381166001600160a01b0319831681178455604051919092169283917f8be0079c531659141344cd1fd0a4f28419497f9722a3daafe3b4186f6b6457e09190a35050565b81611291575050565b336000908152600760205260409020829055600254620f4240906112c190600160a01b900462ffffff1683611519565b6112cb9190611530565b600083815260056020526040812080549091906112e9908490611552565b90915550505050565b80356001600160a01b038116811461130957600080fd5b919050565b6000806040838503121561132157600080fd5b61132a836112f2565b946020939093013593505050565b60006020828403121561134a57600080fd5b5035919050565b60006020828403121561136357600080fd5b610850826112f2565b6000806040838503121561137f57600080fd5b8235915061138f602084016112f2565b90509250929050565b6000806000606084860312156113ad57600080fd5b505081359360208301359350604090920135919050565b600080604083850312156113d757600080fd5b50508035926020909101359150565b803562ffffff8116811461130957600080fd5b60008060008060006080868803121561141157600080fd5b61141a866113e6565b9450611428602087016113e6565b9350611436604087016113e6565b9250606086013567ffffffffffffffff81111561145257600080fd5b8601601f8101881361146357600080fd5b803567ffffffffffffffff81111561147a57600080fd5b8860208260051b840101111561148f57600080fd5b959894975092955050506020019190565b600080600080608085870312156114b657600080fd5b6114bf856112f2565b966020860135965060408601359560600135945092505050565b600080604083850312156114ec57600080fd5b6114f5836112f2565b915061138f602084016112f2565b634e487b7160e01b600052601160045260246000fd5b8082028115828204841417610af757610af7611503565b60008261154d57634e487b7160e01b600052601260045260246000fd5b500490565b80820180821115610af757610af7611503565b60006020828403121561157757600080fd5b5051919050565b60006020828403121561159057600080fd5b81518015158114610af457600080fd5b6001600160a01b0384168152604060208201819052810182905260008360608301825b858110156115f1576001600160a01b036115dc846112f2565b168252602092830192909101906001016115c3565b50969550505050505056fea264697066735822122049051de2b59314bd26c5a13ebb41ce87e729a9f178b8e53020a6dc440ec7de2b64736f6c634300081a0033",
  "devdoc": {
    "errors": {
      "OwnableInvalidOwner(address)": [
        {
          "details": "The owner is not a valid owner account. (eg. `address(0)`)"
        }
      ],
      "OwnableUnauthorizedAccount(address)": [
        {
          "details": "The caller account is not authorized to perform an operation."
        }
      ]
    },
    "kind": "dev",
    "methods": {
      "invest(uint256,uint256,bytes32)": {
        "details": "If equity is close to zero or negative, you need to send enough dEURO to bring equity back to 1_000 dEURO.",
        "params": {
          "amount": "DecentralizedEUROs to invest",
          "expectedShares": "Minimum amount of expected shares for front running protection",
          "frontendCode": "Code of the used frontend or referrer"
        }
      },
      "owner()": {
        "details": "Returns the address of the current owner."
      },
      "renounceOwnership()": {
        "details": "Leaves the contract without owner. It will not be possible to call `onlyOwner` functions. Can only be called by the current owner. NOTE: Renouncing ownership will leave the contract without an owner, thereby disabling any functionality that is only available to the owner."
      },
      "transferOwnership(address)": {
        "details": "Transfers ownership of the contract to a new account (`newOwner`). Can only be called by the current owner."
      }
    },
    "version": 1
  },
  "userdoc": {
    "kind": "user",
    "methods": {
      "invest(uint256,uint256,bytes32)": {
        "notice": "Call this a wrapper method to obtain newly minted pool shares in exchange for DecentralizedEUROs and reward frontend providers with a small commission. No allowance required (i.e., it is hard-coded in the DecentralizedEURO token contract). Make sure to invest at least 10e-12 * market cap to avoid rounding losses."
      },
      "proposeChanges(uint24,uint24,uint24,address[])": {
        "notice": "Proposes new referral rates that will available to be executed after seven days. To cancel a proposal, just overwrite it with a new one proposing the current rate."
      }
    },
    "version": 1
  },
  "storageLayout": {
    "storage": [
      {
        "astId": 8,
        "contract": "contracts/gateway/FrontendGateway.sol:FrontendGateway",
        "label": "_owner",
        "offset": 0,
        "slot": "0",
        "type": "t_address"
      },
      {
        "astId": 14878,
        "contract": "contracts/gateway/FrontendGateway.sol:FrontendGateway",
        "label": "MINTING_HUB",
        "offset": 0,
        "slot": "1",
        "type": "t_contract(IMintingHubGateway)16232"
      },
      {
        "astId": 14881,
        "contract": "contracts/gateway/FrontendGateway.sol:FrontendGateway",
        "label": "SAVINGS",
        "offset": 0,
        "slot": "2",
        "type": "t_contract(SavingsGateway)15981"
      },
      {
        "astId": 14883,
        "contract": "contracts/gateway/FrontendGateway.sol:FrontendGateway",
        "label": "feeRate",
        "offset": 20,
        "slot": "2",
        "type": "t_uint24"
      },
      {
        "astId": 14885,
        "contract": "contracts/gateway/FrontendGateway.sol:FrontendGateway",
        "label": "savingsFeeRate",
        "offset": 23,
        "slot": "2",
        "type": "t_uint24"
      },
      {
        "astId": 14887,
        "contract": "contracts/gateway/FrontendGateway.sol:FrontendGateway",
        "label": "mintingFeeRate",
        "offset": 26,
        "slot": "2",
        "type": "t_uint24"
      },
      {
        "astId": 14889,
        "contract": "contracts/gateway/FrontendGateway.sol:FrontendGateway",
        "label": "nextFeeRate",
        "offset": 29,
        "slot": "2",
        "type": "t_uint24"
      },
      {
        "astId": 14891,
        "contract": "contracts/gateway/FrontendGateway.sol:FrontendGateway",
        "label": "nextSavingsFeeRate",
        "offset": 0,
        "slot": "3",
        "type": "t_uint24"
      },
      {
        "astId": 14893,
        "contract": "contracts/gateway/FrontendGateway.sol:FrontendGateway",
        "label": "nextMintingFeeRate",
        "offset": 3,
        "slot": "3",
        "type": "t_uint24"
      },
      {
        "astId": 14895,
        "contract": "contracts/gateway/FrontendGateway.sol:FrontendGateway",
        "label": "changeTimeLock",
        "offset": 0,
        "slot": "4",
        "type": "t_uint256"
      },
      {
        "astId": 14900,
        "contract": "contracts/gateway/FrontendGateway.sol:FrontendGateway",
        "label": "frontendCodes",
        "offset": 0,
        "slot": "5",
        "type": "t_mapping(t_bytes32,t_struct(FrontendCode)15988_storage)"
      },
      {
        "astId": 14904,
        "contract": "contracts/gateway/FrontendGateway.sol:FrontendGateway",
        "label": "referredPositions",
        "offset": 0,
        "slot": "6",
        "type": "t_mapping(t_address,t_bytes32)"
      },
      {
        "astId": 14908,
        "contract": "contracts/gateway/FrontendGateway.sol:FrontendGateway",
        "label": "lastUsedFrontendCode",
        "offset": 0,
        "slot": "7",
        "type": "t_mapping(t_address,t_bytes32)"
      }
    ],
    "types": {
      "t_address": {
        "encoding": "inplace",
        "label": "address",
        "numberOfBytes": "20"
      },
      "t_bytes32": {
        "encoding": "inplace",
        "label": "bytes32",
        "numberOfBytes": "32"
      },
      "t_contract(IMintingHubGateway)16232": {
        "encoding": "inplace",
        "label": "contract IMintingHubGateway",
        "numberOfBytes": "20"
      },
      "t_contract(SavingsGateway)15981": {
        "encoding": "inplace",
        "label": "contract SavingsGateway",
        "numberOfBytes": "20"
      },
      "t_mapping(t_address,t_bytes32)": {
        "encoding": "mapping",
        "key": "t_address",
        "label": "mapping(address => bytes32)",
        "numberOfBytes": "32",
        "value": "t_bytes32"
      },
      "t_mapping(t_bytes32,t_struct(FrontendCode)15988_storage)": {
        "encoding": "mapping",
        "key": "t_bytes32",
        "label": "mapping(bytes32 => struct IFrontendGateway.FrontendCode)",
        "numberOfBytes": "32",
        "value": "t_struct(FrontendCode)15988_storage"
      },
      "t_struct(FrontendCode)15988_storage": {
        "encoding": "inplace",
        "label": "struct IFrontendGateway.FrontendCode",
        "members": [
          {
            "astId": 15985,
            "contract": "contracts/gateway/FrontendGateway.sol:FrontendGateway",
            "label": "balance",
            "offset": 0,
            "slot": "0",
            "type": "t_uint256"
          },
          {
            "astId": 15987,
            "contract": "contracts/gateway/FrontendGateway.sol:FrontendGateway",
            "label": "owner",
            "offset": 0,
            "slot": "1",
            "type": "t_address"
          }
        ],
        "numberOfBytes": "64"
      },
      "t_uint24": {
        "encoding": "inplace",
        "label": "uint24",
        "numberOfBytes": "3"
      },
      "t_uint256": {
        "encoding": "inplace",
        "label": "uint256",
        "numberOfBytes": "32"
      }
    }
  }
}