{
  "address": "0x404Aa0A74352dBE270e0497af39ECb890ec7716C",
  "abi": [
    {
      "inputs": [
        {
          "internalType": "address",
          "name": "_deuro",
          "type": "address"
        },
        {
          "internalType": "address",
          "name": "_leadrate",
          "type": "address"
        },
        {
          "internalType": "address",
          "name": "_roller",
          "type": "address"
        },
        {
          "internalType": "address",
          "name": "_factory",
          "type": "address"
        },
        {
          "internalType": "address",
          "name": "_gateway",
          "type": "address"
        }
      ],
      "stateMutability": "nonpayable",
      "type": "constructor"
    },
    {
      "inputs": [],
      "name": "IncompatibleCollateral",
      "type": "error"
    },
    {
      "inputs": [],
      "name": "InsufficientCollateral",
      "type": "error"
    },
    {
      "inputs": [],
      "name": "InvalidPos",
      "type": "error"
    },
    {
      "inputs": [
        {
          "internalType": "uint256",
          "name": "amount",
          "type": "uint256"
        }
      ],
      "name": "LeaveNoDust",
      "type": "error"
    },
    {
      "inputs": [],
      "name": "UnexpectedPrice",
      "type": "error"
    },
    {
      "anonymous": false,
      "inputs": [
        {
          "indexed": true,
          "internalType": "address",
          "name": "position",
          "type": "address"
        },
        {
          "indexed": false,
          "internalType": "uint256",
          "name": "number",
          "type": "uint256"
        },
        {
          "indexed": false,
          "internalType": "uint256",
          "name": "size",
          "type": "uint256"
        }
      ],
      "name": "ChallengeAverted",
      "type": "event"
    },
    {
      "anonymous": false,
      "inputs": [
        {
          "indexed": true,
          "internalType": "address",
          "name": "challenger",
          "type": "address"
        },
        {
          "indexed": true,
          "internalType": "address",
          "name": "position",
          "type": "address"
        },
        {
          "indexed": false,
          "internalType": "uint256",
          "name": "size",
          "type": "uint256"
        },
        {
          "indexed": false,
          "internalType": "uint256",
          "name": "number",
          "type": "uint256"
        }
      ],
      "name": "ChallengeStarted",
      "type": "event"
    },
    {
      "anonymous": false,
      "inputs": [
        {
          "indexed": true,
          "internalType": "address",
          "name": "position",
          "type": "address"
        },
        {
          "indexed": false,
          "internalType": "uint256",
          "name": "number",
          "type": "uint256"
        },
        {
          "indexed": false,
          "internalType": "uint256",
          "name": "bid",
          "type": "uint256"
        },
        {
          "indexed": false,
          "internalType": "uint256",
          "name": "acquiredCollateral",
          "type": "uint256"
        },
        {
          "indexed": false,
          "internalType": "uint256",
          "name": "challengeSize",
          "type": "uint256"
        }
      ],
      "name": "ChallengeSucceeded",
      "type": "event"
    },
    {
      "anonymous": false,
      "inputs": [
        {
          "indexed": false,
          "internalType": "address",
          "name": "pos",
          "type": "address"
        },
        {
          "indexed": false,
          "internalType": "uint256",
          "name": "amount",
          "type": "uint256"
        },
        {
          "indexed": false,
          "internalType": "uint256",
          "name": "priceE36MinusDecimals",
          "type": "uint256"
        }
      ],
      "name": "ForcedSale",
      "type": "event"
    },
    {
      "anonymous": false,
      "inputs": [
        {
          "indexed": true,
          "internalType": "address",
          "name": "owner",
          "type": "address"
        },
        {
          "indexed": true,
          "internalType": "address",
          "name": "position",
          "type": "address"
        },
        {
          "indexed": false,
          "internalType": "address",
          "name": "original",
          "type": "address"
        },
        {
          "indexed": false,
          "internalType": "address",
          "name": "collateral",
          "type": "address"
        }
      ],
      "name": "PositionOpened",
      "type": "event"
    },
    {
      "anonymous": false,
      "inputs": [
        {
          "indexed": false,
          "internalType": "address",
          "name": "collateral",
          "type": "address"
        },
        {
          "indexed": true,
          "internalType": "address",
          "name": "beneficiary",
          "type": "address"
        },
        {
          "indexed": false,
          "internalType": "uint256",
          "name": "amount",
          "type": "uint256"
        }
      ],
      "name": "PostponedReturn",
      "type": "event"
    },
    {
      "inputs": [],
      "name": "CHALLENGER_REWARD",
      "outputs": [
        {
          "internalType": "uint256",
          "name": "",
          "type": "uint256"
        }
      ],
      "stateMutability": "view",
      "type": "function"
    },
    {
      "inputs": [],
      "name": "DEURO",
      "outputs": [
        {
          "internalType": "contract IDecentralizedEURO",
          "name": "",
          "type": "address"
        }
      ],
      "stateMutability": "view",
      "type": "function"
    },
    {
      "inputs": [],
      "name": "EXPIRED_PRICE_FACTOR",
      "outputs": [
        {
          "internalType": "uint256",
          "name": "",
          "type": "uint256"
        }
      ],
      "stateMutability": "view",
      "type": "function"
    },
    {
      "inputs": [],
      "name": "GATEWAY",
      "outputs": [
        {
          "internalType": "contract IFrontendGateway",
          "name": "",
          "type": "address"
        }
      ],
      "stateMutability": "view",
      "type": "function"
    },
    {
      "inputs": [],
      "name": "OPENING_FEE",
      "outputs": [
        {
          "internalType": "uint256",
          "name": "",
          "type": "uint256"
        }
      ],
      "stateMutability": "view",
      "type": "function"
    },
    {
      "inputs": [],
      "name": "RATE",
      "outputs": [
        {
          "internalType": "contract ILeadrate",
          "name": "",
          "type": "address"
        }
      ],
      "stateMutability": "view",
      "type": "function"
    },
    {
      "inputs": [],
      "name": "ROLLER",
      "outputs": [
        {
          "internalType": "contract PositionRoller",
          "name": "",
          "type": "address"
        }
      ],
      "stateMutability": "view",
      "type": "function"
    },
    {
      "inputs": [
        {
          "internalType": "uint32",
          "name": "_challengeNumber",
          "type": "uint32"
        },
        {
          "internalType": "uint256",
          "name": "size",
          "type": "uint256"
        },
        {
          "internalType": "bool",
          "name": "postponeCollateralReturn",
          "type": "bool"
        }
      ],
      "name": "bid",
      "outputs": [],
      "stateMutability": "nonpayable",
      "type": "function"
    },
    {
      "inputs": [
        {
          "internalType": "contract IPosition",
          "name": "pos",
          "type": "address"
        },
        {
          "internalType": "uint256",
          "name": "upToAmount",
          "type": "uint256"
        }
      ],
      "name": "buyExpiredCollateral",
      "outputs": [
        {
          "internalType": "uint256",
          "name": "",
          "type": "uint256"
        }
      ],
      "stateMutability": "nonpayable",
      "type": "function"
    },
    {
      "inputs": [
        {
          "internalType": "address",
          "name": "_positionAddr",
          "type": "address"
        },
        {
          "internalType": "uint256",
          "name": "_collateralAmount",
          "type": "uint256"
        },
        {
          "internalType": "uint256",
          "name": "minimumPrice",
          "type": "uint256"
        }
      ],
      "name": "challenge",
      "outputs": [
        {
          "internalType": "uint256",
          "name": "",
          "type": "uint256"
        }
      ],
      "stateMutability": "nonpayable",
      "type": "function"
    },
    {
      "inputs": [
        {
          "internalType": "uint256",
          "name": "",
          "type": "uint256"
        }
      ],
      "name": "challenges",
      "outputs": [
        {
          "internalType": "address",
          "name": "challenger",
          "type": "address"
        },
        {
          "internalType": "uint40",
          "name": "start",
          "type": "uint40"
        },
        {
          "internalType": "contract IPosition",
          "name": "position",
          "type": "address"
        },
        {
          "internalType": "uint256",
          "name": "size",
          "type": "uint256"
        }
      ],
      "stateMutability": "view",
      "type": "function"
    },
    {
      "inputs": [
        {
          "internalType": "address",
          "name": "parent",
          "type": "address"
        },
        {
          "internalType": "uint256",
          "name": "_initialCollateral",
          "type": "uint256"
        },
        {
          "internalType": "uint256",
          "name": "_initialMint",
          "type": "uint256"
        },
        {
          "internalType": "uint40",
          "name": "expiration",
          "type": "uint40"
        }
      ],
      "name": "clone",
      "outputs": [
        {
          "internalType": "address",
          "name": "",
          "type": "address"
        }
      ],
      "stateMutability": "nonpayable",
      "type": "function"
    },
    {
      "inputs": [
        {
          "internalType": "address",
          "name": "parent",
          "type": "address"
        },
        {
          "internalType": "uint256",
          "name": "_initialCollateral",
          "type": "uint256"
        },
        {
          "internalType": "uint256",
          "name": "_initialMint",
          "type": "uint256"
        },
        {
          "internalType": "uint40",
          "name": "expiration",
          "type": "uint40"
        },
        {
          "internalType": "bytes32",
          "name": "frontendCode",
          "type": "bytes32"
        }
      ],
      "name": "clone",
      "outputs": [
        {
          "internalType": "address",
          "name": "",
          "type": "address"
        }
      ],
      "stateMutability": "nonpayable",
      "type": "function"
    },
    {
      "inputs": [
        {
          "internalType": "address",
          "name": "owner",
          "type": "address"
        },
        {
          "internalType": "address",
          "name": "parent",
          "type": "address"
        },
        {
          "internalType": "uint256",
          "name": "_initialCollateral",
          "type": "uint256"
        },
        {
          "internalType": "uint256",
          "name": "_initialMint",
          "type": "uint256"
        },
        {
          "internalType": "uint40",
          "name": "expiration",
          "type": "uint40"
        },
        {
          "internalType": "bytes32",
          "name": "frontendCode",
          "type": "bytes32"
        }
      ],
      "name": "clone",
      "outputs": [
        {
          "internalType": "address",
          "name": "",
          "type": "address"
        }
      ],
      "stateMutability": "nonpayable",
      "type": "function"
    },
    {
      "inputs": [
        {
          "internalType": "address",
          "name": "owner",
          "type": "address"
        },
        {
          "internalType": "address",
          "name": "parent",
          "type": "address"
        },
        {
          "internalType": "uint256",
          "name": "_initialCollateral",
          "type": "uint256"
        },
        {
          "internalType": "uint256",
          "name": "_initialMint",
          "type": "uint256"
        },
        {
          "internalType": "uint40",
          "name": "expiration",
          "type": "uint40"
        }
      ],
      "name": "clone",
      "outputs": [
        {
          "internalType": "address",
          "name": "",
          "type": "address"
        }
      ],
      "stateMutability": "nonpayable",
      "type": "function"
    },
    {
      "inputs": [
        {
          "internalType": "contract IPosition",
          "name": "pos",
          "type": "address"
        }
      ],
      "name": "expiredPurchasePrice",
      "outputs": [
        {
          "internalType": "uint256",
          "name": "",
          "type": "uint256"
        }
      ],
      "stateMutability": "view",
      "type": "function"
    },
    {
      "inputs": [
        {
          "internalType": "uint256",
          "name": "amount",
          "type": "uint256"
        }
      ],
      "name": "notifyInterestPaid",
      "outputs": [],
      "stateMutability": "nonpayable",
      "type": "function"
    },
    {
      "inputs": [
        {
          "internalType": "address",
          "name": "_collateralAddress",
          "type": "address"
        },
        {
          "internalType": "uint256",
          "name": "_minCollateral",
          "type": "uint256"
        },
        {
          "internalType": "uint256",
          "name": "_initialCollateral",
          "type": "uint256"
        },
        {
          "internalType": "uint256",
          "name": "_mintingMaximum",
          "type": "uint256"
        },
        {
          "internalType": "uint40",
          "name": "_initPeriodSeconds",
          "type": "uint40"
        },
        {
          "internalType": "uint40",
          "name": "_expirationSeconds",
          "type": "uint40"
        },
        {
          "internalType": "uint40",
          "name": "_challengeSeconds",
          "type": "uint40"
        },
        {
          "internalType": "uint24",
          "name": "_riskPremium",
          "type": "uint24"
        },
        {
          "internalType": "uint256",
          "name": "_liqPrice",
          "type": "uint256"
        },
        {
          "internalType": "uint24",
          "name": "_reservePPM",
          "type": "uint24"
        }
      ],
      "name": "openPosition",
      "outputs": [
        {
          "internalType": "address",
          "name": "",
          "type": "address"
        }
      ],
      "stateMutability": "nonpayable",
      "type": "function"
    },
    {
      "inputs": [
        {
          "internalType": "address",
          "name": "_collateralAddress",
          "type": "address"
        },
        {
          "internalType": "uint256",
          "name": "_minCollateral",
          "type": "uint256"
        },
        {
          "internalType": "uint256",
          "name": "_initialCollateral",
          "type": "uint256"
        },
        {
          "internalType": "uint256",
          "name": "_mintingMaximum",
          "type": "uint256"
        },
        {
          "internalType": "uint40",
          "name": "_initPeriodSeconds",
          "type": "uint40"
        },
        {
          "internalType": "uint40",
          "name": "_expirationSeconds",
          "type": "uint40"
        },
        {
          "internalType": "uint40",
          "name": "_challengeSeconds",
          "type": "uint40"
        },
        {
          "internalType": "uint24",
          "name": "_riskPremium",
          "type": "uint24"
        },
        {
          "internalType": "uint256",
          "name": "_liqPrice",
          "type": "uint256"
        },
        {
          "internalType": "uint24",
          "name": "_reservePPM",
          "type": "uint24"
        },
        {
          "internalType": "bytes32",
          "name": "_frontendCode",
          "type": "bytes32"
        }
      ],
      "name": "openPosition",
      "outputs": [
        {
          "internalType": "address",
          "name": "",
          "type": "address"
        }
      ],
      "stateMutability": "nonpayable",
      "type": "function"
    },
    {
      "inputs": [
        {
          "internalType": "address",
          "name": "collateral",
          "type": "address"
        },
        {
          "internalType": "address",
          "name": "owner",
          "type": "address"
        }
      ],
      "name": "pendingReturns",
      "outputs": [
        {
          "internalType": "uint256",
          "name": "amount",
          "type": "uint256"
        }
      ],
      "stateMutability": "view",
      "type": "function"
    },
    {
      "inputs": [
        {
          "internalType": "uint32",
          "name": "challengeNumber",
          "type": "uint32"
        }
      ],
      "name": "price",
      "outputs": [
        {
          "internalType": "uint256",
          "name": "",
          "type": "uint256"
        }
      ],
      "stateMutability": "view",
      "type": "function"
    },
    {
      "inputs": [
        {
          "internalType": "address",
          "name": "collateral",
          "type": "address"
        },
        {
          "internalType": "address",
          "name": "target",
          "type": "address"
        }
      ],
      "name": "returnPostponedCollateral",
      "outputs": [],
      "stateMutability": "nonpayable",
      "type": "function"
    },
    {
      "inputs": [
        {
          "internalType": "bytes4",
          "name": "interfaceId",
          "type": "bytes4"
        }
      ],
      "name": "supportsInterface",
      "outputs": [
        {
          "internalType": "bool",
          "name": "",
          "type": "bool"
        }
      ],
      "stateMutability": "view",
      "type": "function"
    }
  ],
  "transactionHash": "0x7722740f994e0f705a1252dcde112d899a741590c824014e1f19003776bd0e1b",
  "args": [
    "0xe56E05a3E1375a147C122E5883667e57159485e6",
    "0x9Ae5cA00c7F1af085225720c905f15c020A753a3",
    "0x5DdfB59AC12caBE7E443220222e6CDd4187651CA",
    "0x5F57ae8222c1B8A56c808AF91a6D1171F1E0859A",
    "0x4693ed9c9ACfeF5df8E7D9c8F97d5eEBf406e7C7"
  ],
  "numDeployments": 2,
  "solcInputHash": "4a5a3784dacf73f644d615d19c184266",
  "bytecode": "0x61012060405234801561001157600080fd5b506040516132dd3803806132dd83398101604081905261003091610074565b6001600160a01b0394851660a05292841660e0528316608052821660c05216610100526100d9565b80516001600160a01b038116811461006f57600080fd5b919050565b600080600080600060a0868803121561008c57600080fd5b61009586610058565b94506100a360208701610058565b93506100b160408701610058565b92506100bf60608701610058565b91506100cd60808701610058565b90509295509295909350565b60805160a05160c05160e051610100516131346101a9600039600081816101e301528181610bc201528181610d07015261109e0152600061026e015260006103aa01526000818161034a01528181610914015281816109c701528181610a3a01528181610c5e01528181610fe10152818161113a015281816112e9015281816115de01528181611d91015281816121e90152818161229e01528181612385015281816123f0015281816124c20152818161256f01526125e80152600081816108e401526111f001526131346000f3fe608060405234801561001057600080fd5b506004361061014d5760003560e01c80637d0ea02d116100c3578063c14a9f051161007c578063c14a9f0514610332578063dbe8a4c214610345578063e6ac5ea41461036c578063e6ca1df21461037f578063e85cde6f14610392578063f09e9e3a146103a557600080fd5b80637d0ea02d146102905780637eb81bb3146102a55780638f1d3776146102b857806393a83a24146103035780639d8ff2a614610316578063af5806b61461032957600080fd5b8063338c537111610115578063338c5371146101de57806335a4b349146102055780633bb84940146102185780634cb959141461022b578063643745fb1461023e578063664e97041461026957600080fd5b806301ffc9a7146101525780630f2f8e861461017a57806325e28124146101905780632bf78dd8146101a35780632e2c6314146101b3575b600080fd5b610165610160366004612901565b6103cc565b60405190151581526020015b60405180910390f35b610182600a81565b604051908152602001610171565b61018261019e366004612943565b6103f7565b610182683635c9adc5dea0000081565b6101c66101c1366004612982565b610643565b6040516001600160a01b039091168152602001610171565b6101c67f000000000000000000000000000000000000000000000000000000000000000081565b6101c66102133660046129e4565b61065b565b6101c6610226366004612a8a565b610b79565b6101c6610239366004612adc565b610b93565b61018261024c366004612b93565b600160209081526000928352604080842090915290825290205481565b6101c67f000000000000000000000000000000000000000000000000000000000000000081565b6102a361029e366004612bcc565b610c3c565b005b6102a36102b3366004612c05565b610d74565b6102cb6102c6366004612bcc565b610f69565b604080516001600160a01b03958616815264ffffffffff94909416602085015291909316908201526060810191909152608001610171565b6101c6610311366004612c47565b610fbb565b6101c6610324366004612cae565b611114565b610182614e2081565b610182610340366004612d0d565b6115b8565b6101c67f000000000000000000000000000000000000000000000000000000000000000081565b61018261037a366004612d42565b611978565b61018261038d366004612d5f565b611b85565b6102a36103a0366004612b93565b611c92565b6101c67f000000000000000000000000000000000000000000000000000000000000000081565b60006001600160e01b03198216632464e41b60e21b14806103f157506103f182611d28565b92915050565b600080836001600160a01b031663d8dfeb456040518163ffffffff1660e01b8152600401602060405180830381865afa158015610438573d6000803e3d6000fd5b505050506040513d601f19601f8201168201806040525081019061045c9190612d7c565b6040516370a0823160e01b81526001600160a01b03868116600483015291909116906370a0823190602401602060405180830381865afa1580156104a4573d6000803e3d6000fd5b505050506040513d601f19601f820116820180604052508101906104c89190612d99565b905060008184116104d957836104db565b815b905060006104e886611978565b90506000670de0b6b3a76400006104ff8484612dc8565b6105099190612ddf565b905060006105178486612e01565b1180156105525750683635c9adc5dea00000670de0b6b3a764000061053c8587612e01565b6105469085612dc8565b6105509190612ddf565b105b15610586576105618385612e01565b60405163f658c6cf60e01b815260040161057d91815260200190565b60405180910390fd5b60405163211d798360e01b815233600482015260248101849052604481018290526001600160a01b0388169063211d798390606401600060405180830381600087803b1580156105d557600080fd5b505af11580156105e9573d6000803e3d6000fd5b5050604080516001600160a01b038b168152602081018790529081018590527f67a660133c1fb4c0bb0480a5e4a9919216684052f13f0713e88fa2fbbc81d0829250606001905060405180910390a1509095945050505050565b60006106523386868686611114565b95945050505050565b6000620f42408462ffffff16111561067257600080fd5b8162ffffff16614e20111580156106915750620f42408262ffffff1611155b61069a57600080fd5b60188b6001600160a01b031663313ce5676040518163ffffffff1660e01b8152600401602060405180830381865afa1580156106da573d6000803e3d6000fd5b505050506040513d601f19601f820116820180604052508101906106fe9190612e14565b60ff16111561070c57600080fd5b60008b6001600160a01b03166318160ddd6040518163ffffffff1660e01b8152600401602060405180830381865afa15801561074c573d6000803e3d6000fd5b505050506040513d601f19601f820116820180604052508101906107709190612d99565b61077b906001612e37565b60405163a9059cbb60e01b81529091506001600160a01b038d169063a9059cbb906107ae90610123908590600401612e4a565b6020604051808303816000875af19250505080156107e9575060408051601f3d908101601f191682019092526107e691810190612e63565b60015b610869576107f5612e80565b806308c379a00361081a5750610809612ed7565b806108145750610833565b50610883565b634e487b71036108335761082c612f5c565b9061081457505b3d80801561085d576040519150601f19603f3d011682016040523d82523d6000602084013e610862565b606091505b5050610883565b506040516343befb6960e11b815260040160405180910390fd5b8a8a10156108a457604051633a23d82560e01b815260040160405180910390fd5b700eb194f8e1ae525fd5dcfab080000000006108c0858d612dc8565b10156108df57604051633a23d82560e01b815260040160405180910390fd5b5060007f00000000000000000000000000000000000000000000000000000000000000006001600160a01b0316635d824f76337f00000000000000000000000000000000000000000000000000000000000000008f8f8e8e8e8e8e8e8e6040518c63ffffffff1660e01b81526004016109629b9a99989796959493929190612f7c565b6020604051808303816000875af1158015610981573d6000803e3d6000fd5b505050506040513d601f19601f820116820180604052508101906109a59190612d7c565b60405163b52c696d60e01b81526001600160a01b0380831660048301529192507f00000000000000000000000000000000000000000000000000000000000000009091169063b52c696d90602401600060405180830381600087803b158015610a0d57600080fd5b505af1158015610a21573d6000803e3d6000fd5b505060405163375edc7760e11b81526001600160a01b037f0000000000000000000000000000000000000000000000000000000000000000169250636ebdb8ee9150610a7c903390683635c9adc5dea0000090600401612e4a565b600060405180830381600087803b158015610a9657600080fd5b505af1158015610aaa573d6000803e3d6000fd5b50506040516323b872dd60e01b81526001600160a01b038f1692506323b872dd9150610ade90339085908f90600401612ffd565b6020604051808303816000875af1158015610afd573d6000803e3d6000fd5b505050506040513d601f19601f82011682018060405250810190610b219190612e63565b50604080516001600160a01b03808416808352908f1660208301529133917fc9b570ab9d98bdf3e38a40fd71b20edafca42449f23ca51f0bdcbf40e8ffe175910160405180910390a39b9a5050505050505050505050565b6000610b89338787878787610fbb565b9695505050505050565b600080610ba88d8d8d8d8d8d8d8d8d8d61065b565b604051635039bbbb60e11b81529091506001600160a01b037f0000000000000000000000000000000000000000000000000000000000000000169063a073777690610bf99084908790600401612e4a565b600060405180830381600087803b158015610c1357600080fd5b505af1158015610c27573d6000803e3d6000fd5b50929f9e505050505050505050505050505050565b60405163aa5dd7f160e01b815233600482018190529030906001600160a01b037f0000000000000000000000000000000000000000000000000000000000000000169063aa5dd7f190602401602060405180830381865afa158015610ca5573d6000803e3d6000fd5b505050506040513d601f19601f82011682018060405250810190610cc99190612d7c565b6001600160a01b031614610cf0576040516369229ba760e01b815260040160405180910390fd5b604051632a5e323160e01b81526001600160a01b037f00000000000000000000000000000000000000000000000000000000000000001690632a5e323190610d3e9033908690600401612e4a565b600060405180830381600087803b158015610d5857600080fd5b505af1158015610d6c573d6000803e3d6000fd5b505050505050565b6000808463ffffffff1681548110610d8e57610d8e613021565b600091825260208083206040805160808101825260039490940290910180546001600160a01b038082168652600160a01b90910464ffffffffff169385019390935260018101549092168382018190526002909201546060840152805163194c325560e11b81528151939550849363329864aa926004808401939192918290030181865afa158015610e24573d6000803e3d6000fd5b505050506040513d601f19601f82011682018060405250810190610e489190613037565b9150915084836060015110610e5d5784610e63565b82606001515b9450808360200151610e75919061305d565b64ffffffffff164211610ee257610e8e83878488611d5d565b604080840151815163ffffffff89168152602081018890526001600160a01b03909116917f1eee30d91b773ac47d7485a3acb6bcd8c7c9cd8d95301b1af361baf5f0991d2e910160405180910390a2610d6c565b610eee83878787612026565b600080610efb8588612139565b604080880151815163ffffffff8d16815260208101849052918201849052606082018b90529294509092506001600160a01b03909116907f7d3a26e8d43c5b70f86266bfa26c212e3c097716ff7240ccb6a9034e48754e239060800160405180910390a25050505050505050565b60008181548110610f7957600080fd5b60009182526020909120600390910201805460018201546002909201546001600160a01b038083169450600160a01b90920464ffffffffff1692919091169084565b60405163aa5dd7f160e01b81526001600160a01b038681166004830152600091879130917f00000000000000000000000000000000000000000000000000000000000000009091169063aa5dd7f190602401602060405180830381865afa15801561102a573d6000803e3d6000fd5b505050506040513d601f19601f8201168201806040525081019061104e9190612d7c565b6001600160a01b031614611075576040516369229ba760e01b815260040160405180910390fd5b60006110848989898989611114565b604051635039bbbb60e11b81529091506001600160a01b037f0000000000000000000000000000000000000000000000000000000000000000169063a0737776906110d59084908890600401612e4a565b600060405180830381600087803b1580156110ef57600080fd5b505af1158015611103573d6000803e3d6000fd5b50929b9a5050505050505050505050565b60405163aa5dd7f160e01b81526001600160a01b038581166004830152600091869130917f00000000000000000000000000000000000000000000000000000000000000009091169063aa5dd7f190602401602060405180830381865afa158015611183573d6000803e3d6000fd5b505050506040513d601f19601f820116820180604052508101906111a79190612d7c565b6001600160a01b0316146111ce576040516369229ba760e01b815260040160405180910390fd5b604051630167d12360e71b81526001600160a01b0387811660048301526000917f00000000000000000000000000000000000000000000000000000000000000009091169063b3e89180906024016020604051808303816000875af115801561123b573d6000803e3d6000fd5b505050506040513d601f19601f8201168201806040525081019061125f9190612d7c565b6040516336a3a4fd60e11b81526001600160a01b03898116600483015264ffffffffff871660248301529192508291821690636d4749fa90604401600060405180830381600087803b1580156112b457600080fd5b505af11580156112c8573d6000803e3d6000fd5b505060405163b52c696d60e01b81526001600160a01b0385811660048301527f000000000000000000000000000000000000000000000000000000000000000016925063b52c696d9150602401600060405180830381600087803b15801561132f57600080fd5b505af1158015611343573d6000803e3d6000fd5b505050506000816001600160a01b031663d8dfeb456040518163ffffffff1660e01b8152600401602060405180830381865afa158015611387573d6000803e3d6000fd5b505050506040513d601f19601f820116820180604052508101906113ab9190612d7c565b9050816001600160a01b031663babe7c746040518163ffffffff1660e01b8152600401602060405180830381865afa1580156113eb573d6000803e3d6000fd5b505050506040513d601f19601f8201168201806040525081019061140f9190612d99565b88101561142f57604051633a23d82560e01b815260040160405180910390fd5b6040516323b872dd60e01b81526001600160a01b038216906323b872dd9061145f90339087908d90600401612ffd565b6020604051808303816000875af115801561147e573d6000803e3d6000fd5b505050506040513d601f19601f820116820180604052508101906114a29190612e63565b50604080516001600160a01b038b81168252838116602083015280861692908d16917fc9b570ab9d98bdf3e38a40fd71b20edafca42449f23ca51f0bdcbf40e8ffe175910160405180910390a36040516340c10f1960e01b81526001600160a01b038316906340c10f199061151d908d908b90600401612e4a565b600060405180830381600087803b15801561153757600080fd5b505af115801561154b573d6000803e3d6000fd5b505060405163f2fde38b60e01b81526001600160a01b038d811660048301528516925063f2fde38b9150602401600060405180830381600087803b15801561159257600080fd5b505af11580156115a6573d6000803e3d6000fd5b50949c9b505050505050505050505050565b60405163aa5dd7f160e01b81526001600160a01b038481166004830152600091859130917f00000000000000000000000000000000000000000000000000000000000000009091169063aa5dd7f190602401602060405180830381865afa158015611627573d6000803e3d6000fd5b505050506040513d601f19601f8201168201806040525081019061164b9190612d7c565b6001600160a01b031614611672576040516369229ba760e01b815260040160405180910390fd5b60008590506000816001600160a01b0316638ea875f36040518163ffffffff1660e01b8152600401602060405180830381865afa1580156116b7573d6000803e3d6000fd5b505050506040513d601f19601f820116820180604052508101906116db9190612d99565b9050848110156116fe57604051630d57523160e11b815260040160405180910390fd5b816001600160a01b031663d8dfeb456040518163ffffffff1660e01b8152600401602060405180830381865afa15801561173c573d6000803e3d6000fd5b505050506040513d601f19601f820116820180604052508101906117609190612d7c565b6001600160a01b03166323b872dd3330896040518463ffffffff1660e01b815260040161178f93929190612ffd565b6020604051808303816000875af11580156117ae573d6000803e3d6000fd5b505050506040513d601f19601f820116820180604052508101906117d29190612e63565b50600080546040805160808101825233815264ffffffffff428116602083019081526001600160a01b03888116848601818152606086018f8152600189018a559880529451600388027f290decd9548b62a8d60345a988386fc84ba6bc95484008f6362f93160ef3e563810180549551909616600160a01b026001600160c81b0319909516918416919091179390931790935592517f290decd9548b62a8d60345a988386fc84ba6bc95484008f6362f93160ef3e56482018054919094166001600160a01b0319919091161790925593517f290decd9548b62a8d60345a988386fc84ba6bc95484008f6362f93160ef3e5659091015551632e38909b60e21b815290919063b8e2426c906118f5908a908690600401918252602082015260400190565b600060405180830381600087803b15801561190f57600080fd5b505af1158015611923573d6000803e3d6000fd5b5050604080518a8152602081018590526001600160a01b03871693503392507fc4b384b2c5ca32c8e77081f4083be594a1ea9ba34f208a9f9a458f70608585f5910160405180910390a3979650505050505050565b600080826001600160a01b0316638ea875f36040518163ffffffff1660e01b8152600401602060405180830381865afa1580156119b9573d6000803e3d6000fd5b505050506040513d601f19601f820116820180604052508101906119dd9190612d99565b90506000836001600160a01b0316634665096d6040518163ffffffff1660e01b8152600401602060405180830381865afa158015611a1f573d6000803e3d6000fd5b505050506040513d601f19601f82011682018060405250810190611a43919061307a565b64ffffffffff169050804211611a6657611a5e82600a612dc8565b949350505050565b6000846001600160a01b031663f3f480d96040518163ffffffff1660e01b8152600401602060405180830381865afa158015611aa6573d6000803e3d6000fd5b505050506040513d601f19601f82011682018060405250810190611aca919061307a565b64ffffffffff1690506000611adf8342612e01565b9050818111611b38576000611af48284612e01565b9050808386611b056001600a612e01565b611b0f9190612dc8565b611b199190612ddf565b611b239190612dc8565b611b2d9086612e37565b979650505050505050565b611b43826002612dc8565b811015611b7957600081611b58846002612dc8565b611b629190612e01565b905080611b6f8487612ddf565b611b2d9190612dc8565b50600095945050505050565b60008060008363ffffffff1681548110611ba157611ba1613021565b60009182526020918290206040805160808101825260039390930290910180546001600160a01b03808216808652600160a01b90920464ffffffffff16958501959095526001820154909416918301919091526002015460608201529150611c0c5750600092915050565b60008082604001516001600160a01b031663329864aa6040518163ffffffff1660e01b81526004016040805180830381865afa158015611c50573d6000803e3d6000fd5b505050506040513d601f19601f82011682018060405250810190611c749190613037565b91509150610652818460200151611c8b919061305d565b82846126c9565b6001600160a01b038216600081815260016020908152604080832033845290915280822080549290555163a9059cbb60e01b815290919063a9059cbb90611cdf9085908590600401612e4a565b6020604051808303816000875af1158015611cfe573d6000803e3d6000fd5b505050506040513d601f19601f82011682018060405250810190611d229190612e63565b50505050565b60006001600160e01b03198216637913206560e01b14806103f157506301ffc9a760e01b6001600160e01b03198316146103f1565b836020015164ffffffffff164203611d7457600080fd5b83516001600160a01b03163314611e3a5783516001600160a01b037f000000000000000000000000000000000000000000000000000000000000000016906323b872dd903390670de0b6b3a7640000611dcd8787612dc8565b611dd79190612ddf565b6040518463ffffffff1660e01b8152600401611df593929190612ffd565b6020604051808303816000875af1158015611e14573d6000803e3d6000fd5b505050506040513d601f19601f82011682018060405250810190611e389190612e63565b505b83604001516001600160a01b03166349746f10826040518263ffffffff1660e01b8152600401611e6c91815260200190565b600060405180830381600087803b158015611e8657600080fd5b505af1158015611e9a573d6000803e3d6000fd5b5050505083604001516001600160a01b031663d8dfeb456040518163ffffffff1660e01b8152600401602060405180830381865afa158015611ee0573d6000803e3d6000fd5b505050506040513d601f19601f82011682018060405250810190611f049190612d7c565b6001600160a01b031663a9059cbb33836040518363ffffffff1660e01b8152600401611f31929190612e4a565b6020604051808303816000875af1158015611f50573d6000803e3d6000fd5b505050506040513d601f19601f82011682018060405250810190611f749190612e63565b508360600151811015611fc457808460600151611f919190612e01565b60008463ffffffff1681548110611faa57611faa613021565b906000526020600020906003020160020181905550611d22565b83606001518114611fd457600080fd5b60008363ffffffff1681548110611fed57611fed613021565b60009182526020822060039091020180546001600160c81b03191681556001810180546001600160a01b03191690556002015550505050565b61209884604001516001600160a01b031663d8dfeb456040518163ffffffff1660e01b8152600401602060405180830381865afa15801561206b573d6000803e3d6000fd5b505050506040513d601f19601f8201168201806040525081019061208f9190612d7c565b85518484612757565b818460600151036120f45760008363ffffffff16815481106120bc576120bc613021565b60009182526020822060039091020180546001600160c81b03191681556001810180546001600160a01b031916905560020155611d22565b8160008463ffffffff168154811061210e5761210e613021565b9060005260206000209060030201600201600082825461212e9190612e01565b909155505050505050565b600080600080600080600088604001516001600160a01b0316637ccd4f71896040518263ffffffff1660e01b815260040161217691815260200190565b60a0604051808303816000875af1158015612195573d6000803e3d6000fd5b505050506040513d601f19601f820116820180604052508101906121b99190613097565b9450945094509450945060006121cf8a8661285b565b6040516323b872dd60e01b81529091506001600160a01b037f000000000000000000000000000000000000000000000000000000000000000016906323b872dd9061222290339030908690600401612ffd565b6020604051808303816000875af1158015612241573d6000803e3d6000fd5b505050506040513d601f19601f820116820180604052508101906122659190612e63565b506000620f4240612278614e2084612dc8565b6122829190612ddf565b8b5160405163a9059cbb60e01b81529192506001600160a01b037f0000000000000000000000000000000000000000000000000000000000000000169163a9059cbb916122d3918590600401612e4a565b6020604051808303816000875af11580156122f2573d6000803e3d6000fd5b505050506040513d601f19601f820116820180604052508101906123169190612e63565b5060006123238284612e01565b905061232f8587612e37565b8111156124a7576000620f4240866123478985612e01565b6123519190612e01565b6123619063ffffffff8816612dc8565b61236b9190612ddf565b60405163375edc7760e11b81529091506001600160a01b037f00000000000000000000000000000000000000000000000000000000000000001690636ebdb8ee906123bc9030908590600401612e4a565b600060405180830381600087803b1580156123d657600080fd5b505af11580156123ea573d6000803e3d6000fd5b505050507f00000000000000000000000000000000000000000000000000000000000000006001600160a01b031663a9059cbb8a83898b8761242c9190612e01565b6124369190612e01565b6124409190612e01565b6040518363ffffffff1660e01b815260040161245d929190612e4a565b6020604051808303816000875af115801561247c573d6000803e3d6000fd5b505050506040513d601f19601f820116820180604052508101906124a09190612e63565b505061254d565b6124b18587612e37565b81101561254d576001600160a01b037f00000000000000000000000000000000000000000000000000000000000000001663d1fa5e9830836124f3898b612e37565b6124fd9190612e01565b6040518363ffffffff1660e01b815260040161251a929190612e4a565b600060405180830381600087803b15801561253457600080fd5b505af1158015612548573d6000803e3d6000fd5b505050505b6040516363b20c3360e11b81526004810187905263ffffffff851660248201527f00000000000000000000000000000000000000000000000000000000000000006001600160a01b03169063c764186690604401600060405180830381600087803b1580156125bb57600080fd5b505af11580156125cf573d6000803e3d6000fd5b505060405163375edc7760e11b81526001600160a01b037f0000000000000000000000000000000000000000000000000000000000000000169250636ebdb8ee91506126219030908990600401612e4a565b600060405180830381600087803b15801561263b57600080fd5b505af115801561264f573d6000803e3d6000fd5b505050508b604001516001600160a01b0316631dbcff2633896040518363ffffffff1660e01b8152600401612685929190612e4a565b600060405180830381600087803b15801561269f57600080fd5b505af11580156126b3573d6000803e3d6000fd5b50989e949d50939b505050505050505050505050565b60004264ffffffffff808616908216116126e65782915050612750565b6126f0848661305d565b64ffffffffff168164ffffffffff161061270e576000915050612750565b600061271a86836130e1565b61272490866130e1565b64ffffffffff169050808564ffffffffff16856127419190612ddf565b61274b9190612dc8565b925050505b9392505050565b80156127e3576001600160a01b03808516600090815260016020908152604080832093871683529290529081208054849290612794908490612e37565b92505081905550826001600160a01b03167f8dbeeabb7d576986689d0bff912a01b9736f03d95739a5603e59301a50141c5c85846040516127d6929190612e4a565b60405180910390a2611d22565b60405163a9059cbb60e01b81526001600160a01b0385169063a9059cbb906128119086908690600401612e4a565b6020604051808303816000875af1158015612830573d6000803e3d6000fd5b505050506040513d601f19601f820116820180604052508101906128549190612e63565b5050505050565b600080600084604001516001600160a01b031663329864aa6040518163ffffffff1660e01b81526004016040805180830381865afa1580156128a1573d6000803e3d6000fd5b505050506040513d601f19601f820116820180604052508101906128c59190613037565b91509150670de0b6b3a7640000846128ed8388602001516128e6919061305d565b84866126c9565b6128f79190612dc8565b6106529190612ddf565b60006020828403121561291357600080fd5b81356001600160e01b03198116811461275057600080fd5b6001600160a01b038116811461294057600080fd5b50565b6000806040838503121561295657600080fd5b82356129618161292b565b946020939093013593505050565b64ffffffffff8116811461294057600080fd5b6000806000806080858703121561299857600080fd5b84356129a38161292b565b9350602085013592506040850135915060608501356129c18161296f565b939692955090935050565b803562ffffff811681146129df57600080fd5b919050565b6000806000806000806000806000806101408b8d031215612a0457600080fd5b8a35612a0f8161292b565b995060208b0135985060408b0135975060608b0135965060808b0135612a348161296f565b955060a08b0135612a448161296f565b945060c08b0135612a548161296f565b9350612a6260e08c016129cc565b92506101008b01359150612a796101208c016129cc565b90509295989b9194979a5092959850565b600080600080600060a08688031215612aa257600080fd5b8535612aad8161292b565b945060208601359350604086013592506060860135612acb8161296f565b949793965091946080013592915050565b60008060008060008060008060008060006101608c8e031215612afe57600080fd5b8b35612b098161292b565b9a5060208c0135995060408c0135985060608c0135975060808c0135612b2e8161296f565b965060a08c0135612b3e8161296f565b955060c08c0135612b4e8161296f565b9450612b5c60e08d016129cc565b93506101008c01359250612b736101208d016129cc565b915060006101408d01359050809150509295989b509295989b9093969950565b60008060408385031215612ba657600080fd5b8235612bb18161292b565b91506020830135612bc18161292b565b809150509250929050565b600060208284031215612bde57600080fd5b5035919050565b63ffffffff8116811461294057600080fd5b801515811461294057600080fd5b600080600060608486031215612c1a57600080fd5b8335612c2581612be5565b9250602084013591506040840135612c3c81612bf7565b809150509250925092565b60008060008060008060c08789031215612c6057600080fd5b8635612c6b8161292b565b95506020870135612c7b8161292b565b945060408701359350606087013592506080870135612c998161296f565b9598949750929591949360a090920135925050565b600080600080600060a08688031215612cc657600080fd5b8535612cd18161292b565b94506020860135612ce18161292b565b935060408601359250606086013591506080860135612cff8161296f565b809150509295509295909350565b600080600060608486031215612d2257600080fd5b8335612d2d8161292b565b95602085013595506040909401359392505050565b600060208284031215612d5457600080fd5b81356127508161292b565b600060208284031215612d7157600080fd5b813561275081612be5565b600060208284031215612d8e57600080fd5b81516127508161292b565b600060208284031215612dab57600080fd5b5051919050565b634e487b7160e01b600052601160045260246000fd5b80820281158282048414176103f1576103f1612db2565b600082612dfc57634e487b7160e01b600052601260045260246000fd5b500490565b818103818111156103f1576103f1612db2565b600060208284031215612e2657600080fd5b815160ff8116811461275057600080fd5b808201808211156103f1576103f1612db2565b6001600160a01b03929092168252602082015260400190565b600060208284031215612e7557600080fd5b815161275081612bf7565b600060033d1115612e995760046000803e5060005160e01c5b90565b601f8201601f1916810167ffffffffffffffff81118282101715612ed057634e487b7160e01b600052604160045260246000fd5b6040525050565b600060443d1015612ee55790565b6040513d600319016004823e80513d602482011167ffffffffffffffff82111715612f0f57505090565b808201805167ffffffffffffffff811115612f2b575050505090565b3d8401600319018282016020011115612f45575050505090565b612f5460208285010185612e9c565b509392505050565b60008060233d1115612f78576020600460003e50506000516001905b9091565b6001600160a01b038c811682528b811660208301528a166040820152606081018990526080810188905264ffffffffff87811660a083015286811660c0830152851660e082015262ffffff8416610100820152610160810183610120830152612fed61014083018462ffffff169052565b9c9b505050505050505050505050565b6001600160a01b039384168152919092166020820152604081019190915260600190565b634e487b7160e01b600052603260045260246000fd5b6000806040838503121561304a57600080fd5b82516020840151909250612bc18161296f565b64ffffffffff81811683821601908111156103f1576103f1612db2565b60006020828403121561308c57600080fd5b81516127508161296f565b600080600080600060a086880312156130af57600080fd5b85516130ba8161292b565b60208701516040880151606089015160808a015193985091965094509250612cff81612be5565b64ffffffffff82811682821603908111156103f1576103f1612db256fea264697066735822122069e115e654b835c3af11a46a4b768d6b057239d4595ec95919ba23a20f4931d264736f6c634300081a0033",
  "devdoc": {
    "kind": "dev",
    "methods": {
      "bid(uint32,uint256,bool)": {
        "details": "In case that the collateral cannot be transferred back to the challenger (i.e. because the collateral token has a blacklist and the challenger is on it), it is possible to postpone the return of the collateral.",
        "params": {
          "_challengeNumber": "index of the challenge as broadcast in the event",
          "postponeCollateralReturn": "To postpone the return of the collateral to the challenger. Usually false.",
          "size": "how much of the collateral the caller wants to bid for at most                                  (automatically reduced to the available amount)"
        }
      },
      "challenge(address,uint256,uint256)": {
        "params": {
          "_collateralAmount": "amount of the collateral we want to challenge",
          "_positionAddr": "address of the position we want to challenge",
          "minimumPrice": "guards against the minter front-running with a price change"
        },
        "returns": {
          "_0": "index of the challenge in the challenge-array"
        }
      },
      "clone(address,address,uint256,uint256,uint40)": {
        "details": "This needs an allowance to be set on the collateral contract such that the minting hub can get the collateral."
      },
      "clone(address,address,uint256,uint256,uint40,bytes32)": {
        "details": "This needs an allowance to be set on the collateral contract such that the minting hub can get the collateral."
      },
      "openPosition(address,uint256,uint256,uint256,uint40,uint40,uint40,uint24,uint256,uint24)": {
        "details": "For a successful call, you must set an allowance for the collateral token, allowing the minting hub to transfer the initial collateral amount to the newly created position and to withdraw the fees.",
        "params": {
          "_challengeSeconds": "challenge period. Longer for less liquid collateral.",
          "_collateralAddress": "address of collateral token",
          "_expirationSeconds": "position tenor in seconds from 'now'",
          "_initPeriodSeconds": "initial period in seconds",
          "_initialCollateral": "amount of initial collateral to be deposited",
          "_liqPrice": "Liquidation price with (36 - token decimals) decimals,                            e.g. 18 decimals for an 18 dec collateral, 36 decs for a 0 dec collateral.",
          "_minCollateral": "minimum collateral required to prevent dust amounts",
          "_mintingMaximum": "maximal amount of deur that can be minted by the position owner",
          "_reservePPM": "ppm of minted amount that is locked as borrower's reserve, e.g. 20%",
          "_riskPremium": "ppm of minted amount that is added to the applicable minting fee as a risk premium"
        },
        "returns": {
          "_0": "address            address of created position"
        }
      },
      "price(uint32)": {
        "details": "The price comes with (36 - collateral.decimals()) digits, so multiplying it with the raw collateral amount always yields a price with 36 digits, or 18 digits after dividing by 10**18 again."
      },
      "supportsInterface(bytes4)": {
        "details": "See {IERC165-supportsInterface}."
      }
    },
    "version": 1
  },
  "userdoc": {
    "kind": "user",
    "methods": {
      "CHALLENGER_REWARD()": {
        "notice": "The challenger reward in parts per million (ppm) relative to the challenged amount, whereas challenged amount is defined as the challenged collateral amount times the liquidation price."
      },
      "OPENING_FEE()": {
        "notice": "Irrevocable fee in deur when proposing a new position (but not when cloning an existing one)."
      },
      "bid(uint32,uint256,bool)": {
        "notice": "Post a bid in deur given an open challenge."
      },
      "buyExpiredCollateral(address,uint256)": {
        "notice": "Buys up to the desired amount of the collateral asset from the given expired position using the applicable 'expiredPurchasePrice' at that instant. To prevent dust either the remaining collateral needs to be bought or collateral with a value of at least OPENING_FEE (1000 dEURO) needs to remain in the position for a different buyer"
      },
      "challenge(address,uint256,uint256)": {
        "notice": "Launch a challenge (Dutch auction) on a position"
      },
      "clone(address,address,uint256,uint256,uint40)": {
        "notice": "Clones an existing position and immediately tries to mint the specified amount using the given collateral."
      },
      "clone(address,address,uint256,uint256,uint40,bytes32)": {
        "notice": "Clones an existing position and immediately tries to mint the specified amount using the given collateral."
      },
      "expiredPurchasePrice(address)": {
        "notice": "The applicable purchase price when forcing the sale of collateral of an expired position. The price starts at 10x the liquidation price at the expiration time, linearly declines to 1x liquidation price over the course of one challenge period, and then linearly declines less steeply to 0 over the course of another challenge period."
      },
      "openPosition(address,uint256,uint256,uint256,uint40,uint40,uint40,uint24,uint256,uint24)": {
        "notice": "Open a collateralized loan position. See also https://docs.dEURO.com/positions/open ."
      },
      "pendingReturns(address,address)": {
        "notice": "Map to remember pending postponed collateral returns."
      },
      "price(uint32)": {
        "notice": "Get the price per unit of the collateral for the given challenge."
      },
      "returnPostponedCollateral(address,address)": {
        "notice": "Challengers can call this method to withdraw collateral whose return was postponed."
      }
    },
    "version": 1
  },
  "storageLayout": {
    "storage": [
      {
        "astId": 9677,
        "contract": "contracts/gateway/MintingHubGateway.sol:MintingHubGateway",
        "label": "challenges",
        "offset": 0,
        "slot": "0",
        "type": "t_array(t_struct(Challenge)9694_storage)dyn_storage"
      },
      {
        "astId": 9684,
        "contract": "contracts/gateway/MintingHubGateway.sol:MintingHubGateway",
        "label": "pendingReturns",
        "offset": 0,
        "slot": "1",
        "type": "t_mapping(t_address,t_mapping(t_address,t_uint256))"
      }
    ],
    "types": {
      "t_address": {
        "encoding": "inplace",
        "label": "address",
        "numberOfBytes": "20"
      },
      "t_array(t_struct(Challenge)9694_storage)dyn_storage": {
        "base": "t_struct(Challenge)9694_storage",
        "encoding": "dynamic_array",
        "label": "struct MintingHub.Challenge[]",
        "numberOfBytes": "32"
      },
      "t_contract(IPosition)14042": {
        "encoding": "inplace",
        "label": "contract IPosition",
        "numberOfBytes": "20"
      },
      "t_mapping(t_address,t_mapping(t_address,t_uint256))": {
        "encoding": "mapping",
        "key": "t_address",
        "label": "mapping(address => mapping(address => uint256))",
        "numberOfBytes": "32",
        "value": "t_mapping(t_address,t_uint256)"
      },
      "t_mapping(t_address,t_uint256)": {
        "encoding": "mapping",
        "key": "t_address",
        "label": "mapping(address => uint256)",
        "numberOfBytes": "32",
        "value": "t_uint256"
      },
      "t_struct(Challenge)9694_storage": {
        "encoding": "inplace",
        "label": "struct MintingHub.Challenge",
        "members": [
          {
            "astId": 9686,
            "contract": "contracts/gateway/MintingHubGateway.sol:MintingHubGateway",
            "label": "challenger",
            "offset": 0,
            "slot": "0",
            "type": "t_address"
          },
          {
            "astId": 9688,
            "contract": "contracts/gateway/MintingHubGateway.sol:MintingHubGateway",
            "label": "start",
            "offset": 20,
            "slot": "0",
            "type": "t_uint40"
          },
          {
            "astId": 9691,
            "contract": "contracts/gateway/MintingHubGateway.sol:MintingHubGateway",
            "label": "position",
            "offset": 0,
            "slot": "1",
            "type": "t_contract(IPosition)14042"
          },
          {
            "astId": 9693,
            "contract": "contracts/gateway/MintingHubGateway.sol:MintingHubGateway",
            "label": "size",
            "offset": 0,
            "slot": "2",
            "type": "t_uint256"
          }
        ],
        "numberOfBytes": "96"
      },
      "t_uint256": {
        "encoding": "inplace",
        "label": "uint256",
        "numberOfBytes": "32"
      },
      "t_uint40": {
        "encoding": "inplace",
        "label": "uint40",
        "numberOfBytes": "5"
      }
    }
  }
}