{
  "address": "0xa5446505BC6de50658A76F472aEBaa9773230e96",
  "abi": [
    {
      "inputs": [
        {
          "internalType": "address",
          "name": "_deuro",
          "type": "address"
        },
        {
          "internalType": "address",
          "name": "_leadrate",
          "type": "address"
        },
        {
          "internalType": "address",
          "name": "_roller",
          "type": "address"
        },
        {
          "internalType": "address",
          "name": "_factory",
          "type": "address"
        },
        {
          "internalType": "address",
          "name": "_gateway",
          "type": "address"
        }
      ],
      "stateMutability": "nonpayable",
      "type": "constructor"
    },
    {
      "inputs": [],
      "name": "IncompatibleCollateral",
      "type": "error"
    },
    {
      "inputs": [],
      "name": "InsufficientCollateral",
      "type": "error"
    },
    {
      "inputs": [],
      "name": "InvalidPos",
      "type": "error"
    },
    {
      "inputs": [
        {
          "internalType": "uint256",
          "name": "amount",
          "type": "uint256"
        }
      ],
      "name": "LeaveNoDust",
      "type": "error"
    },
    {
      "inputs": [],
      "name": "UnexpectedPrice",
      "type": "error"
    },
    {
      "anonymous": false,
      "inputs": [
        {
          "indexed": true,
          "internalType": "address",
          "name": "position",
          "type": "address"
        },
        {
          "indexed": false,
          "internalType": "uint256",
          "name": "number",
          "type": "uint256"
        },
        {
          "indexed": false,
          "internalType": "uint256",
          "name": "size",
          "type": "uint256"
        }
      ],
      "name": "ChallengeAverted",
      "type": "event"
    },
    {
      "anonymous": false,
      "inputs": [
        {
          "indexed": true,
          "internalType": "address",
          "name": "challenger",
          "type": "address"
        },
        {
          "indexed": true,
          "internalType": "address",
          "name": "position",
          "type": "address"
        },
        {
          "indexed": false,
          "internalType": "uint256",
          "name": "size",
          "type": "uint256"
        },
        {
          "indexed": false,
          "internalType": "uint256",
          "name": "number",
          "type": "uint256"
        }
      ],
      "name": "ChallengeStarted",
      "type": "event"
    },
    {
      "anonymous": false,
      "inputs": [
        {
          "indexed": true,
          "internalType": "address",
          "name": "position",
          "type": "address"
        },
        {
          "indexed": false,
          "internalType": "uint256",
          "name": "number",
          "type": "uint256"
        },
        {
          "indexed": false,
          "internalType": "uint256",
          "name": "bid",
          "type": "uint256"
        },
        {
          "indexed": false,
          "internalType": "uint256",
          "name": "acquiredCollateral",
          "type": "uint256"
        },
        {
          "indexed": false,
          "internalType": "uint256",
          "name": "challengeSize",
          "type": "uint256"
        }
      ],
      "name": "ChallengeSucceeded",
      "type": "event"
    },
    {
      "anonymous": false,
      "inputs": [
        {
          "indexed": false,
          "internalType": "address",
          "name": "pos",
          "type": "address"
        },
        {
          "indexed": false,
          "internalType": "uint256",
          "name": "amount",
          "type": "uint256"
        },
        {
          "indexed": false,
          "internalType": "uint256",
          "name": "priceE36MinusDecimals",
          "type": "uint256"
        }
      ],
      "name": "ForcedSale",
      "type": "event"
    },
    {
      "anonymous": false,
      "inputs": [
        {
          "indexed": true,
          "internalType": "address",
          "name": "owner",
          "type": "address"
        },
        {
          "indexed": true,
          "internalType": "address",
          "name": "position",
          "type": "address"
        },
        {
          "indexed": false,
          "internalType": "address",
          "name": "original",
          "type": "address"
        },
        {
          "indexed": false,
          "internalType": "address",
          "name": "collateral",
          "type": "address"
        }
      ],
      "name": "PositionOpened",
      "type": "event"
    },
    {
      "anonymous": false,
      "inputs": [
        {
          "indexed": false,
          "internalType": "address",
          "name": "collateral",
          "type": "address"
        },
        {
          "indexed": true,
          "internalType": "address",
          "name": "beneficiary",
          "type": "address"
        },
        {
          "indexed": false,
          "internalType": "uint256",
          "name": "amount",
          "type": "uint256"
        }
      ],
      "name": "PostponedReturn",
      "type": "event"
    },
    {
      "inputs": [],
      "name": "CHALLENGER_REWARD",
      "outputs": [
        {
          "internalType": "uint256",
          "name": "",
          "type": "uint256"
        }
      ],
      "stateMutability": "view",
      "type": "function"
    },
    {
      "inputs": [],
      "name": "DEURO",
      "outputs": [
        {
          "internalType": "contract IDecentralizedEURO",
          "name": "",
          "type": "address"
        }
      ],
      "stateMutability": "view",
      "type": "function"
    },
    {
      "inputs": [],
      "name": "EXPIRED_PRICE_FACTOR",
      "outputs": [
        {
          "internalType": "uint256",
          "name": "",
          "type": "uint256"
        }
      ],
      "stateMutability": "view",
      "type": "function"
    },
    {
      "inputs": [],
      "name": "GATEWAY",
      "outputs": [
        {
          "internalType": "contract IFrontendGateway",
          "name": "",
          "type": "address"
        }
      ],
      "stateMutability": "view",
      "type": "function"
    },
    {
      "inputs": [],
      "name": "OPENING_FEE",
      "outputs": [
        {
          "internalType": "uint256",
          "name": "",
          "type": "uint256"
        }
      ],
      "stateMutability": "view",
      "type": "function"
    },
    {
      "inputs": [],
      "name": "RATE",
      "outputs": [
        {
          "internalType": "contract ILeadrate",
          "name": "",
          "type": "address"
        }
      ],
      "stateMutability": "view",
      "type": "function"
    },
    {
      "inputs": [],
      "name": "ROLLER",
      "outputs": [
        {
          "internalType": "contract PositionRoller",
          "name": "",
          "type": "address"
        }
      ],
      "stateMutability": "view",
      "type": "function"
    },
    {
      "inputs": [
        {
          "internalType": "uint32",
          "name": "_challengeNumber",
          "type": "uint32"
        },
        {
          "internalType": "uint256",
          "name": "size",
          "type": "uint256"
        },
        {
          "internalType": "bool",
          "name": "postponeCollateralReturn",
          "type": "bool"
        }
      ],
      "name": "bid",
      "outputs": [],
      "stateMutability": "nonpayable",
      "type": "function"
    },
    {
      "inputs": [
        {
          "internalType": "contract IPosition",
          "name": "pos",
          "type": "address"
        },
        {
          "internalType": "uint256",
          "name": "upToAmount",
          "type": "uint256"
        }
      ],
      "name": "buyExpiredCollateral",
      "outputs": [
        {
          "internalType": "uint256",
          "name": "",
          "type": "uint256"
        }
      ],
      "stateMutability": "nonpayable",
      "type": "function"
    },
    {
      "inputs": [
        {
          "internalType": "address",
          "name": "_positionAddr",
          "type": "address"
        },
        {
          "internalType": "uint256",
          "name": "_collateralAmount",
          "type": "uint256"
        },
        {
          "internalType": "uint256",
          "name": "minimumPrice",
          "type": "uint256"
        }
      ],
      "name": "challenge",
      "outputs": [
        {
          "internalType": "uint256",
          "name": "",
          "type": "uint256"
        }
      ],
      "stateMutability": "nonpayable",
      "type": "function"
    },
    {
      "inputs": [
        {
          "internalType": "uint256",
          "name": "",
          "type": "uint256"
        }
      ],
      "name": "challenges",
      "outputs": [
        {
          "internalType": "address",
          "name": "challenger",
          "type": "address"
        },
        {
          "internalType": "uint40",
          "name": "start",
          "type": "uint40"
        },
        {
          "internalType": "contract IPosition",
          "name": "position",
          "type": "address"
        },
        {
          "internalType": "uint256",
          "name": "size",
          "type": "uint256"
        }
      ],
      "stateMutability": "view",
      "type": "function"
    },
    {
      "inputs": [
        {
          "internalType": "address",
          "name": "parent",
          "type": "address"
        },
        {
          "internalType": "uint256",
          "name": "_initialCollateral",
          "type": "uint256"
        },
        {
          "internalType": "uint256",
          "name": "_initialMint",
          "type": "uint256"
        },
        {
          "internalType": "uint40",
          "name": "expiration",
          "type": "uint40"
        }
      ],
      "name": "clone",
      "outputs": [
        {
          "internalType": "address",
          "name": "",
          "type": "address"
        }
      ],
      "stateMutability": "nonpayable",
      "type": "function"
    },
    {
      "inputs": [
        {
          "internalType": "address",
          "name": "parent",
          "type": "address"
        },
        {
          "internalType": "uint256",
          "name": "_initialCollateral",
          "type": "uint256"
        },
        {
          "internalType": "uint256",
          "name": "_initialMint",
          "type": "uint256"
        },
        {
          "internalType": "uint40",
          "name": "expiration",
          "type": "uint40"
        },
        {
          "internalType": "bytes32",
          "name": "frontendCode",
          "type": "bytes32"
        }
      ],
      "name": "clone",
      "outputs": [
        {
          "internalType": "address",
          "name": "",
          "type": "address"
        }
      ],
      "stateMutability": "nonpayable",
      "type": "function"
    },
    {
      "inputs": [
        {
          "internalType": "address",
          "name": "owner",
          "type": "address"
        },
        {
          "internalType": "address",
          "name": "parent",
          "type": "address"
        },
        {
          "internalType": "uint256",
          "name": "_initialCollateral",
          "type": "uint256"
        },
        {
          "internalType": "uint256",
          "name": "_initialMint",
          "type": "uint256"
        },
        {
          "internalType": "uint40",
          "name": "expiration",
          "type": "uint40"
        },
        {
          "internalType": "bytes32",
          "name": "frontendCode",
          "type": "bytes32"
        }
      ],
      "name": "clone",
      "outputs": [
        {
          "internalType": "address",
          "name": "",
          "type": "address"
        }
      ],
      "stateMutability": "nonpayable",
      "type": "function"
    },
    {
      "inputs": [
        {
          "internalType": "address",
          "name": "owner",
          "type": "address"
        },
        {
          "internalType": "address",
          "name": "parent",
          "type": "address"
        },
        {
          "internalType": "uint256",
          "name": "_initialCollateral",
          "type": "uint256"
        },
        {
          "internalType": "uint256",
          "name": "_initialMint",
          "type": "uint256"
        },
        {
          "internalType": "uint40",
          "name": "expiration",
          "type": "uint40"
        }
      ],
      "name": "clone",
      "outputs": [
        {
          "internalType": "address",
          "name": "",
          "type": "address"
        }
      ],
      "stateMutability": "nonpayable",
      "type": "function"
    },
    {
      "inputs": [
        {
          "internalType": "contract IPosition",
          "name": "pos",
          "type": "address"
        }
      ],
      "name": "expiredPurchasePrice",
      "outputs": [
        {
          "internalType": "uint256",
          "name": "",
          "type": "uint256"
        }
      ],
      "stateMutability": "view",
      "type": "function"
    },
    {
      "inputs": [
        {
          "internalType": "uint256",
          "name": "amount",
          "type": "uint256"
        }
      ],
      "name": "notifyInterestPaid",
      "outputs": [],
      "stateMutability": "nonpayable",
      "type": "function"
    },
    {
      "inputs": [
        {
          "internalType": "address",
          "name": "_collateralAddress",
          "type": "address"
        },
        {
          "internalType": "uint256",
          "name": "_minCollateral",
          "type": "uint256"
        },
        {
          "internalType": "uint256",
          "name": "_initialCollateral",
          "type": "uint256"
        },
        {
          "internalType": "uint256",
          "name": "_mintingMaximum",
          "type": "uint256"
        },
        {
          "internalType": "uint40",
          "name": "_initPeriodSeconds",
          "type": "uint40"
        },
        {
          "internalType": "uint40",
          "name": "_expirationSeconds",
          "type": "uint40"
        },
        {
          "internalType": "uint40",
          "name": "_challengeSeconds",
          "type": "uint40"
        },
        {
          "internalType": "uint24",
          "name": "_riskPremium",
          "type": "uint24"
        },
        {
          "internalType": "uint256",
          "name": "_liqPrice",
          "type": "uint256"
        },
        {
          "internalType": "uint24",
          "name": "_reservePPM",
          "type": "uint24"
        }
      ],
      "name": "openPosition",
      "outputs": [
        {
          "internalType": "address",
          "name": "",
          "type": "address"
        }
      ],
      "stateMutability": "nonpayable",
      "type": "function"
    },
    {
      "inputs": [
        {
          "internalType": "address",
          "name": "_collateralAddress",
          "type": "address"
        },
        {
          "internalType": "uint256",
          "name": "_minCollateral",
          "type": "uint256"
        },
        {
          "internalType": "uint256",
          "name": "_initialCollateral",
          "type": "uint256"
        },
        {
          "internalType": "uint256",
          "name": "_mintingMaximum",
          "type": "uint256"
        },
        {
          "internalType": "uint40",
          "name": "_initPeriodSeconds",
          "type": "uint40"
        },
        {
          "internalType": "uint40",
          "name": "_expirationSeconds",
          "type": "uint40"
        },
        {
          "internalType": "uint40",
          "name": "_challengeSeconds",
          "type": "uint40"
        },
        {
          "internalType": "uint24",
          "name": "_riskPremium",
          "type": "uint24"
        },
        {
          "internalType": "uint256",
          "name": "_liqPrice",
          "type": "uint256"
        },
        {
          "internalType": "uint24",
          "name": "_reservePPM",
          "type": "uint24"
        },
        {
          "internalType": "bytes32",
          "name": "_frontendCode",
          "type": "bytes32"
        }
      ],
      "name": "openPosition",
      "outputs": [
        {
          "internalType": "address",
          "name": "",
          "type": "address"
        }
      ],
      "stateMutability": "nonpayable",
      "type": "function"
    },
    {
      "inputs": [
        {
          "internalType": "address",
          "name": "collateral",
          "type": "address"
        },
        {
          "internalType": "address",
          "name": "owner",
          "type": "address"
        }
      ],
      "name": "pendingReturns",
      "outputs": [
        {
          "internalType": "uint256",
          "name": "amount",
          "type": "uint256"
        }
      ],
      "stateMutability": "view",
      "type": "function"
    },
    {
      "inputs": [
        {
          "internalType": "uint32",
          "name": "challengeNumber",
          "type": "uint32"
        }
      ],
      "name": "price",
      "outputs": [
        {
          "internalType": "uint256",
          "name": "",
          "type": "uint256"
        }
      ],
      "stateMutability": "view",
      "type": "function"
    },
    {
      "inputs": [
        {
          "internalType": "address",
          "name": "collateral",
          "type": "address"
        },
        {
          "internalType": "address",
          "name": "target",
          "type": "address"
        }
      ],
      "name": "returnPostponedCollateral",
      "outputs": [],
      "stateMutability": "nonpayable",
      "type": "function"
    },
    {
      "inputs": [
        {
          "internalType": "bytes4",
          "name": "interfaceId",
          "type": "bytes4"
        }
      ],
      "name": "supportsInterface",
      "outputs": [
        {
          "internalType": "bool",
          "name": "",
          "type": "bool"
        }
      ],
      "stateMutability": "view",
      "type": "function"
    }
  ],
  "transactionHash": "0x5aa63720f990bbf1df1e2d2d9a699ff1115a4026ae527c8fea705d0cc8715eb5",
  "args": [
    "0xd02812Be610952aAFBbbfBcA438887A2f3A5f53B",
    "0xa1b05B70107E87CeA3ef8fd2d7a4282a93F1682F",
    "0xa5f63B2A73AaE2F4636F401D3A442082f2D92807",
    "0xeCDE1EF432447ca4504B08DFe0b863BBe5eB62ac",
    "0xD2E4Db9B2407Dbe9f83B2f76217F48297B8EaBe3"
  ],
  "numDeployments": 1,
  "solcInputHash": "df40c24e49300c503bf9a5b9cc25e87e",
  "bytecode": "0x61012060405234801561001157600080fd5b5060405161313038038061313083398101604081905261003091610074565b6001600160a01b0394851660a05292841660e0528316608052821660c05216610100526100d9565b80516001600160a01b038116811461006f57600080fd5b919050565b600080600080600060a0868803121561008c57600080fd5b61009586610058565b94506100a360208701610058565b93506100b160408701610058565b92506100bf60608701610058565b91506100cd60808701610058565b90509295509295909350565b60805160a05160c05160e05161010051612f8e6101a2600039600081816101e301528181610bc201528181610d0701526110a00152600061026e015260006103aa01526000818161034a01528181610914015281816109c701528181610a3a01528181610c5e01528181610fe30152818161113c015281816112eb015281816115e001528181611d8601528181612208015281816122bd01528181612390015281816123fb015281816124b9015261255b0152600081816108e401526111f20152612f8e6000f3fe608060405234801561001057600080fd5b506004361061014d5760003560e01c80637d0ea02d116100c3578063c14a9f051161007c578063c14a9f0514610332578063dbe8a4c214610345578063e6ac5ea41461036c578063e6ca1df21461037f578063e85cde6f14610392578063f09e9e3a146103a557600080fd5b80637d0ea02d146102905780637eb81bb3146102a55780638f1d3776146102b857806393a83a24146103035780639d8ff2a614610316578063af5806b61461032957600080fd5b8063338c537111610115578063338c5371146101de57806335a4b349146102055780633bb84940146102185780634cb959141461022b578063643745fb1461023e578063664e97041461026957600080fd5b806301ffc9a7146101525780630f2f8e861461017a57806325e28124146101905780632bf78dd8146101a35780632e2c6314146101b3575b600080fd5b610165610160366004612764565b6103cc565b60405190151581526020015b60405180910390f35b610182600a81565b604051908152602001610171565b61018261019e3660046127a6565b6103f7565b610182683635c9adc5dea0000081565b6101c66101c13660046127e5565b610643565b6040516001600160a01b039091168152602001610171565b6101c67f000000000000000000000000000000000000000000000000000000000000000081565b6101c6610213366004612847565b61065b565b6101c66102263660046128ed565b610b79565b6101c661023936600461293f565b610b93565b61018261024c3660046129f6565b600160209081526000928352604080842090915290825290205481565b6101c67f000000000000000000000000000000000000000000000000000000000000000081565b6102a361029e366004612a2f565b610c3c565b005b6102a36102b3366004612a68565b610d74565b6102cb6102c6366004612a2f565b610f6b565b604080516001600160a01b03958616815264ffffffffff94909416602085015291909316908201526060810191909152608001610171565b6101c6610311366004612aaa565b610fbd565b6101c6610324366004612b11565b611116565b610182614e2081565b610182610340366004612b70565b6115ba565b6101c67f000000000000000000000000000000000000000000000000000000000000000081565b61018261037a366004612ba5565b61196d565b61018261038d366004612bc2565b611b7a565b6102a36103a03660046129f6565b611c87565b6101c67f000000000000000000000000000000000000000000000000000000000000000081565b60006001600160e01b03198216637d0ea02d60e01b14806103f157506103f182611d1d565b92915050565b600080836001600160a01b031663d8dfeb456040518163ffffffff1660e01b8152600401602060405180830381865afa158015610438573d6000803e3d6000fd5b505050506040513d601f19601f8201168201806040525081019061045c9190612bdf565b6040516370a0823160e01b81526001600160a01b03868116600483015291909116906370a0823190602401602060405180830381865afa1580156104a4573d6000803e3d6000fd5b505050506040513d601f19601f820116820180604052508101906104c89190612bfc565b905060008184116104d957836104db565b815b905060006104e88661196d565b90506000670de0b6b3a76400006104ff8484612c2b565b6105099190612c42565b905060006105178486612c64565b1180156105525750683635c9adc5dea00000670de0b6b3a764000061053c8587612c64565b6105469085612c2b565b6105509190612c42565b105b15610586576105618385612c64565b60405163f658c6cf60e01b815260040161057d91815260200190565b60405180910390fd5b60405163211d798360e01b815233600482015260248101849052604481018290526001600160a01b0388169063211d798390606401600060405180830381600087803b1580156105d557600080fd5b505af11580156105e9573d6000803e3d6000fd5b5050604080516001600160a01b038b168152602081018790529081018590527f67a660133c1fb4c0bb0480a5e4a9919216684052f13f0713e88fa2fbbc81d0829250606001905060405180910390a1509095945050505050565b60006106523386868686611116565b95945050505050565b6000620f42408462ffffff16111561067257600080fd5b8162ffffff16614e20111580156106915750620f42408262ffffff1611155b61069a57600080fd5b60188b6001600160a01b031663313ce5676040518163ffffffff1660e01b8152600401602060405180830381865afa1580156106da573d6000803e3d6000fd5b505050506040513d601f19601f820116820180604052508101906106fe9190612c77565b60ff16111561070c57600080fd5b60008b6001600160a01b03166318160ddd6040518163ffffffff1660e01b8152600401602060405180830381865afa15801561074c573d6000803e3d6000fd5b505050506040513d601f19601f820116820180604052508101906107709190612bfc565b61077b906001612c9a565b60405163a9059cbb60e01b81529091506001600160a01b038d169063a9059cbb906107ae90610123908590600401612cad565b6020604051808303816000875af19250505080156107e9575060408051601f3d908101601f191682019092526107e691810190612cc6565b60015b610869576107f5612ce3565b806308c379a00361081a5750610809612d3a565b806108145750610833565b50610883565b634e487b71036108335761082c612dbf565b9061081457505b3d80801561085d576040519150601f19603f3d011682016040523d82523d6000602084013e610862565b606091505b5050610883565b506040516343befb6960e11b815260040160405180910390fd5b8a8a10156108a457604051633a23d82560e01b815260040160405180910390fd5b700eb194f8e1ae525fd5dcfab080000000006108c0858d612c2b565b10156108df57604051633a23d82560e01b815260040160405180910390fd5b5060007f00000000000000000000000000000000000000000000000000000000000000006001600160a01b0316635d824f76337f00000000000000000000000000000000000000000000000000000000000000008f8f8e8e8e8e8e8e8e6040518c63ffffffff1660e01b81526004016109629b9a99989796959493929190612ddf565b6020604051808303816000875af1158015610981573d6000803e3d6000fd5b505050506040513d601f19601f820116820180604052508101906109a59190612bdf565b60405163b52c696d60e01b81526001600160a01b0380831660048301529192507f00000000000000000000000000000000000000000000000000000000000000009091169063b52c696d90602401600060405180830381600087803b158015610a0d57600080fd5b505af1158015610a21573d6000803e3d6000fd5b505060405163375edc7760e11b81526001600160a01b037f0000000000000000000000000000000000000000000000000000000000000000169250636ebdb8ee9150610a7c903390683635c9adc5dea0000090600401612cad565b600060405180830381600087803b158015610a9657600080fd5b505af1158015610aaa573d6000803e3d6000fd5b50506040516323b872dd60e01b81526001600160a01b038f1692506323b872dd9150610ade90339085908f90600401612e60565b6020604051808303816000875af1158015610afd573d6000803e3d6000fd5b505050506040513d601f19601f82011682018060405250810190610b219190612cc6565b50604080516001600160a01b03808416808352908f1660208301529133917fc9b570ab9d98bdf3e38a40fd71b20edafca42449f23ca51f0bdcbf40e8ffe175910160405180910390a39b9a5050505050505050505050565b6000610b89338787878787610fbd565b9695505050505050565b600080610ba88d8d8d8d8d8d8d8d8d8d61065b565b604051635039bbbb60e11b81529091506001600160a01b037f0000000000000000000000000000000000000000000000000000000000000000169063a073777690610bf99084908790600401612cad565b600060405180830381600087803b158015610c1357600080fd5b505af1158015610c27573d6000803e3d6000fd5b50929f9e505050505050505050505050505050565b60405163aa5dd7f160e01b815233600482018190529030906001600160a01b037f0000000000000000000000000000000000000000000000000000000000000000169063aa5dd7f190602401602060405180830381865afa158015610ca5573d6000803e3d6000fd5b505050506040513d601f19601f82011682018060405250810190610cc99190612bdf565b6001600160a01b031614610cf0576040516369229ba760e01b815260040160405180910390fd5b604051632a5e323160e01b81526001600160a01b037f00000000000000000000000000000000000000000000000000000000000000001690632a5e323190610d3e9033908690600401612cad565b600060405180830381600087803b158015610d5857600080fd5b505af1158015610d6c573d6000803e3d6000fd5b505050505050565b6000808463ffffffff1681548110610d8e57610d8e612e84565b600091825260208083206040805160808101825260039490940290910180546001600160a01b038082168652600160a01b90910464ffffffffff169385019390935260018101549092168382018190526002909201546060840152805163194c325560e11b81528151939550849363329864aa926004808401939192918290030181865afa158015610e24573d6000803e3d6000fd5b505050506040513d601f19601f82011682018060405250810190610e489190612e9a565b9150915084836060015110610e5d5784610e63565b82606001515b9450808360200151610e759190612ec0565b64ffffffffff164211610ee257610e8e83878488611d52565b604080840151815163ffffffff89168152602081018890526001600160a01b03909116917f1eee30d91b773ac47d7485a3acb6bcd8c7c9cd8d95301b1af361baf5f0991d2e910160405180910390a2610d6c565b610eee8387878761201b565b600080610efd8585858a61212e565b604080880151815163ffffffff8d16815260208101849052918201849052606082018b90529294509092506001600160a01b03909116907f7d3a26e8d43c5b70f86266bfa26c212e3c097716ff7240ccb6a9034e48754e239060800160405180910390a25050505050505050565b60008181548110610f7b57600080fd5b60009182526020909120600390910201805460018201546002909201546001600160a01b038083169450600160a01b90920464ffffffffff1692919091169084565b60405163aa5dd7f160e01b81526001600160a01b038681166004830152600091879130917f00000000000000000000000000000000000000000000000000000000000000009091169063aa5dd7f190602401602060405180830381865afa15801561102c573d6000803e3d6000fd5b505050506040513d601f19601f820116820180604052508101906110509190612bdf565b6001600160a01b031614611077576040516369229ba760e01b815260040160405180910390fd5b60006110868989898989611116565b604051635039bbbb60e11b81529091506001600160a01b037f0000000000000000000000000000000000000000000000000000000000000000169063a0737776906110d79084908890600401612cad565b600060405180830381600087803b1580156110f157600080fd5b505af1158015611105573d6000803e3d6000fd5b50929b9a5050505050505050505050565b60405163aa5dd7f160e01b81526001600160a01b038581166004830152600091869130917f00000000000000000000000000000000000000000000000000000000000000009091169063aa5dd7f190602401602060405180830381865afa158015611185573d6000803e3d6000fd5b505050506040513d601f19601f820116820180604052508101906111a99190612bdf565b6001600160a01b0316146111d0576040516369229ba760e01b815260040160405180910390fd5b604051630167d12360e71b81526001600160a01b0387811660048301526000917f00000000000000000000000000000000000000000000000000000000000000009091169063b3e89180906024016020604051808303816000875af115801561123d573d6000803e3d6000fd5b505050506040513d601f19601f820116820180604052508101906112619190612bdf565b6040516336a3a4fd60e11b81526001600160a01b03898116600483015264ffffffffff871660248301529192508291821690636d4749fa90604401600060405180830381600087803b1580156112b657600080fd5b505af11580156112ca573d6000803e3d6000fd5b505060405163b52c696d60e01b81526001600160a01b0385811660048301527f000000000000000000000000000000000000000000000000000000000000000016925063b52c696d9150602401600060405180830381600087803b15801561133157600080fd5b505af1158015611345573d6000803e3d6000fd5b505050506000816001600160a01b031663d8dfeb456040518163ffffffff1660e01b8152600401602060405180830381865afa158015611389573d6000803e3d6000fd5b505050506040513d601f19601f820116820180604052508101906113ad9190612bdf565b9050816001600160a01b031663babe7c746040518163ffffffff1660e01b8152600401602060405180830381865afa1580156113ed573d6000803e3d6000fd5b505050506040513d601f19601f820116820180604052508101906114119190612bfc565b88101561143157604051633a23d82560e01b815260040160405180910390fd5b6040516323b872dd60e01b81526001600160a01b038216906323b872dd9061146190339087908d90600401612e60565b6020604051808303816000875af1158015611480573d6000803e3d6000fd5b505050506040513d601f19601f820116820180604052508101906114a49190612cc6565b50604080516001600160a01b038b81168252838116602083015280861692908d16917fc9b570ab9d98bdf3e38a40fd71b20edafca42449f23ca51f0bdcbf40e8ffe175910160405180910390a36040516340c10f1960e01b81526001600160a01b038316906340c10f199061151f908d908b90600401612cad565b600060405180830381600087803b15801561153957600080fd5b505af115801561154d573d6000803e3d6000fd5b505060405163f2fde38b60e01b81526001600160a01b038d811660048301528516925063f2fde38b9150602401600060405180830381600087803b15801561159457600080fd5b505af11580156115a8573d6000803e3d6000fd5b50949c9b505050505050505050505050565b60405163aa5dd7f160e01b81526001600160a01b038481166004830152600091859130917f00000000000000000000000000000000000000000000000000000000000000009091169063aa5dd7f190602401602060405180830381865afa158015611629573d6000803e3d6000fd5b505050506040513d601f19601f8201168201806040525081019061164d9190612bdf565b6001600160a01b031614611674576040516369229ba760e01b815260040160405180910390fd5b600085905083816001600160a01b031663a035b1fe6040518163ffffffff1660e01b8152600401602060405180830381865afa1580156116b8573d6000803e3d6000fd5b505050506040513d601f19601f820116820180604052508101906116dc9190612bfc565b10156116fb57604051630d57523160e11b815260040160405180910390fd5b806001600160a01b031663d8dfeb456040518163ffffffff1660e01b8152600401602060405180830381865afa158015611739573d6000803e3d6000fd5b505050506040513d601f19601f8201168201806040525081019061175d9190612bdf565b6001600160a01b03166323b872dd3330886040518463ffffffff1660e01b815260040161178c93929190612e60565b6020604051808303816000875af11580156117ab573d6000803e3d6000fd5b505050506040513d601f19601f820116820180604052508101906117cf9190612cc6565b50600080546040805160808101825233815264ffffffffff428116602083019081526001600160a01b03878116848601818152606086018e8152600189018a559880529451600388027f290decd9548b62a8d60345a988386fc84ba6bc95484008f6362f93160ef3e563810180549551909616600160a01b026001600160c81b0319909516918416919091179390931790935592517f290decd9548b62a8d60345a988386fc84ba6bc95484008f6362f93160ef3e56482018054919094166001600160a01b0319919091161790925593517f290decd9548b62a8d60345a988386fc84ba6bc95484008f6362f93160ef3e56590910155516342d0204160e01b81529091906342d02041906118eb90899060040190815260200190565b600060405180830381600087803b15801561190557600080fd5b505af1158015611919573d6000803e3d6000fd5b505060408051898152602081018590526001600160a01b03861693503392507fc4b384b2c5ca32c8e77081f4083be594a1ea9ba34f208a9f9a458f70608585f5910160405180910390a39695505050505050565b600080826001600160a01b031663a035b1fe6040518163ffffffff1660e01b8152600401602060405180830381865afa1580156119ae573d6000803e3d6000fd5b505050506040513d601f19601f820116820180604052508101906119d29190612bfc565b90506000836001600160a01b0316634665096d6040518163ffffffff1660e01b8152600401602060405180830381865afa158015611a14573d6000803e3d6000fd5b505050506040513d601f19601f82011682018060405250810190611a389190612edd565b64ffffffffff169050804211611a5b57611a5382600a612c2b565b949350505050565b6000846001600160a01b031663f3f480d96040518163ffffffff1660e01b8152600401602060405180830381865afa158015611a9b573d6000803e3d6000fd5b505050506040513d601f19601f82011682018060405250810190611abf9190612edd565b64ffffffffff1690506000611ad48342612c64565b9050818111611b2d576000611ae98284612c64565b9050808386611afa6001600a612c64565b611b049190612c2b565b611b0e9190612c42565b611b189190612c2b565b611b229086612c9a565b979650505050505050565b611b38826002612c2b565b811015611b6e57600081611b4d846002612c2b565b611b579190612c64565b905080611b648487612c42565b611b229190612c2b565b50600095945050505050565b60008060008363ffffffff1681548110611b9657611b96612e84565b60009182526020918290206040805160808101825260039390930290910180546001600160a01b03808216808652600160a01b90920464ffffffffff16958501959095526001820154909416918301919091526002015460608201529150611c015750600092915050565b60008082604001516001600160a01b031663329864aa6040518163ffffffff1660e01b81526004016040805180830381865afa158015611c45573d6000803e3d6000fd5b505050506040513d601f19601f82011682018060405250810190611c699190612e9a565b91509150610652818460200151611c809190612ec0565b82846125d2565b6001600160a01b038216600081815260016020908152604080832033845290915280822080549290555163a9059cbb60e01b815290919063a9059cbb90611cd49085908590600401612cad565b6020604051808303816000875af1158015611cf3573d6000803e3d6000fd5b505050506040513d601f19601f82011682018060405250810190611d179190612cc6565b50505050565b60006001600160e01b0319821663e49cd2c360e01b14806103f157506301ffc9a760e01b6001600160e01b03198316146103f1565b836020015164ffffffffff164203611d6957600080fd5b83516001600160a01b03163314611e2f5783516001600160a01b037f000000000000000000000000000000000000000000000000000000000000000016906323b872dd903390670de0b6b3a7640000611dc28787612c2b565b611dcc9190612c42565b6040518463ffffffff1660e01b8152600401611dea93929190612e60565b6020604051808303816000875af1158015611e09573d6000803e3d6000fd5b505050506040513d601f19601f82011682018060405250810190611e2d9190612cc6565b505b83604001516001600160a01b03166349746f10826040518263ffffffff1660e01b8152600401611e6191815260200190565b600060405180830381600087803b158015611e7b57600080fd5b505af1158015611e8f573d6000803e3d6000fd5b5050505083604001516001600160a01b031663d8dfeb456040518163ffffffff1660e01b8152600401602060405180830381865afa158015611ed5573d6000803e3d6000fd5b505050506040513d601f19601f82011682018060405250810190611ef99190612bdf565b6001600160a01b031663a9059cbb33836040518363ffffffff1660e01b8152600401611f26929190612cad565b6020604051808303816000875af1158015611f45573d6000803e3d6000fd5b505050506040513d601f19601f82011682018060405250810190611f699190612cc6565b508360600151811015611fb957808460600151611f869190612c64565b60008463ffffffff1681548110611f9f57611f9f612e84565b906000526020600020906003020160020181905550611d17565b83606001518114611fc957600080fd5b60008363ffffffff1681548110611fe257611fe2612e84565b60009182526020822060039091020180546001600160c81b03191681556001810180546001600160a01b03191690556002015550505050565b61208d84604001516001600160a01b031663d8dfeb456040518163ffffffff1660e01b8152600401602060405180830381865afa158015612060573d6000803e3d6000fd5b505050506040513d601f19601f820116820180604052508101906120849190612bdf565b85518484612660565b818460600151036120e95760008363ffffffff16815481106120b1576120b1612e84565b60009182526020822060039091020180546001600160c81b03191681556001810180546001600160a01b031916905560020155611d17565b8160008463ffffffff168154811061210357612103612e84565b906000526020600020906003020160020160008282546121239190612c64565b909155505050505050565b60008060008060008089604001516001600160a01b03166320aa9e7233896040518363ffffffff1660e01b8152600401612169929190612cad565b6080604051808303816000875af1158015612188573d6000803e3d6000fd5b505050506040513d601f19601f820116820180604052508101906121ac9190612efa565b93509350935093506000670de0b6b3a7640000846121da8b8e602001516121d39190612ec0565b8c8e6125d2565b6121e49190612c2b565b6121ee9190612c42565b6040516323b872dd60e01b81529091506001600160a01b037f000000000000000000000000000000000000000000000000000000000000000016906323b872dd9061224190339030908690600401612e60565b6020604051808303816000875af1158015612260573d6000803e3d6000fd5b505050506040513d601f19601f820116820180604052508101906122849190612cc6565b506000620f4240612297614e2084612c2b565b6122a19190612c42565b8c5160405163a9059cbb60e01b81529192506001600160a01b037f0000000000000000000000000000000000000000000000000000000000000000169163a9059cbb916122f2918590600401612cad565b6020604051808303816000875af1158015612311573d6000803e3d6000fd5b505050506040513d601f19601f820116820180604052508101906123359190612cc6565b5060006123428284612c64565b9050848111156124a7576000620f424061235c8784612c64565b61236c9063ffffffff8816612c2b565b6123769190612c42565b60405163375edc7760e11b81529091506001600160a01b037f00000000000000000000000000000000000000000000000000000000000000001690636ebdb8ee906123c79030908590600401612cad565b600060405180830381600087803b1580156123e157600080fd5b505af11580156123f5573d6000803e3d6000fd5b505050507f00000000000000000000000000000000000000000000000000000000000000006001600160a01b031663a9059cbb898389866124369190612c64565b6124409190612c64565b6040518363ffffffff1660e01b815260040161245d929190612cad565b6020604051808303816000875af115801561247c573d6000803e3d6000fd5b505050506040513d601f19601f820116820180604052508101906124a09190612cc6565b5050612539565b84811015612539576001600160a01b037f00000000000000000000000000000000000000000000000000000000000000001663d1fa5e98306124e98489612c64565b6040518363ffffffff1660e01b8152600401612506929190612cad565b600060405180830381600087803b15801561252057600080fd5b505af1158015612534573d6000803e3d6000fd5b505050505b6040516363b20c3360e11b81526004810186905263ffffffff851660248201527f00000000000000000000000000000000000000000000000000000000000000006001600160a01b03169063c764186690604401600060405180830381600087803b1580156125a757600080fd5b505af11580156125bb573d6000803e3d6000fd5b50979f949e50939c50505050505050505050505050565b60004264ffffffffff808616908216116125ef5782915050612659565b6125f98486612ec0565b64ffffffffff168164ffffffffff1610612617576000915050612659565b60006126238683612f3b565b61262d9086612f3b565b64ffffffffff169050808564ffffffffff168561264a9190612c42565b6126549190612c2b565b925050505b9392505050565b80156126ec576001600160a01b0380851660009081526001602090815260408083209387168352929052908120805484929061269d908490612c9a565b92505081905550826001600160a01b03167f8dbeeabb7d576986689d0bff912a01b9736f03d95739a5603e59301a50141c5c85846040516126df929190612cad565b60405180910390a2611d17565b60405163a9059cbb60e01b81526001600160a01b0385169063a9059cbb9061271a9086908690600401612cad565b6020604051808303816000875af1158015612739573d6000803e3d6000fd5b505050506040513d601f19601f8201168201806040525081019061275d9190612cc6565b5050505050565b60006020828403121561277657600080fd5b81356001600160e01b03198116811461265957600080fd5b6001600160a01b03811681146127a357600080fd5b50565b600080604083850312156127b957600080fd5b82356127c48161278e565b946020939093013593505050565b64ffffffffff811681146127a357600080fd5b600080600080608085870312156127fb57600080fd5b84356128068161278e565b935060208501359250604085013591506060850135612824816127d2565b939692955090935050565b803562ffffff8116811461284257600080fd5b919050565b6000806000806000806000806000806101408b8d03121561286757600080fd5b8a356128728161278e565b995060208b0135985060408b0135975060608b0135965060808b0135612897816127d2565b955060a08b01356128a7816127d2565b945060c08b01356128b7816127d2565b93506128c560e08c0161282f565b92506101008b013591506128dc6101208c0161282f565b90509295989b9194979a5092959850565b600080600080600060a0868803121561290557600080fd5b85356129108161278e565b94506020860135935060408601359250606086013561292e816127d2565b949793965091946080013592915050565b60008060008060008060008060008060006101608c8e03121561296157600080fd5b8b3561296c8161278e565b9a5060208c0135995060408c0135985060608c0135975060808c0135612991816127d2565b965060a08c01356129a1816127d2565b955060c08c01356129b1816127d2565b94506129bf60e08d0161282f565b93506101008c013592506129d66101208d0161282f565b915060006101408d01359050809150509295989b509295989b9093969950565b60008060408385031215612a0957600080fd5b8235612a148161278e565b91506020830135612a248161278e565b809150509250929050565b600060208284031215612a4157600080fd5b5035919050565b63ffffffff811681146127a357600080fd5b80151581146127a357600080fd5b600080600060608486031215612a7d57600080fd5b8335612a8881612a48565b9250602084013591506040840135612a9f81612a5a565b809150509250925092565b60008060008060008060c08789031215612ac357600080fd5b8635612ace8161278e565b95506020870135612ade8161278e565b945060408701359350606087013592506080870135612afc816127d2565b9598949750929591949360a090920135925050565b600080600080600060a08688031215612b2957600080fd5b8535612b348161278e565b94506020860135612b448161278e565b935060408601359250606086013591506080860135612b62816127d2565b809150509295509295909350565b600080600060608486031215612b8557600080fd5b8335612b908161278e565b95602085013595506040909401359392505050565b600060208284031215612bb757600080fd5b81356126598161278e565b600060208284031215612bd457600080fd5b813561265981612a48565b600060208284031215612bf157600080fd5b81516126598161278e565b600060208284031215612c0e57600080fd5b5051919050565b634e487b7160e01b600052601160045260246000fd5b80820281158282048414176103f1576103f1612c15565b600082612c5f57634e487b7160e01b600052601260045260246000fd5b500490565b818103818111156103f1576103f1612c15565b600060208284031215612c8957600080fd5b815160ff8116811461265957600080fd5b808201808211156103f1576103f1612c15565b6001600160a01b03929092168252602082015260400190565b600060208284031215612cd857600080fd5b815161265981612a5a565b600060033d1115612cfc5760046000803e5060005160e01c5b90565b601f8201601f1916810167ffffffffffffffff81118282101715612d3357634e487b7160e01b600052604160045260246000fd5b6040525050565b600060443d1015612d485790565b6040513d600319016004823e80513d602482011167ffffffffffffffff82111715612d7257505090565b808201805167ffffffffffffffff811115612d8e575050505090565b3d8401600319018282016020011115612da8575050505090565b612db760208285010185612cff565b509392505050565b60008060233d1115612ddb576020600460003e50506000516001905b9091565b6001600160a01b038c811682528b811660208301528a166040820152606081018990526080810188905264ffffffffff87811660a083015286811660c0830152851660e082015262ffffff8416610100820152610160810183610120830152612e5061014083018462ffffff169052565b9c9b505050505050505050505050565b6001600160a01b039384168152919092166020820152604081019190915260600190565b634e487b7160e01b600052603260045260246000fd5b60008060408385031215612ead57600080fd5b82516020840151909250612a24816127d2565b64ffffffffff81811683821601908111156103f1576103f1612c15565b600060208284031215612eef57600080fd5b8151612659816127d2565b60008060008060808587031215612f1057600080fd5b8451612f1b8161278e565b602086015160408701516060880151929650909450925061282481612a48565b64ffffffffff82811682821603908111156103f1576103f1612c1556fea2646970667358221220f5ebe6bf8ce04251453247202fa3c2a43c1dbffb927dba3dfdf6ca114dc00af564736f6c634300081a0033",
  "devdoc": {
    "kind": "dev",
    "methods": {
      "bid(uint32,uint256,bool)": {
        "details": "In case that the collateral cannot be transferred back to the challenger (i.e. because the collateral token has a blacklist and the challenger is on it), it is possible to postpone the return of the collateral.",
        "params": {
          "_challengeNumber": "index of the challenge as broadcast in the event",
          "postponeCollateralReturn": "To postpone the return of the collateral to the challenger. Usually false.",
          "size": "how much of the collateral the caller wants to bid for at most                                  (automatically reduced to the available amount)"
        }
      },
      "challenge(address,uint256,uint256)": {
        "params": {
          "_collateralAmount": "amount of the collateral we want to challenge",
          "_positionAddr": "address of the position we want to challenge",
          "minimumPrice": "position.price() to guard against the minter front-running with a price change"
        },
        "returns": {
          "_0": "index of the challenge in the challenge-array"
        }
      },
      "clone(address,address,uint256,uint256,uint40)": {
        "details": "This needs an allowance to be set on the collateral contract such that the minting hub can get the collateral."
      },
      "clone(address,address,uint256,uint256,uint40,bytes32)": {
        "details": "This needs an allowance to be set on the collateral contract such that the minting hub can get the collateral."
      },
      "openPosition(address,uint256,uint256,uint256,uint40,uint40,uint40,uint24,uint256,uint24)": {
        "details": "For a successful call, you must set an allowance for the collateral token, allowing the minting hub to transfer the initial collateral amount to the newly created position and to withdraw the fees.",
        "params": {
          "_challengeSeconds": "challenge period. Longer for less liquid collateral.",
          "_collateralAddress": "address of collateral token",
          "_expirationSeconds": "position tenor in seconds from 'now'",
          "_initPeriodSeconds": "initial period in seconds",
          "_initialCollateral": "amount of initial collateral to be deposited",
          "_liqPrice": "Liquidation price with (36 - token decimals) decimals,                            e.g. 18 decimals for an 18 dec collateral, 36 decs for a 0 dec collateral.",
          "_minCollateral": "minimum collateral required to prevent dust amounts",
          "_mintingMaximum": "maximal amount of deur that can be minted by the position owner",
          "_reservePPM": "ppm of minted amount that is locked as borrower's reserve, e.g. 20%",
          "_riskPremium": "ppm of minted amount that is added to the applicable minting fee as a risk premium"
        },
        "returns": {
          "_0": "address            address of created position"
        }
      },
      "price(uint32)": {
        "details": "The price comes with (36 - collateral.decimals()) digits, so multiplying it with the raw collateral amount always yields a price with 36 digits, or 18 digits after dividing by 10**18 again."
      },
      "supportsInterface(bytes4)": {
        "details": "See {IERC165-supportsInterface}."
      }
    },
    "version": 1
  },
  "userdoc": {
    "kind": "user",
    "methods": {
      "CHALLENGER_REWARD()": {
        "notice": "The challenger reward in parts per million (ppm) relative to the challenged amount, whereas challenged amount is defined as the challenged collateral amount times the liquidation price."
      },
      "OPENING_FEE()": {
        "notice": "Irrevocable fee in deur when proposing a new position (but not when cloning an existing one)."
      },
      "bid(uint32,uint256,bool)": {
        "notice": "Post a bid in deur given an open challenge."
      },
      "buyExpiredCollateral(address,uint256)": {
        "notice": "Buys up to the desired amount of the collateral asset from the given expired position using the applicable 'expiredPurchasePrice' at that instant. To prevent dust either the remaining collateral needs to be bought or collateral with a value of at least OPENING_FEE (1000 dEURO) needs to remain in the position for a different buyer"
      },
      "challenge(address,uint256,uint256)": {
        "notice": "Launch a challenge (Dutch auction) on a position"
      },
      "clone(address,address,uint256,uint256,uint40)": {
        "notice": "Clones an existing position and immediately tries to mint the specified amount using the given collateral."
      },
      "clone(address,address,uint256,uint256,uint40,bytes32)": {
        "notice": "Clones an existing position and immediately tries to mint the specified amount using the given collateral."
      },
      "expiredPurchasePrice(address)": {
        "notice": "The applicable purchase price when forcing the sale of collateral of an expired position. The price starts at 10x the liquidation price at the expiration time, linearly declines to 1x liquidation price over the course of one challenge period, and then linearly declines less steeply to 0 over the course of another challenge period."
      },
      "openPosition(address,uint256,uint256,uint256,uint40,uint40,uint40,uint24,uint256,uint24)": {
        "notice": "Open a collateralized loan position. See also https://docs.dEURO.com/positions/open ."
      },
      "pendingReturns(address,address)": {
        "notice": "Map to remember pending postponed collateral returns."
      },
      "price(uint32)": {
        "notice": "Get the price per unit of the collateral for the given challenge."
      },
      "returnPostponedCollateral(address,address)": {
        "notice": "Challengers can call this method to withdraw collateral whose return was postponed."
      }
    },
    "version": 1
  },
  "storageLayout": {
    "storage": [
      {
        "astId": 8424,
        "contract": "contracts/gateway/MintingHubGateway.sol:MintingHubGateway",
        "label": "challenges",
        "offset": 0,
        "slot": "0",
        "type": "t_array(t_struct(Challenge)8441_storage)dyn_storage"
      },
      {
        "astId": 8431,
        "contract": "contracts/gateway/MintingHubGateway.sol:MintingHubGateway",
        "label": "pendingReturns",
        "offset": 0,
        "slot": "1",
        "type": "t_mapping(t_address,t_mapping(t_address,t_uint256))"
      }
    ],
    "types": {
      "t_address": {
        "encoding": "inplace",
        "label": "address",
        "numberOfBytes": "20"
      },
      "t_array(t_struct(Challenge)8441_storage)dyn_storage": {
        "base": "t_struct(Challenge)8441_storage",
        "encoding": "dynamic_array",
        "label": "struct MintingHub.Challenge[]",
        "numberOfBytes": "32"
      },
      "t_contract(IPosition)12239": {
        "encoding": "inplace",
        "label": "contract IPosition",
        "numberOfBytes": "20"
      },
      "t_mapping(t_address,t_mapping(t_address,t_uint256))": {
        "encoding": "mapping",
        "key": "t_address",
        "label": "mapping(address => mapping(address => uint256))",
        "numberOfBytes": "32",
        "value": "t_mapping(t_address,t_uint256)"
      },
      "t_mapping(t_address,t_uint256)": {
        "encoding": "mapping",
        "key": "t_address",
        "label": "mapping(address => uint256)",
        "numberOfBytes": "32",
        "value": "t_uint256"
      },
      "t_struct(Challenge)8441_storage": {
        "encoding": "inplace",
        "label": "struct MintingHub.Challenge",
        "members": [
          {
            "astId": 8433,
            "contract": "contracts/gateway/MintingHubGateway.sol:MintingHubGateway",
            "label": "challenger",
            "offset": 0,
            "slot": "0",
            "type": "t_address"
          },
          {
            "astId": 8435,
            "contract": "contracts/gateway/MintingHubGateway.sol:MintingHubGateway",
            "label": "start",
            "offset": 20,
            "slot": "0",
            "type": "t_uint40"
          },
          {
            "astId": 8438,
            "contract": "contracts/gateway/MintingHubGateway.sol:MintingHubGateway",
            "label": "position",
            "offset": 0,
            "slot": "1",
            "type": "t_contract(IPosition)12239"
          },
          {
            "astId": 8440,
            "contract": "contracts/gateway/MintingHubGateway.sol:MintingHubGateway",
            "label": "size",
            "offset": 0,
            "slot": "2",
            "type": "t_uint256"
          }
        ],
        "numberOfBytes": "96"
      },
      "t_uint256": {
        "encoding": "inplace",
        "label": "uint256",
        "numberOfBytes": "32"
      },
      "t_uint40": {
        "encoding": "inplace",
        "label": "uint40",
        "numberOfBytes": "5"
      }
    }
  }
}