{
  "address": "0xeCDE1EF432447ca4504B08DFe0b863BBe5eB62ac",
  "abi": [
    {
      "inputs": [
        {
          "internalType": "address",
          "name": "_parent",
          "type": "address"
        }
      ],
      "name": "clonePosition",
      "outputs": [
        {
          "internalType": "address",
          "name": "",
          "type": "address"
        }
      ],
      "stateMutability": "nonpayable",
      "type": "function"
    },
    {
      "inputs": [
        {
          "internalType": "address",
          "name": "_owner",
          "type": "address"
        },
        {
          "internalType": "address",
          "name": "_deuro",
          "type": "address"
        },
        {
          "internalType": "address",
          "name": "_collateral",
          "type": "address"
        },
        {
          "internalType": "uint256",
          "name": "_minCollateral",
          "type": "uint256"
        },
        {
          "internalType": "uint256",
          "name": "_initialLimit",
          "type": "uint256"
        },
        {
          "internalType": "uint40",
          "name": "_initPeriod",
          "type": "uint40"
        },
        {
          "internalType": "uint40",
          "name": "_duration",
          "type": "uint40"
        },
        {
          "internalType": "uint40",
          "name": "_challengePeriod",
          "type": "uint40"
        },
        {
          "internalType": "uint24",
          "name": "_riskPremiumPPM",
          "type": "uint24"
        },
        {
          "internalType": "uint256",
          "name": "_liqPrice",
          "type": "uint256"
        },
        {
          "internalType": "uint24",
          "name": "_reserve",
          "type": "uint24"
        }
      ],
      "name": "createNewPosition",
      "outputs": [
        {
          "internalType": "address",
          "name": "",
          "type": "address"
        }
      ],
      "stateMutability": "nonpayable",
      "type": "function"
    }
  ],
  "transactionHash": "0xd662a4755469843b008a929a1ee34dfc2d9b958ec30d49798deaab51b2f06f3c",
  "args": [],
  "numDeployments": 4,
  "solcInputHash": "ece481ab51611799f01de526970750f0",
  "bytecode": "0x6080604052348015600f57600080fd5b5061372e8061001f6000396000f3fe608060405234801561001057600080fd5b50600436106100365760003560e01c80635d824f761461003b578063b3e891801461006a575b600080fd5b61004e61004936600461029e565b61007d565b6040516001600160a01b03909116815260200160405180910390f35b61004e61007836600461035b565b6100d9565b60008b338c8c8c8c8c8c8c8c8c8c6040516100979061024c565b6100ac9c9b9a9998979695949392919061037f565b604051809103906000f0801580156100c8573d6000803e3d6000fd5b509c9b505050505050505050505050565b600080829050806001600160a01b0316630e49d77e6040518163ffffffff1660e01b8152600401600060405180830381600087803b15801561011a57600080fd5b505af115801561012e573d6000803e3d6000fd5b50505050600061019e826001600160a01b03166346c715fa6040518163ffffffff1660e01b8152600401602060405180830381865afa158015610175573d6000803e3d6000fd5b505050506040513d601f19601f82011682018060405250810190610199919061040f565b6101a6565b949350505050565b6000808260601b9050604051733d602d80600a3d3981f3363d3d373d3d3d363d7360601b81528160148201526e5af43d82803e903d91602b57fd5bf360881b60288201526037816000f09250506001600160a01b0382166102465760405162461bcd60e51b8152602060048201526016602482015275115490cc4c4d8dce8818dc99585d194819985a5b195960521b604482015260640160405180910390fd5b50919050565b6132cc8061042d83390190565b6001600160a01b038116811461026e57600080fd5b50565b803564ffffffffff8116811461028657600080fd5b919050565b803562ffffff8116811461028657600080fd5b60008060008060008060008060008060006101608c8e0312156102c057600080fd5b8b356102cb81610259565b9a5060208c01356102db81610259565b995060408c01356102eb81610259565b985060608c0135975060808c0135965061030760a08d01610271565b955061031560c08d01610271565b945061032360e08d01610271565b93506103326101008d0161028b565b92506101208c013591506103496101408d0161028b565b90509295989b509295989b9093969950565b60006020828403121561036d57600080fd5b813561037881610259565b9392505050565b6001600160a01b038d811682528c811660208301528b811660408301528a1660608201526080810189905260a0810188905264ffffffffff87811660c0830152861660e0820152610180810164ffffffffff861661010083015262ffffff8516610120830152836101408301526103fe61016083018462ffffff169052565b9d9c50505050505050505050505050565b60006020828403121561042157600080fd5b81516103788161025956fe6101c060405234801561001157600080fd5b506040516132cc3803806132cc83398101604081905261003091610201565b8b6001600160a01b03811661005f57604051631e4fbdf760e01b81526000600482015260240160405180910390fd5b6100688161013c565b506203f4808664ffffffffff16101561008057600080fd5b3060e0526001600160a01b038b8116610100528a81166101205289166101405262ffffff8084166101805281166101a05261016088905264ffffffffff841660a0526100cc86426102e0565b64ffffffffff1660c08190526004805464ffffffffff1916821790556100f39086906102e0565b6004805464ffffffffff92909216650100000000000264ffffffffff60281b19909216919091179055608087905261012b828861018c565b50505050505050505050505061031a565b600080546001600160a01b038381166001600160a01b0319831681178455604051919092169283917f8be0079c531659141344cd1fd0a4f28419497f9722a3daafe3b4186f6b6457e09190a35050565b61019e670de0b6b3a764000082610303565b610160516101ac9084610303565b11156101b757600080fd5b50600155565b80516001600160a01b03811681146101d457600080fd5b919050565b805164ffffffffff811681146101d457600080fd5b805162ffffff811681146101d457600080fd5b6000806000806000806000806000806000806101808d8f03121561022457600080fd5b61022d8d6101bd565b9b5061023b60208e016101bd565b9a5061024960408e016101bd565b995061025760608e016101bd565b60808e015160a08f0151919a509850965061027460c08e016101d9565b955061028260e08e016101d9565b94506102916101008e016101d9565b93506102a06101208e016101ee565b6101408e015190935091506102b86101608e016101ee565b90509295989b509295989b509295989b565b634e487b7160e01b600052601160045260246000fd5b64ffffffffff81811683821601908111156102fd576102fd6102ca565b92915050565b80820281158282048414176102fd576102fd6102ca565b60805160a05160c05160e05161010051610120516101405161016051610180516101a051612de06104ec600039600081816103c701528181610a81015281816118d101528181611a220152818161216901528181612265015261254c0152600081816104ed01526117b80152600081816105ca0152818161121801528181611ef00152818161282401526128d301526000818161065b0152818161161e01528181611b5101528181611d780152611e7301526000818161053e015281816107ee01528181610b7001528181610caf01528181610d920152818161135501528181611aa101528181611fb90152818161207b0152818161219301528181612214015261257a0152600081816103750152818161093e01528181610ab601528181610f300152818161108301528181611189015281816112af0152818161133101528181611406015281816115c4015281816117d901528181611a7d0152818161275b01526127e901526000818161045f01528181610e5901528181610eae0152818161148401528181611ddd01526124c00152600081816105f101526107a701526000818161033201526106a801526000818161059201528181610e880152818161199a01526119dc0152612de06000f3fe608060405234801561001057600080fd5b50600436106102745760003560e01c8063715018a611610151578063a8a3e31d116100c3578063c54a89ca11610087578063c54a89ca14610630578063cfb636f014610643578063d8dfeb4514610656578063d9caed121461067d578063f2fde38b14610690578063f3f480d9146106a357600080fd5b8063a8a3e31d146105b4578063ba5d3078146105bc578063babe7c74146105c5578063be9a6555146105ec578063c2b6b58c1461061357600080fd5b80637bd6fb9b116101155780637bd6fb9b1461053157806382b8eaf5146105395780638da5cb5b146105605780639de2f79614610571578063a035b1fe14610584578063a4d66daf1461058d57600080fd5b8063715018a6146104cd57806372bf079e146104d5578063730d48b7146104e8578063787a08a61461050f5780637b3baab41461052057600080fd5b8063371fd8e6116101ea5780634665096d116101ae5780634665096d1461042c57806346c715fa1461045a57806349746f10146104815780635be980f5146104945780636d4749fa146104a75780636f871cec146104ba57600080fd5b8063371fd8e6146103af5780633a7c29fb146103c257806340c10f19146103fd57806342d020411461041057806345fe329f1461042357600080fd5b806324e657fe1161023c57806324e657fe1461030757806329d93d67146103105780632a37eeae14610318578063329864aa14610320578063350c35e91461035d578063365a86fc1461037057600080fd5b80630e49d77e1461027957806314a6bf0f146102835780631bbea34c1461029e57806320aa9e72146102b1578063211d7983146102f4575b600080fd5b6102816106ca565b005b61028b610795565b6040519081526020015b60405180910390f35b6102816102ac366004612952565b6107a5565b6102c46102bf366004612a0a565b61092e565b604080516001600160a01b03909516855260208501939093529183015263ffffffff166060820152608001610295565b610281610302366004612a36565b610aab565b61028b60035481565b61028b610e40565b61028b610e4d565b6001546040805191825264ffffffffff7f000000000000000000000000000000000000000000000000000000000000000016602083015201610295565b61028161036b366004612a0a565b610f2e565b6103977f000000000000000000000000000000000000000000000000000000000000000081565b6040516001600160a01b039091168152602001610295565b61028b6103bd366004612a6b565b611024565b6103e97f000000000000000000000000000000000000000000000000000000000000000081565b60405162ffffff9091168152602001610295565b61028161040b366004612a0a565b611081565b61028161041e366004612a6b565b61117e565b61028b60065481565b60045461044490600160281b900464ffffffffff1681565b60405164ffffffffff9091168152602001610295565b6103977f000000000000000000000000000000000000000000000000000000000000000081565b61028161048f366004612a6b565b6112a4565b6102816104a2366004612a6b565b611314565b6102816104b5366004612a97565b6113fb565b6102816104c8366004612ad0565b6115ec565b610281611746565b6102816104e3366004612a6b565b611758565b6103e97f000000000000000000000000000000000000000000000000000000000000000081565b6004546104449064ffffffffff1681565b6007546104449064ffffffffff1681565b6103e96117b4565b6103977f000000000000000000000000000000000000000000000000000000000000000081565b6000546001600160a01b0316610397565b61028b61057f366004612a6b565b6118c4565b61028b60015481565b61028b7f000000000000000000000000000000000000000000000000000000000000000081565b61028b61193a565b61028b60055481565b61028b7f000000000000000000000000000000000000000000000000000000000000000081565b6104447f000000000000000000000000000000000000000000000000000000000000000081565b600454600160501b900460ff166040519015158152602001610295565b61028b61063e366004612a6b565b611a17565b610281610651366004612a6b565b611a60565b6103977f000000000000000000000000000000000000000000000000000000000000000081565b61028161068b366004612afc565b611b47565b61028161069e366004612b3d565b611c2d565b6104447f000000000000000000000000000000000000000000000000000000000000000081565b600354156106eb5760405163d26e2de960e01b815260040160405180910390fd5b60045464ffffffffff16421161071457604051631c02820f60e21b815260040160405180910390fd5b600454600160281b900464ffffffffff16421061076857600480546040516238ddd760e41b815264ffffffffff42811693820193909352600160281b90910490911660248201526044015b60405180910390fd5b600454600160501b900460ff161561079357604051631cdde67b60e01b815260040160405180910390fd5b565b60006107a042611c68565b905090565b7f000000000000000000000000000000000000000000000000000000000000000064ffffffffff1642106107ec5760405163ecdd1c2960e01b815260040160405180910390fd5b7f00000000000000000000000000000000000000000000000000000000000000006001600160a01b031663cd3293de6040518163ffffffff1660e01b8152600401602060405180830381865afa15801561084a573d6000803e3d6000fd5b505050506040513d601f19601f8201168201806040525081019061086e9190612b5a565b6001600160a01b031663352e3a833386866040518463ffffffff1660e01b815260040161089d93929190612b77565b60006040518083038186803b1580156108b557600080fd5b505afa1580156108c9573d6000803e3d6000fd5b505050506108e56004805460ff60501b1916600160501b179055565b336001600160a01b03167faca80c800ec0d2aa9d9d31b7f886a1dd3067d4676abc637626a18ffb9381653d8383604051610920929190612bd5565b60405180910390a250505050565b6000808080336001600160a01b037f0000000000000000000000000000000000000000000000000000000000000000161461097c576040516313bd2e8360e31b815260040160405180910390fd5b6000610986611d0b565b9050856003600082825461099a9190612c1a565b90915550600090506109aa611d60565b9050868110156109b8578096505b600081156109da57816109cb8985612c2d565b6109d59190612c44565b6109dd565b60005b905080600654116109f0576006546109f2565b805b6109fc9082612c1a565b90508060055411610a0f57600554610a11565b805b9050610a1c81611dc7565b6000610a288a8a611e45565b6001546040805183815260208101929092528101869052909150600080516020612d8b8339815191529060600160405180910390a1610a696203f480611f2e565b506000546001600160a01b0316999798509662ffffff7f0000000000000000000000000000000000000000000000000000000000000000169650945050505050565b336001600160a01b037f00000000000000000000000000000000000000000000000000000000000000001614610af4576040516313bd2e8360e31b815260040160405180910390fd5b600454600160281b900464ffffffffff16421015610b25576040516302de694d60e41b815260040160405180910390fd5b60035415610b465760405163d26e2de960e01b815260040160405180910390fd5b6000610b50611d0b565b90506000610b5e8585611e45565b905081600003610c55578215610c14577f00000000000000000000000000000000000000000000000000000000000000006001600160a01b03166323b872dd86610bb06000546001600160a01b031690565b866040518463ffffffff1660e01b8152600401610bcf93929190612c66565b6020604051808303816000875af1158015610bee573d6000803e3d6000fd5b505050506040513d601f19601f82011682018060405250810190610c129190612c8a565b505b600080516020612d8b833981519152610c2b611d60565b60015460408051928352602083019190915281018490526060015b60405180910390a15050505050565b6000610c618685611f6f565b90506000818511610c73576000610c7d565b610c7d8286612c1a565b9050838211610c9557610c908285612c1a565b610c98565b60005b935083158015610ca85750600081115b15610d57577f00000000000000000000000000000000000000000000000000000000000000006001600160a01b03166323b872dd88610cef6000546001600160a01b031690565b846040518463ffffffff1660e01b8152600401610d0e93929190612c66565b6020604051808303816000875af1158015610d2d573d6000803e3d6000fd5b505050506040513d601f19601f82011682018060405250810190610d519190612c8a565b50610dfd565b600084118015610d65575082155b15610dfd57604051631a3f4bd360e31b81526001600160a01b0388811660048301526024820186905285917f00000000000000000000000000000000000000000000000000000000000000009091169063d1fa5e9890604401600060405180830381600087803b158015610dd857600080fd5b505af1158015610dec573d6000803e3d6000fd5b50505050610dfa8882611f6f565b50505b600080516020612d8b833981519152610e14611d60565b600154604080519283526020830191909152810186905260600160405180910390a1505050505b505050565b60006107a06103bd611d0b565b60006001600160a01b037f0000000000000000000000000000000000000000000000000000000000000000163003610eac576002546107a0907f0000000000000000000000000000000000000000000000000000000000000000612c1a565b7f00000000000000000000000000000000000000000000000000000000000000006001600160a01b031663a8a3e31d6040518163ffffffff1660e01b8152600401602060405180830381865afa158015610f0a573d6000803e3d6000fd5b505050506040513d601f19601f820116820180604052508101906107a09190612cac565b7f00000000000000000000000000000000000000000000000000000000000000006001600160a01b031663f09e9e3a6040518163ffffffff1660e01b8152600401602060405180830381865afa158015610f8c573d6000803e3d6000fd5b505050506040513d601f19601f82011682018060405250810190610fb09190612b5a565b6001600160a01b0316336001600160a01b031614610fd057610fd0612318565b6000610fdc8383612345565b9050600080516020612d8b833981519152816001546006546005546110019190612cc5565b6040805193845260208401929092529082015260600160405180910390a1505050565b6000806110313384611f6f565b9050600080516020612d8b83398151915261104a611d60565b60015460065460055461105d9190612cc5565b6040805193845260208401929092529082015260600160405180910390a192915050565b7f00000000000000000000000000000000000000000000000000000000000000006001600160a01b031663f09e9e3a6040518163ffffffff1660e01b8152600401602060405180830381865afa1580156110df573d6000803e3d6000fd5b505050506040513d601f19601f820116820180604052508101906111039190612b5a565b6001600160a01b0316336001600160a01b03161461112357611123612318565b600061112d611d0b565b90506000611139611d60565b90506111468484836123ac565b6001546040805183815260208101929092528101839052600080516020612d8b8339815191529060600160405180910390a150505050565b336001600160a01b037f000000000000000000000000000000000000000000000000000000000000000016146111c7576040516313bd2e8360e31b815260040160405180910390fd5b600454600160281b900464ffffffffff16421061121657600480546040516238ddd760e41b815264ffffffffff42811693820193909352600160281b909104909116602482015260440161075f565b7f00000000000000000000000000000000000000000000000000000000000000008110801561124b5750611248611d60565b81105b1561126957604051633c80636b60e21b815260040160405180910390fd5b8060000361128a57604051633c80636b60e21b815260040160405180910390fd5b806003600082825461129c9190612cc5565b909155505050565b336001600160a01b037f000000000000000000000000000000000000000000000000000000000000000016146112ed576040516313bd2e8360e31b815260040160405180910390fd5b80600360008282546112ff9190612c1a565b90915550611311905062015180611f2e565b50565b60405163aa5dd7f160e01b81523360048201526001600160a01b037f00000000000000000000000000000000000000000000000000000000000000008116917f00000000000000000000000000000000000000000000000000000000000000009091169063aa5dd7f190602401602060405180830381865afa15801561139e573d6000803e3d6000fd5b505050506040513d601f19601f820116820180604052508101906113c29190612b5a565b6001600160a01b0316146113e9576040516313bd2e8360e31b815260040160405180910390fd5b806002600082825461129c9190612c1a565b336001600160a01b037f00000000000000000000000000000000000000000000000000000000000000001614611444576040516313bd2e8360e31b815260040160405180910390fd5b600454600160281b900464ffffffffff16156114725760405162dc149f60e41b815260040160405180910390fd5b428164ffffffffff16108061151557507f00000000000000000000000000000000000000000000000000000000000000006001600160a01b0316634665096d6040518163ffffffff1660e01b8152600401602060405180830381865afa1580156114e0573d6000803e3d6000fd5b505050506040513d601f19601f820116820180604052508101906115049190612cd8565b64ffffffffff168164ffffffffff16115b1561153357604051637d9533a960e11b815260040160405180910390fd5b6004805469ffffffffff00000000001916600160281b64ffffffffff8416021781556040805163501ad8ff60e11b815290516001600160a01b0385169263a035b1fe928082019260209290918290030181865afa158015611598573d6000803e3d6000fd5b505050506040513d601f19601f820116820180604052508101906115bc9190612cac565b6001556115e87f00000000000000000000000000000000000000000000000000000000000000006125fd565b5050565b6115f4612318565b60006115fe611d0b565b9050600061160a611d60565b9050808411156116b2576001600160a01b037f0000000000000000000000000000000000000000000000000000000000000000166323b872dd333061164f8589612c1a565b6040518463ffffffff1660e01b815260040161166d93929190612c66565b6020604051808303816000875af115801561168c573d6000803e3d6000fd5b505050506040513d601f19601f820116820180604052508101906116b09190612c8a565b505b818510156116cf576116cd336116c88785612c1a565b611f6f565b505b808410156116ec576116ea336116e58684612c1a565b612345565b505b8185111561170857611708336117028488612c1a565b866123ac565b600154831461171a5761171a8361264d565b6040805185815260208101859052908101869052600080516020612d8b83398151915290606001610c46565b61174e612318565b61079360006125fd565b611760612318565b6117698161264d565b600080516020612d8b833981519152611780611d60565b6001546006546005546117939190612cc5565b6040805193845260208401929092529082015260600160405180910390a150565b60007f00000000000000000000000000000000000000000000000000000000000000007f00000000000000000000000000000000000000000000000000000000000000006001600160a01b031663664e97046040518163ffffffff1660e01b8152600401602060405180830381865afa158015611835573d6000803e3d6000fd5b505050506040513d601f19601f820116820180604052508101906118599190612b5a565b6001600160a01b03166306a7b3766040518163ffffffff1660e01b8152600401602060405180830381865afa158015611896573d6000803e3d6000fd5b505050506040513d601f19601f820116820180604052508101906118ba9190612cf5565b6107a09190612d1a565b60008115611931576118f97f0000000000000000000000000000000000000000000000000000000000000000620f4240612d35565b62ffffff16600161190d84620f4240612c2d565b6119179190612c1a565b6119219190612c44565b61192c906001612cc5565b611934565b60005b92915050565b60008060065460055461194d9190612cc5565b90506000670de0b6b3a7640000600154611965611d60565b61196f9190612c2d565b6119799190612c44565b905060008183116119935761198e8383612c1a565b611996565b60005b90507f0000000000000000000000000000000000000000000000000000000000000000816002546119c79190612cc5565b106119d6576000935050505090565b806002547f0000000000000000000000000000000000000000000000000000000000000000611a059190612c1a565b611a0f9190612c1a565b935050505090565b6000620f4240611a477f000000000000000000000000000000000000000000000000000000000000000082612d35565b611a569062ffffff1684612c2d565b6119349190612c44565b60405163aa5dd7f160e01b81523360048201526001600160a01b037f00000000000000000000000000000000000000000000000000000000000000008116917f00000000000000000000000000000000000000000000000000000000000000009091169063aa5dd7f190602401602060405180830381865afa158015611aea573d6000803e3d6000fd5b505050506040513d601f19601f82011682018060405250810190611b0e9190612b5a565b6001600160a01b031614611b35576040516313bd2e8360e31b815260040160405180910390fd5b806002600082825461129c9190612cc5565b611b4f612318565b7f00000000000000000000000000000000000000000000000000000000000000006001600160a01b0316836001600160a01b031603611b9257610e3b8282610f2e565b6000611b9c611d60565b60405163a9059cbb60e01b81526001600160a01b038581166004830152602482018590529192509085169063a9059cbb906044016020604051808303816000875af1158015611bef573d6000803e3d6000fd5b505050506040513d601f19601f82011682018060405250810190611c139190612c8a565b50611c1c611d60565b8114611c2757600080fd5b50505050565b611c35612318565b6001600160a01b038116611c5f57604051631e4fbdf760e01b81526000600482015260240161075f565b611311816125fd565b6006546007546000919064ffffffffff908116908416118015611c8d57506000600554115b15611cf657600754600090611ca99064ffffffffff1685612d50565b64ffffffffff169050651cae8c13e00081611cc26117b4565b62ffffff16600554611cd49190612c2d565b611cde9190612c2d565b611ce89190612c44565b611cf29083612cc5565b9150505b80600554611d049190612cc5565b9392505050565b600042611d1781611c68565b915060065460055483611d2a9190612c1a565b1115611d4157600554611d3d9083612c1a565b6006555b6007805464ffffffffff191664ffffffffff9290921691909117905590565b6040516370a0823160e01b81523060048201526000907f00000000000000000000000000000000000000000000000000000000000000006001600160a01b0316906370a0823190602401602060405180830381865afa158015610f0a573d6000803e3d6000fd5b604051635be980f560e01b8152600481018290527f00000000000000000000000000000000000000000000000000000000000000006001600160a01b031690635be980f5906024015b600060405180830381600087803b158015611e2a57600080fd5b505af1158015611e3e573d6000803e3d6000fd5b5050505050565b60008115611ee25760405163a9059cbb60e01b81526001600160a01b038481166004830152602482018490527f0000000000000000000000000000000000000000000000000000000000000000169063a9059cbb906044016020604051808303816000875af1158015611ebc573d6000803e3d6000fd5b505050506040513d601f19601f82011682018060405250810190611ee09190612c8a565b505b6000611eec611d60565b90507f0000000000000000000000000000000000000000000000000000000000000000811015611d0457611d046004805460ff60501b1916600160501b179055565b6000611f3a8242612d6d565b60045490915064ffffffffff90811690821611156115e8576004805464ffffffffff831664ffffffffff199091161790555050565b600080611f7a611d0b565b905082600003611f8e576000915050611934565b6000818411611f9d5783611f9f565b815b6040516323b872dd60e01b81529091506001600160a01b037f000000000000000000000000000000000000000000000000000000000000000016906323b872dd90611ff290889030908690600401612c66565b6020604051808303816000875af1158015612011573d6000803e3d6000fd5b505050506040513d601f19601f820116820180604052508101906120359190612c8a565b50600654600093501561211b576000816006541161205557600654612057565b815b905080156121195760405163375edc7760e11b8152306004820152602481018290527f00000000000000000000000000000000000000000000000000000000000000006001600160a01b031690636ebdb8ee90604401600060405180830381600087803b1580156120c757600080fd5b505af11580156120db573d6000803e3d6000fd5b505050506120e88161273f565b80600660008282546120fa9190612c1a565b9091555061210a90508183612c1a565b91506121168185612cc5565b93505b505b600060055411801561212d5750600081115b15612310576000816005541161214557600554612147565b815b9050801561230e576040516302dc1ca760e31b81526004810182905262ffffff7f00000000000000000000000000000000000000000000000000000000000000001660248201526000907f00000000000000000000000000000000000000000000000000000000000000006001600160a01b0316906316e0e53890604401602060405180830381865afa1580156121e2573d6000803e3d6000fd5b505050506040513d601f19601f820116820180604052508101906122069190612cac565b905060006001600160a01b037f00000000000000000000000000000000000000000000000000000000000000001663a47d75ad6122438486612c1a565b6040516001600160e01b031960e084901b168152600481019190915262ffffff7f00000000000000000000000000000000000000000000000000000000000000001660248201526044016020604051808303816000875af11580156122ac573d6000803e3d6000fd5b505050506040513d601f19601f820116820180604052508101906122d09190612cac565b905082600560008282546122e49190612c1a565b909155506122f490508385612c1a565b93506123008387612cc5565b955061230b81611dc7565b50505b505b505092915050565b6000546001600160a01b031633146107935760405163118cdaa760e01b815233600482015260240161075f565b600354600090156123695760405163d26e2de960e01b815260040160405180910390fd5b60045464ffffffffff16421161239257604051631c02820f60e21b815260040160405180910390fd5b600061239e8484611e45565b9050611d0481600154612820565b600354156123cd5760405163d26e2de960e01b815260040160405180910390fd5b60045464ffffffffff1642116123f657604051631c02820f60e21b815260040160405180910390fd5b600454600160281b900464ffffffffff16421061244557600480546040516238ddd760e41b815264ffffffffff42811693820193909352600160281b909104909116602482015260440161075f565b600454600160501b900460ff161561247057604051631cdde67b60e01b815260040160405180910390fd5b612478610e4d565b8211156124aa5781612488610e4d565b604051634779077960e11b81526004810192909252602482015260440161075f565b604051630cfb636f60e41b8152600481018390527f00000000000000000000000000000000000000000000000000000000000000006001600160a01b03169063cfb636f090602401600060405180830381600087803b15801561250c57600080fd5b505af1158015612520573d6000803e3d6000fd5b5050604051638112eb2b60e01b81526001600160a01b0386811660048301526024820186905262ffffff7f0000000000000000000000000000000000000000000000000000000000000000166044830152600060648301527f0000000000000000000000000000000000000000000000000000000000000000169250638112eb2b9150608401600060405180830381600087803b1580156125c057600080fd5b505af11580156125d4573d6000803e3d6000fd5b5050505081600560008282546125ea9190612cc5565b92505081905550610e3b81600154612820565b600080546001600160a01b038381166001600160a01b0319831681178455604051919092169283917f8be0079c531659141344cd1fd0a4f28419497f9722a3daafe3b4186f6b6457e09190a35050565b6003541561266e5760405163d26e2de960e01b815260040160405180910390fd5b600454600160281b900464ffffffffff1642106126bd57600480546040516238ddd760e41b815264ffffffffff42811693820193909352600160281b909104909116602482015260440161075f565b600454600160501b900460ff16156126e857604051631cdde67b60e01b815260040160405180910390fd5b600154811115612703576126fe6203f480611f2e565b612714565b61271461270e611d60565b82612820565b61131181612720610e4d565b6006546005546127309190612cc5565b61273a9190612cc5565b6128bc565b6040516301ffc9a760e01b8152637d0ea02d60e01b60048201527f00000000000000000000000000000000000000000000000000000000000000006001600160a01b0316906301ffc9a790602401602060405180830381865afa1580156127aa573d6000803e3d6000fd5b505050506040513d601f19601f820116820180604052508101906127ce9190612c8a565b1561131157604051637d0ea02d60e01b8152600481018290527f00000000000000000000000000000000000000000000000000000000000000006001600160a01b031690637d0ea02d90602401611e10565b60007f0000000000000000000000000000000000000000000000000000000000000000831061284f5782612852565b60005b9050670de0b6b3a764000060055461286a9190612c2d565b6128748383612c2d565b1015610e3b576128848282612c2d565b670de0b6b3a764000060055461289a9190612c2d565b604051632c1f8ef160e21b81526004810192909252602482015260440161075f565b6128ce670de0b6b3a764000082612c2d565b6128f87f000000000000000000000000000000000000000000000000000000000000000084612c2d565b111561290357600080fd5b50600155565b60008083601f84011261291b57600080fd5b50813567ffffffffffffffff81111561293357600080fd5b60208301915083602082850101111561294b57600080fd5b9250929050565b6000806000806040858703121561296857600080fd5b843567ffffffffffffffff81111561297f57600080fd5b8501601f8101871361299057600080fd5b803567ffffffffffffffff8111156129a757600080fd5b8760208260051b84010111156129bc57600080fd5b60209182019550935085013567ffffffffffffffff8111156129dd57600080fd5b6129e987828801612909565b95989497509550505050565b6001600160a01b038116811461131157600080fd5b60008060408385031215612a1d57600080fd5b8235612a28816129f5565b946020939093013593505050565b600080600060608486031215612a4b57600080fd5b8335612a56816129f5565b95602085013595506040909401359392505050565b600060208284031215612a7d57600080fd5b5035919050565b64ffffffffff8116811461131157600080fd5b60008060408385031215612aaa57600080fd5b8235612ab5816129f5565b91506020830135612ac581612a84565b809150509250929050565b600080600060608486031215612ae557600080fd5b505081359360208301359350604090920135919050565b600080600060608486031215612b1157600080fd5b8335612b1c816129f5565b92506020840135612b2c816129f5565b929592945050506040919091013590565b600060208284031215612b4f57600080fd5b8135611d04816129f5565b600060208284031215612b6c57600080fd5b8151611d04816129f5565b6001600160a01b0384168152604060208201819052810182905260008360608301825b85811015612bca578235612bad816129f5565b6001600160a01b0316825260209283019290910190600101612b9a565b509695505050505050565b60208152816020820152818360408301376000818301604090810191909152601f909201601f19160101919050565b634e487b7160e01b600052601160045260246000fd5b8181038181111561193457611934612c04565b808202811582820484141761193457611934612c04565b600082612c6157634e487b7160e01b600052601260045260246000fd5b500490565b6001600160a01b039384168152919092166020820152604081019190915260600190565b600060208284031215612c9c57600080fd5b81518015158114611d0457600080fd5b600060208284031215612cbe57600080fd5b5051919050565b8082018082111561193457611934612c04565b600060208284031215612cea57600080fd5b8151611d0481612a84565b600060208284031215612d0757600080fd5b815162ffffff81168114611d0457600080fd5b62ffffff818116838216019081111561193457611934612c04565b62ffffff828116828216039081111561193457611934612c04565b64ffffffffff828116828216039081111561193457611934612c04565b64ffffffffff818116838216019081111561193457611934612c0456fe9483a26ad376f30b5199a79e75df3bb05158c4ee32a348f53e83245a5e50c86ea2646970667358221220f89faf588c4fc8618baab8753095ba16d78f37810101e69fb8279e7337aa870d64736f6c634300081a0033a26469706673582212207116c2f1ae3eb744cfb0394d33b34050ede185fcff919c3b55920ce7baa4862964736f6c634300081a0033",
  "devdoc": {
    "kind": "dev",
    "methods": {
      "clonePosition(address)": {
        "params": {
          "_parent": "address of the position we want to clone"
        },
        "returns": {
          "_0": "address of the newly created clone position"
        }
      }
    },
    "version": 1
  },
  "userdoc": {
    "kind": "user",
    "methods": {
      "clonePosition(address)": {
        "notice": "Clone an existing position. This can be a clone of another clone, or an original position."
      },
      "createNewPosition(address,address,address,uint256,uint256,uint40,uint40,uint40,uint24,uint256,uint24)": {
        "notice": "Create a completely new position in a newly deployed contract. Must be called through the minting hub to be recognized as a valid position."
      }
    },
    "version": 1
  },
  "storageLayout": {
    "storage": [],
    "types": null
  }
}