{
  "address": "0xa5f63B2A73AaE2F4636F401D3A442082f2D92807",
  "abi": [
    {
      "inputs": [
        {
          "internalType": "address",
          "name": "deuro_",
          "type": "address"
        }
      ],
      "stateMutability": "nonpayable",
      "type": "constructor"
    },
    {
      "inputs": [
        {
          "internalType": "uint256",
          "name": "",
          "type": "uint256"
        },
        {
          "internalType": "uint256",
          "name": "",
          "type": "uint256"
        },
        {
          "internalType": "uint256",
          "name": "",
          "type": "uint256"
        }
      ],
      "name": "Log",
      "type": "error"
    },
    {
      "inputs": [
        {
          "internalType": "address",
          "name": "pos",
          "type": "address"
        }
      ],
      "name": "NotOwner",
      "type": "error"
    },
    {
      "inputs": [
        {
          "internalType": "address",
          "name": "pos",
          "type": "address"
        }
      ],
      "name": "NotPosition",
      "type": "error"
    },
    {
      "anonymous": false,
      "inputs": [
        {
          "indexed": false,
          "internalType": "address",
          "name": "source",
          "type": "address"
        },
        {
          "indexed": false,
          "internalType": "uint256",
          "name": "collWithdraw",
          "type": "uint256"
        },
        {
          "indexed": false,
          "internalType": "uint256",
          "name": "repay",
          "type": "uint256"
        },
        {
          "indexed": false,
          "internalType": "address",
          "name": "target",
          "type": "address"
        },
        {
          "indexed": false,
          "internalType": "uint256",
          "name": "collDeposit",
          "type": "uint256"
        },
        {
          "indexed": false,
          "internalType": "uint256",
          "name": "mint",
          "type": "uint256"
        }
      ],
      "name": "Roll",
      "type": "event"
    },
    {
      "inputs": [
        {
          "internalType": "contract IPosition",
          "name": "source",
          "type": "address"
        },
        {
          "internalType": "uint256",
          "name": "repay",
          "type": "uint256"
        },
        {
          "internalType": "uint256",
          "name": "collWithdraw",
          "type": "uint256"
        },
        {
          "internalType": "contract IPosition",
          "name": "target",
          "type": "address"
        },
        {
          "internalType": "uint256",
          "name": "mint",
          "type": "uint256"
        },
        {
          "internalType": "uint256",
          "name": "collDeposit",
          "type": "uint256"
        },
        {
          "internalType": "uint40",
          "name": "expiration",
          "type": "uint40"
        }
      ],
      "name": "roll",
      "outputs": [],
      "stateMutability": "nonpayable",
      "type": "function"
    },
    {
      "inputs": [
        {
          "internalType": "contract IPosition",
          "name": "source",
          "type": "address"
        },
        {
          "internalType": "contract IPosition",
          "name": "target",
          "type": "address"
        }
      ],
      "name": "rollFully",
      "outputs": [],
      "stateMutability": "nonpayable",
      "type": "function"
    },
    {
      "inputs": [
        {
          "internalType": "contract IPosition",
          "name": "source",
          "type": "address"
        },
        {
          "internalType": "contract IPosition",
          "name": "target",
          "type": "address"
        },
        {
          "internalType": "uint40",
          "name": "expiration",
          "type": "uint40"
        }
      ],
      "name": "rollFullyWithExpiration",
      "outputs": [],
      "stateMutability": "nonpayable",
      "type": "function"
    }
  ],
  "transactionHash": "0xc2d10f24f1ff60e27f902b1ca3470161cbdb7ad8bb411956335591f62098aac7",
  "args": [
    "0xd02812Be610952aAFBbbfBcA438887A2f3A5f53B"
  ],
  "numDeployments": 4,
  "solcInputHash": "ece481ab51611799f01de526970750f0",
  "bytecode": "0x6080604052348015600f57600080fd5b5060405161100f38038061100f833981016040819052602c916050565b600080546001600160a01b0319166001600160a01b0392909216919091179055607e565b600060208284031215606157600080fd5b81516001600160a01b0381168114607757600080fd5b9392505050565b610f828061008d6000396000f3fe608060405234801561001057600080fd5b50600436106100415760003560e01c80635e871b541461004657806389523c331461005b578063c2a1c5061461006e575b600080fd5b610059610054366004610d5f565b610081565b005b610059610069366004610daa565b61044c565b61005961007c366004610e1c565b610cc9565b816001600160a01b031663d8dfeb456040518163ffffffff1660e01b8152600401602060405180830381865afa1580156100bf573d6000803e3d6000fd5b505050506040513d601f19601f820116820180604052508101906100e39190610e55565b6001600160a01b0316836001600160a01b031663d8dfeb456040518163ffffffff1660e01b8152600401602060405180830381865afa15801561012a573d6000803e3d6000fd5b505050506040513d601f19601f8201168201806040525081019061014e9190610e55565b6001600160a01b03161461016157600080fd5b6000836001600160a01b03166314a6bf0f6040518163ffffffff1660e01b8152600401602060405180830381865afa1580156101a1573d6000803e3d6000fd5b505050506040513d601f19601f820116820180604052508101906101c59190610e79565b604051634ef17bcb60e11b8152600481018290529091506000906001600160a01b03851690639de2f79690602401602060405180830381865afa158015610210573d6000803e3d6000fd5b505050506040513d601f19601f820116820180604052508101906102349190610e79565b90506000856001600160a01b031663d8dfeb456040518163ffffffff1660e01b8152600401602060405180830381865afa158015610276573d6000803e3d6000fd5b505050506040513d601f19601f8201168201806040525081019061029a9190610e55565b6040516370a0823160e01b81526001600160a01b03888116600483015291909116906370a0823190602401602060405180830381865afa1580156102e2573d6000803e3d6000fd5b505050506040513d601f19601f820116820180604052508101906103069190610e79565b90506000856001600160a01b031663a035b1fe6040518163ffffffff1660e01b8152600401602060405180830381865afa158015610348573d6000803e3d6000fd5b505050506040513d601f19601f8201168201806040525081019061036c9190610e79565b905060008160018161038687670de0b6b3a7640000610ea8565b6103909190610ec5565b61039a9190610ed8565b6103a49190610eeb565b90508281111561043357829050670de0b6b3a7640000876001600160a01b031663a035b1fe6040518163ffffffff1660e01b8152600401602060405180830381865afa1580156103f8573d6000803e3d6000fd5b505050506040513d601f19601f8201168201806040525081019061041c9190610e79565b6104269083610ea8565b6104309190610eeb565b93505b6104428886858a88868c61044c565b5050505050505050565b6000805460405163aa5dd7f160e01b81526001600160a01b03808b1660048301528a9392169063aa5dd7f190602401602060405180830381865afa158015610498573d6000803e3d6000fd5b505050506040513d601f19601f820116820180604052508101906104bc9190610e55565b6001600160a01b0316036104f357604051631a71b9a760e01b81526001600160a01b03821660048201526024015b60405180910390fd5b6000805460405163aa5dd7f160e01b81526001600160a01b038089166004830152889392169063aa5dd7f190602401602060405180830381865afa15801561053f573d6000803e3d6000fd5b505050506040513d601f19601f820116820180604052508101906105639190610e55565b6001600160a01b03160361059557604051631a71b9a760e01b81526001600160a01b03821660048201526024016104ea565b88336001600160a01b0316816001600160a01b0316638da5cb5b6040518163ffffffff1660e01b8152600401602060405180830381865afa1580156105de573d6000803e3d6000fd5b505050506040513d601f19601f820116820180604052508101906106029190610e55565b6001600160a01b0316146106345760405163245aecd360e01b81526001600160a01b03821660048201526024016104ea565b6000546040516340c10f1960e01b8152306004820152602481018b90526001600160a01b03909116906340c10f1990604401600060405180830381600087803b15801561068057600080fd5b505af1158015610694573d6000803e3d6000fd5b5050604051631b8fec7360e11b8152600481018c90526001600160a01b038d16925063371fd8e691506024016020604051808303816000875af11580156106df573d6000803e3d6000fd5b505050506040513d601f19601f820116820180604052508101906107039190610e79565b5060405163350c35e960e01b8152336004820152602481018990526001600160a01b038b169063350c35e990604401600060405180830381600087803b15801561074c57600080fd5b505af1158015610760573d6000803e3d6000fd5b505050506000861115610bf9576000876001600160a01b031663d8dfeb456040518163ffffffff1660e01b8152600401602060405180830381865afa1580156107ad573d6000803e3d6000fd5b505050506040513d601f19601f820116820180604052508101906107d19190610e55565b9050336001600160a01b0316886001600160a01b0316638da5cb5b6040518163ffffffff1660e01b8152600401602060405180830381865afa15801561081b573d6000803e3d6000fd5b505050506040513d601f19601f8201168201806040525081019061083f9190610e55565b6001600160a01b03161415806108c45750876001600160a01b0316634665096d6040518163ffffffff1660e01b8152600401602060405180830381865afa15801561088e573d6000803e3d6000fd5b505050506040513d601f19601f820116820180604052508101906108b29190610f0d565b64ffffffffff168564ffffffffff1614155b15610b1c576040516323b872dd60e01b8152336004820152306024820152604481018790526001600160a01b038216906323b872dd906064016020604051808303816000875af115801561091c573d6000803e3d6000fd5b505050506040513d601f19601f820116820180604052508101906109409190610f2a565b50806001600160a01b031663095ea7b3896001600160a01b031663365a86fc6040518163ffffffff1660e01b8152600401602060405180830381865afa15801561098e573d6000803e3d6000fd5b505050506040513d601f19601f820116820180604052508101906109b29190610e55565b6040516001600160e01b031960e084901b1681526001600160a01b039091166004820152602481018990526044016020604051808303816000875af11580156109ff573d6000803e3d6000fd5b505050506040513d601f19601f82011682018060405250810190610a239190610f2a565b50876001600160a01b031663365a86fc6040518163ffffffff1660e01b8152600401602060405180830381865afa158015610a62573d6000803e3d6000fd5b505050506040513d601f19601f82011682018060405250810190610a869190610e55565b604051634ec7f95360e11b81523360048201526001600160a01b038a8116602483015260448201899052606482018a905264ffffffffff881660848301529190911690639d8ff2a69060a4016020604051808303816000875af1158015610af1573d6000803e3d6000fd5b505050506040513d601f19601f82011682018060405250810190610b159190610e55565b9750610bf7565b6040516323b872dd60e01b81523360048201526001600160a01b038981166024830152604482018890528216906323b872dd906064016020604051808303816000875af1158015610b71573d6000803e3d6000fd5b505050506040513d601f19601f82011682018060405250810190610b959190610f2a565b506040516340c10f1960e01b8152336004820152602481018890526001600160a01b038916906340c10f1990604401600060405180830381600087803b158015610bde57600080fd5b505af1158015610bf2573d6000803e3d6000fd5b505050505b505b60005460405163079cc67960e41b8152336004820152602481018b90526001600160a01b03909116906379cc679090604401600060405180830381600087803b158015610c4557600080fd5b505af1158015610c59573d6000803e3d6000fd5b5050604080516001600160a01b038e81168252602082018d90528183018e90528b1660608201526080810189905260a081018a905290517f8ba6e48d27ab46e18ba0971bb468a2e47a7fac577d846de107eb2fe948c2f59593509081900360c0019150a150505050505050505050565b610d308282836001600160a01b0316634665096d6040518163ffffffff1660e01b8152600401602060405180830381865afa158015610d0c573d6000803e3d6000fd5b505050506040513d601f19601f820116820180604052508101906100549190610f0d565b5050565b6001600160a01b0381168114610d4957600080fd5b50565b64ffffffffff81168114610d4957600080fd5b600080600060608486031215610d7457600080fd5b8335610d7f81610d34565b92506020840135610d8f81610d34565b91506040840135610d9f81610d4c565b809150509250925092565b600080600080600080600060e0888a031215610dc557600080fd5b8735610dd081610d34565b965060208801359550604088013594506060880135610dee81610d34565b93506080880135925060a0880135915060c0880135610e0c81610d4c565b8091505092959891949750929550565b60008060408385031215610e2f57600080fd5b8235610e3a81610d34565b91506020830135610e4a81610d34565b809150509250929050565b600060208284031215610e6757600080fd5b8151610e7281610d34565b9392505050565b600060208284031215610e8b57600080fd5b5051919050565b634e487b7160e01b600052601160045260246000fd5b8082028115828204841417610ebf57610ebf610e92565b92915050565b80820180821115610ebf57610ebf610e92565b81810381811115610ebf57610ebf610e92565b600082610f0857634e487b7160e01b600052601260045260246000fd5b500490565b600060208284031215610f1f57600080fd5b8151610e7281610d4c565b600060208284031215610f3c57600080fd5b81518015158114610e7257600080fdfea26469706673582212200cf5307c81fa3d28657d8a396d7fc3429ba51d2003739460805cc77d349b0e8864736f6c634300081a0033",
  "devdoc": {
    "kind": "dev",
    "methods": {
      "roll(address,uint256,uint256,address,uint256,uint256,uint40)": {
        "params": {
          "collDeposit": "The amount of collateral to be sent from msg.sender to the target position.",
          "collWithdraw": "Collateral to move from the source position to the msg.sender.",
          "expiration": "The desired expiration date for the target position.",
          "mint": "The amount to be minted from the target position using collateral from msg.sender.",
          "repay": "The amount to flash loan in order to repay the source position and free up some or all collateral.",
          "source": "The source position, must be owned by the msg.sender.",
          "target": "The target position. If not owned by msg.sender or if it does not have the desired expiration,               it is cloned to create a position owned by the msg.sender."
        }
      }
    },
    "title": "PositionRoller Helper to roll over a debt from an old position to a new one. Both positions should have the same collateral. Otherwise, it does not make much sense.",
    "version": 1
  },
  "userdoc": {
    "kind": "user",
    "methods": {
      "roll(address,uint256,uint256,address,uint256,uint256,uint40)": {
        "notice": "Rolls the source position into the target position using a flash loan. Both the source and the target position must recognize this roller. It is the responsibility of the caller to ensure that both positions are valid contracts."
      },
      "rollFully(address,address)": {
        "notice": "Convenience method to roll an old position into a new one. Pre-condition: an allowance for the roller to spend the collateral asset on behalf of the caller, i.e., one should set collateral.approve(roller, collateral.balanceOf(sourcePosition)). The following is assumed: - If the limit of the target position permits, the user wants to roll everything. - The user does not want to add additional collateral, but excess collateral is returned. - If not enough can be minted in the new position, it is acceptable for the roller to use dEURO from the msg.sender."
      },
      "rollFullyWithExpiration(address,address,uint40)": {
        "notice": "Like rollFully, but with a custom expiration date for the new position."
      }
    },
    "version": 1
  },
  "storageLayout": {
    "storage": [
      {
        "astId": 12846,
        "contract": "contracts/MintingHubV2/PositionRoller.sol:PositionRoller",
        "label": "deuro",
        "offset": 0,
        "slot": "0",
        "type": "t_contract(IDecentralizedEURO)16167"
      }
    ],
    "types": {
      "t_contract(IDecentralizedEURO)16167": {
        "encoding": "inplace",
        "label": "contract IDecentralizedEURO",
        "numberOfBytes": "20"
      }
    }
  }
}