{
  "address": "0x5DdfB59AC12caBE7E443220222e6CDd4187651CA",
  "abi": [
    {
      "inputs": [
        {
          "internalType": "address",
          "name": "deuro_",
          "type": "address"
        }
      ],
      "stateMutability": "nonpayable",
      "type": "constructor"
    },
    {
      "inputs": [
        {
          "internalType": "uint256",
          "name": "",
          "type": "uint256"
        },
        {
          "internalType": "uint256",
          "name": "",
          "type": "uint256"
        },
        {
          "internalType": "uint256",
          "name": "",
          "type": "uint256"
        }
      ],
      "name": "Log",
      "type": "error"
    },
    {
      "inputs": [
        {
          "internalType": "address",
          "name": "pos",
          "type": "address"
        }
      ],
      "name": "NotOwner",
      "type": "error"
    },
    {
      "inputs": [
        {
          "internalType": "address",
          "name": "pos",
          "type": "address"
        }
      ],
      "name": "NotPosition",
      "type": "error"
    },
    {
      "anonymous": false,
      "inputs": [
        {
          "indexed": false,
          "internalType": "address",
          "name": "source",
          "type": "address"
        },
        {
          "indexed": false,
          "internalType": "uint256",
          "name": "collWithdraw",
          "type": "uint256"
        },
        {
          "indexed": false,
          "internalType": "uint256",
          "name": "repay",
          "type": "uint256"
        },
        {
          "indexed": false,
          "internalType": "uint256",
          "name": "interest",
          "type": "uint256"
        },
        {
          "indexed": false,
          "internalType": "address",
          "name": "target",
          "type": "address"
        },
        {
          "indexed": false,
          "internalType": "uint256",
          "name": "collDeposit",
          "type": "uint256"
        },
        {
          "indexed": false,
          "internalType": "uint256",
          "name": "mint",
          "type": "uint256"
        }
      ],
      "name": "Roll",
      "type": "event"
    },
    {
      "inputs": [
        {
          "internalType": "contract IPosition",
          "name": "source",
          "type": "address"
        },
        {
          "internalType": "uint256",
          "name": "repay",
          "type": "uint256"
        },
        {
          "internalType": "uint256",
          "name": "collWithdraw",
          "type": "uint256"
        },
        {
          "internalType": "contract IPosition",
          "name": "target",
          "type": "address"
        },
        {
          "internalType": "uint256",
          "name": "mint",
          "type": "uint256"
        },
        {
          "internalType": "uint256",
          "name": "collDeposit",
          "type": "uint256"
        },
        {
          "internalType": "uint40",
          "name": "expiration",
          "type": "uint40"
        }
      ],
      "name": "roll",
      "outputs": [],
      "stateMutability": "nonpayable",
      "type": "function"
    },
    {
      "inputs": [
        {
          "internalType": "contract IPosition",
          "name": "source",
          "type": "address"
        },
        {
          "internalType": "contract IPosition",
          "name": "target",
          "type": "address"
        }
      ],
      "name": "rollFully",
      "outputs": [],
      "stateMutability": "nonpayable",
      "type": "function"
    },
    {
      "inputs": [
        {
          "internalType": "contract IPosition",
          "name": "source",
          "type": "address"
        },
        {
          "internalType": "contract IPosition",
          "name": "target",
          "type": "address"
        },
        {
          "internalType": "uint40",
          "name": "expiration",
          "type": "uint40"
        }
      ],
      "name": "rollFullyWithExpiration",
      "outputs": [],
      "stateMutability": "nonpayable",
      "type": "function"
    }
  ],
  "transactionHash": "0x5cb14c55f44f942049829a1594ac0306a9da7391e8abb07e0c89949414bbd718",
  "args": [
    "0xe56E05a3E1375a147C122E5883667e57159485e6"
  ],
  "numDeployments": 5,
  "solcInputHash": "4a5a3784dacf73f644d615d19c184266",
  "bytecode": "0x6080604052348015600f57600080fd5b506040516114d63803806114d6833981016040819052602c916050565b600080546001600160a01b0319166001600160a01b0392909216919091179055607e565b600060208284031215606157600080fd5b81516001600160a01b0381168114607757600080fd5b9392505050565b6114498061008d6000396000f3fe608060405234801561001057600080fd5b50600436106100415760003560e01c80635e871b541461004657806389523c331461005b578063c2a1c5061461006e575b600080fd5b610059610054366004611226565b610081565b005b610059610069366004611271565b6104bc565b61005961007c3660046112e3565b610d86565b816001600160a01b031663d8dfeb456040518163ffffffff1660e01b8152600401602060405180830381865afa1580156100bf573d6000803e3d6000fd5b505050506040513d601f19601f820116820180604052508101906100e3919061131c565b6001600160a01b0316836001600160a01b031663d8dfeb456040518163ffffffff1660e01b8152600401602060405180830381865afa15801561012a573d6000803e3d6000fd5b505050506040513d601f19601f8201168201806040525081019061014e919061131c565b6001600160a01b03161461016157600080fd5b6000836001600160a01b031663ba5d30786040518163ffffffff1660e01b8152600401602060405180830381865afa1580156101a1573d6000803e3d6000fd5b505050506040513d601f19601f820116820180604052508101906101c59190611340565b6040516362a544e560e11b8152600481018290529091506000906001600160a01b0386169063c54a89ca90602401602060405180830381865afa158015610210573d6000803e3d6000fd5b505050506040513d601f19601f820116820180604052508101906102349190611340565b604051634ef17bcb60e11b8152600481018290529091506000906001600160a01b03861690639de2f79690602401602060405180830381865afa15801561027f573d6000803e3d6000fd5b505050506040513d601f19601f820116820180604052508101906102a39190611340565b90506000866001600160a01b031663d8dfeb456040518163ffffffff1660e01b8152600401602060405180830381865afa1580156102e5573d6000803e3d6000fd5b505050506040513d601f19601f82011682018060405250810190610309919061131c565b6040516370a0823160e01b81526001600160a01b03898116600483015291909116906370a0823190602401602060405180830381865afa158015610351573d6000803e3d6000fd5b505050506040513d601f19601f820116820180604052508101906103759190611340565b90506000866001600160a01b031663a035b1fe6040518163ffffffff1660e01b8152600401602060405180830381865afa1580156103b7573d6000803e3d6000fd5b505050506040513d601f19601f820116820180604052508101906103db9190611340565b90506000816001816103f587670de0b6b3a764000061136f565b6103ff919061138c565b610409919061139f565b61041391906113b2565b9050828111156104a257829050670de0b6b3a7640000886001600160a01b031663a035b1fe6040518163ffffffff1660e01b8152600401602060405180830381865afa158015610467573d6000803e3d6000fd5b505050506040513d601f19601f8201168201806040525081019061048b9190611340565b610495908361136f565b61049f91906113b2565b93505b6104b18987858b88868d6104bc565b505050505050505050565b6000805460405163aa5dd7f160e01b81526001600160a01b03808b1660048301528a9392169063aa5dd7f190602401602060405180830381865afa158015610508573d6000803e3d6000fd5b505050506040513d601f19601f8201168201806040525081019061052c919061131c565b6001600160a01b03160361056357604051631a71b9a760e01b81526001600160a01b03821660048201526024015b60405180910390fd5b6000805460405163aa5dd7f160e01b81526001600160a01b038089166004830152889392169063aa5dd7f190602401602060405180830381865afa1580156105af573d6000803e3d6000fd5b505050506040513d601f19601f820116820180604052508101906105d3919061131c565b6001600160a01b03160361060557604051631a71b9a760e01b81526001600160a01b038216600482015260240161055a565b88336001600160a01b0316816001600160a01b0316638da5cb5b6040518163ffffffff1660e01b8152600401602060405180830381865afa15801561064e573d6000803e3d6000fd5b505050506040513d601f19601f82011682018060405250810190610672919061131c565b6001600160a01b0316146106a45760405163245aecd360e01b81526001600160a01b038216600482015260240161055a565b60008a6001600160a01b031663e5a4bed36040518163ffffffff1660e01b8152600401602060405180830381865afa1580156106e4573d6000803e3d6000fd5b505050506040513d601f19601f820116820180604052508101906107089190611340565b90506000610716828c61138c565b6000546040516340c10f1960e01b8152306004820152602481018390529192506001600160a01b0316906340c10f1990604401600060405180830381600087803b15801561076357600080fd5b505af1158015610777573d6000803e3d6000fd5b5050604051631b8fec7360e11b815260048101849052600092506001600160a01b038f16915063371fd8e6906024016020604051808303816000875af11580156107c5573d6000803e3d6000fd5b505050506040513d601f19601f820116820180604052508101906107e99190611340565b60405163350c35e960e01b8152336004820152602481018d90529091506001600160a01b038e169063350c35e990604401600060405180830381600087803b15801561083457600080fd5b505af1158015610848573d6000803e3d6000fd5b505050506000891115610bfd5760008a6001600160a01b031663d8dfeb456040518163ffffffff1660e01b8152600401602060405180830381865afa158015610895573d6000803e3d6000fd5b505050506040513d601f19601f820116820180604052508101906108b9919061131c565b9050336001600160a01b03168b6001600160a01b0316638da5cb5b6040518163ffffffff1660e01b8152600401602060405180830381865afa158015610903573d6000803e3d6000fd5b505050506040513d601f19601f82011682018060405250810190610927919061131c565b6001600160a01b03161415806109ac57508a6001600160a01b0316634665096d6040518163ffffffff1660e01b8152600401602060405180830381865afa158015610976573d6000803e3d6000fd5b505050506040513d601f19601f8201168201806040525081019061099a91906113d4565b64ffffffffff168864ffffffffff1614155b15610b20576040516323b872dd60e01b8152336004820152306024820152604481018a90526001600160a01b038216906323b872dd906064016020604051808303816000875af1158015610a04573d6000803e3d6000fd5b505050506040513d601f19601f82011682018060405250810190610a2891906113f1565b50806001600160a01b031663095ea7b38c6001600160a01b031663365a86fc6040518163ffffffff1660e01b8152600401602060405180830381865afa158015610a76573d6000803e3d6000fd5b505050506040513d601f19601f82011682018060405250810190610a9a919061131c565b6040516001600160e01b031960e084901b1681526001600160a01b039091166004820152602481018c90526044016020604051808303816000875af1158015610ae7573d6000803e3d6000fd5b505050506040513d601f19601f82011682018060405250810190610b0b91906113f1565b50610b198b8f8b8d8c610df1565b9a50610bfb565b6040516323b872dd60e01b81523360048201526001600160a01b038c81166024830152604482018b90528216906323b872dd906064016020604051808303816000875af1158015610b75573d6000803e3d6000fd5b505050506040513d601f19601f82011682018060405250810190610b9991906113f1565b506040516340c10f1960e01b8152336004820152602481018b90526001600160a01b038c16906340c10f1990604401600060405180830381600087803b158015610be257600080fd5b505af1158015610bf6573d6000803e3d6000fd5b505050505b505b80821115610c92576000546001600160a01b031663a9059cbb33610c21848661139f565b6040516001600160e01b031960e085901b1681526001600160a01b03909216600483015260248201526044016020604051808303816000875af1158015610c6c573d6000803e3d6000fd5b505050506040513d601f19601f82011682018060405250810190610c9091906113f1565b505b60005460405163079cc67960e41b8152336004820152602481018490526001600160a01b03909116906379cc679090604401600060405180830381600087803b158015610cde57600080fd5b505af1158015610cf2573d6000803e3d6000fd5b505050507f55e5cd28d0d88fc606935f92ba07f962b3128ef5f60ba12a2b86620c38e5895f8d8c8e868e8d8f604051610d6f97969594939291906001600160a01b039788168152602081019690965260408601949094526060850192909252909316608083015260a082019290925260c081019190915260e00190565b60405180910390a150505050505050505050505050565b610ded8282836001600160a01b0316634665096d6040518163ffffffff1660e01b8152600401602060405180830381865afa158015610dc9573d6000803e3d6000fd5b505050506040513d601f19601f8201168201806040525081019061005491906113d4565b5050565b6000856001600160a01b031663365a86fc6040518163ffffffff1660e01b8152600401602060405180830381865afa158015610e31573d6000803e3d6000fd5b505050506040513d601f19601f82011682018060405250810190610e55919061131c565b6040516301ffc9a760e01b8152632464e41b60e21b60048201526001600160a01b0391909116906301ffc9a790602401602060405180830381865afa158015610ea2573d6000803e3d6000fd5b505050506040513d601f19601f82011682018060405250810190610ec691906113f1565b156110fe576000866001600160a01b031663365a86fc6040518163ffffffff1660e01b8152600401602060405180830381865afa158015610f0b573d6000803e3d6000fd5b505050506040513d601f19601f82011682018060405250810190610f2f919061131c565b6001600160a01b031663338c53716040518163ffffffff1660e01b8152600401602060405180830381865afa158015610f6c573d6000803e3d6000fd5b505050506040513d601f19601f82011682018060405250810190610f90919061131c565b60405163d8f2174760e01b81526001600160a01b038881166004830152919091169063d8f2174790602401602060405180830381865afa158015610fd8573d6000803e3d6000fd5b505050506040513d601f19601f82011682018060405250810190610ffc9190611340565b9050866001600160a01b031663365a86fc6040518163ffffffff1660e01b8152600401602060405180830381865afa15801561103c573d6000803e3d6000fd5b505050506040513d601f19601f82011682018060405250810190611060919061131c565b6040516324ea0e8960e21b81523360048201526001600160a01b038981166024830152604482018890526064820187905264ffffffffff8616608483015260a4820184905291909116906393a83a249060c4016020604051808303816000875af11580156110d2573d6000803e3d6000fd5b505050506040513d601f19601f820116820180604052508101906110f6919061131c565b9150506111f2565b856001600160a01b031663365a86fc6040518163ffffffff1660e01b8152600401602060405180830381865afa15801561113c573d6000803e3d6000fd5b505050506040513d601f19601f82011682018060405250810190611160919061131c565b604051634ec7f95360e11b81523360048201526001600160a01b038881166024830152604482018790526064820186905264ffffffffff851660848301529190911690639d8ff2a69060a4016020604051808303816000875af11580156111cb573d6000803e3d6000fd5b505050506040513d601f19601f820116820180604052508101906111ef919061131c565b90505b95945050505050565b6001600160a01b038116811461121057600080fd5b50565b64ffffffffff8116811461121057600080fd5b60008060006060848603121561123b57600080fd5b8335611246816111fb565b92506020840135611256816111fb565b9150604084013561126681611213565b809150509250925092565b600080600080600080600060e0888a03121561128c57600080fd5b8735611297816111fb565b9650602088013595506040880135945060608801356112b5816111fb565b93506080880135925060a0880135915060c08801356112d381611213565b8091505092959891949750929550565b600080604083850312156112f657600080fd5b8235611301816111fb565b91506020830135611311816111fb565b809150509250929050565b60006020828403121561132e57600080fd5b8151611339816111fb565b9392505050565b60006020828403121561135257600080fd5b5051919050565b634e487b7160e01b600052601160045260246000fd5b808202811582820484141761138657611386611359565b92915050565b8082018082111561138657611386611359565b8181038181111561138657611386611359565b6000826113cf57634e487b7160e01b600052601260045260246000fd5b500490565b6000602082840312156113e657600080fd5b815161133981611213565b60006020828403121561140357600080fd5b8151801515811461133957600080fdfea264697066735822122024bb2cf82e07769656dfc3767c022ea40d89d1b233dd08b6db7840687fac6b7264736f6c634300081a0033",
  "devdoc": {
    "kind": "dev",
    "methods": {
      "roll(address,uint256,uint256,address,uint256,uint256,uint40)": {
        "params": {
          "collDeposit": "The amount of collateral to be sent from msg.sender to the target position.",
          "collWithdraw": "Collateral to move from the source position to the msg.sender.",
          "expiration": "The desired expiration date for the target position.",
          "mint": "The amount to be minted from the target position using collateral from msg.sender.",
          "repay": "The amount of principal to repay from the source position using a flash loan, freeing up some or all collateral .",
          "source": "The source position, must be owned by the msg.sender.",
          "target": "The target position. If not owned by msg.sender or if it does not have the desired expiration,               it is cloned to create a position owned by the msg.sender."
        }
      }
    },
    "title": "PositionRoller Helper to roll over a debt from an old position to a new one. Both positions should have the same collateral. Otherwise, it does not make much sense.",
    "version": 1
  },
  "userdoc": {
    "kind": "user",
    "methods": {
      "roll(address,uint256,uint256,address,uint256,uint256,uint40)": {
        "notice": "Rolls the source position into the target position using a flash loan. Both the source and the target position must recognize this roller. It is the responsibility of the caller to ensure that both positions are valid contracts."
      },
      "rollFully(address,address)": {
        "notice": "Convenience method to roll an old position into a new one. Pre-condition: an allowance for the roller to spend the collateral asset on behalf of the caller, i.e., one should set collateral.approve(roller, collateral.balanceOf(sourcePosition)). The following is assumed: - If the limit of the target position permits, the user wants to roll everything. - The user does not want to add additional collateral, but excess collateral is returned. - If not enough can be minted in the new position, it is acceptable for the roller to use dEURO from the msg.sender."
      },
      "rollFullyWithExpiration(address,address,uint40)": {
        "notice": "Like rollFully, but with a custom expiration date for the new position."
      }
    },
    "version": 1
  },
  "storageLayout": {
    "storage": [
      {
        "astId": 13210,
        "contract": "contracts/MintingHubV2/PositionRoller.sol:PositionRoller",
        "label": "deuro",
        "offset": 0,
        "slot": "0",
        "type": "t_contract(IDecentralizedEURO)16705"
      }
    ],
    "types": {
      "t_contract(IDecentralizedEURO)16705": {
        "encoding": "inplace",
        "label": "contract IDecentralizedEURO",
        "numberOfBytes": "20"
      }
    }
  }
}