{
  "address": "0x5F57ae8222c1B8A56c808AF91a6D1171F1E0859A",
  "abi": [
    {
      "inputs": [
        {
          "internalType": "address",
          "name": "_parent",
          "type": "address"
        }
      ],
      "name": "clonePosition",
      "outputs": [
        {
          "internalType": "address",
          "name": "",
          "type": "address"
        }
      ],
      "stateMutability": "nonpayable",
      "type": "function"
    },
    {
      "inputs": [
        {
          "internalType": "address",
          "name": "_owner",
          "type": "address"
        },
        {
          "internalType": "address",
          "name": "_deuro",
          "type": "address"
        },
        {
          "internalType": "address",
          "name": "_collateral",
          "type": "address"
        },
        {
          "internalType": "uint256",
          "name": "_minCollateral",
          "type": "uint256"
        },
        {
          "internalType": "uint256",
          "name": "_initialLimit",
          "type": "uint256"
        },
        {
          "internalType": "uint40",
          "name": "_initPeriod",
          "type": "uint40"
        },
        {
          "internalType": "uint40",
          "name": "_duration",
          "type": "uint40"
        },
        {
          "internalType": "uint40",
          "name": "_challengePeriod",
          "type": "uint40"
        },
        {
          "internalType": "uint24",
          "name": "_riskPremiumPPM",
          "type": "uint24"
        },
        {
          "internalType": "uint256",
          "name": "_liqPrice",
          "type": "uint256"
        },
        {
          "internalType": "uint24",
          "name": "_reserve",
          "type": "uint24"
        }
      ],
      "name": "createNewPosition",
      "outputs": [
        {
          "internalType": "address",
          "name": "",
          "type": "address"
        }
      ],
      "stateMutability": "nonpayable",
      "type": "function"
    }
  ],
  "transactionHash": "0x09e5718dbfcc01687d23dc8a6d197fe008c552230cb131c4e1724116e34a787e",
  "args": [],
  "numDeployments": 5,
  "solcInputHash": "4a5a3784dacf73f644d615d19c184266",
  "bytecode": "0x6080604052348015600f57600080fd5b50613d348061001f6000396000f3fe608060405234801561001057600080fd5b50600436106100365760003560e01c80635d824f761461003b578063b3e891801461006a575b600080fd5b61004e61004936600461029e565b61007d565b6040516001600160a01b03909116815260200160405180910390f35b61004e61007836600461035b565b6100d9565b60008b338c8c8c8c8c8c8c8c8c8c6040516100979061024c565b6100ac9c9b9a9998979695949392919061037f565b604051809103906000f0801580156100c8573d6000803e3d6000fd5b509c9b505050505050505050505050565b600080829050806001600160a01b0316630e49d77e6040518163ffffffff1660e01b8152600401600060405180830381600087803b15801561011a57600080fd5b505af115801561012e573d6000803e3d6000fd5b50505050600061019e826001600160a01b03166346c715fa6040518163ffffffff1660e01b8152600401602060405180830381865afa158015610175573d6000803e3d6000fd5b505050506040513d601f19601f82011682018060405250810190610199919061040f565b6101a6565b949350505050565b6000808260601b9050604051733d602d80600a3d3981f3363d3d373d3d3d363d7360601b81528160148201526e5af43d82803e903d91602b57fd5bf360881b60288201526037816000f09250506001600160a01b0382166102465760405162461bcd60e51b8152602060048201526016602482015275115490cc4c4d8dce8818dc99585d194819985a5b195960521b604482015260640160405180910390fd5b50919050565b6138d28061042d83390190565b6001600160a01b038116811461026e57600080fd5b50565b803564ffffffffff8116811461028657600080fd5b919050565b803562ffffff8116811461028657600080fd5b60008060008060008060008060008060006101608c8e0312156102c057600080fd5b8b356102cb81610259565b9a5060208c01356102db81610259565b995060408c01356102eb81610259565b985060608c0135975060808c0135965061030760a08d01610271565b955061031560c08d01610271565b945061032360e08d01610271565b93506103326101008d0161028b565b92506101208c013591506103496101408d0161028b565b90509295989b509295989b9093969950565b60006020828403121561036d57600080fd5b813561037881610259565b9392505050565b6001600160a01b038d811682528c811660208301528b811660408301528a1660608201526080810189905260a0810188905264ffffffffff87811660c0830152861660e0820152610180810164ffffffffff861661010083015262ffffff8516610120830152836101408301526103fe61016083018462ffffff169052565b9d9c50505050505050505050505050565b60006020828403121561042157600080fd5b81516103788161025956fe6101c060405234801561001157600080fd5b506040516138d23803806138d2833981016040819052610030916103b5565b8b6001600160a01b03811661006057604051631e4fbdf760e01b8152600060048201526024015b60405180910390fd5b61006981610146565b506203f4808664ffffffffff16101561008157600080fd5b3060e0526001600160a01b038b8116610100528a81166101205289166101405262ffffff8084166101805281166101a05261016088905264ffffffffff841660a0526100cd864261049f565b64ffffffffff1660c08190526005805464ffffffffff1916821790556100f490869061049f565b6005805464ffffffffff92909216650100000000000264ffffffffff60281b19909216919091179055608087905261012c8288610196565b6101358361020b565b50505050505050505050505061056e565b600080546001600160a01b038381166001600160a01b0319831681178455604051919092169283917f8be0079c531659141344cd1fd0a4f28419497f9722a3daafe3b4186f6b6457e09190a35050565b60006101a06102fd565b90506101b4670de0b6b3a7640000836104c2565b6101be82856104c2565b11156102045782816101d8670de0b6b3a7640000856104c2565b6101e291906104d9565b6040516387ebe85d60e01b815260048101929092526024820152604401610057565b5050600155565b80610100516001600160a01b031663664e97046040518163ffffffff1660e01b8152600401602060405180830381865afa15801561024d573d6000803e3d6000fd5b505050506040513d601f19601f8201168201806040525081019061027191906104fb565b6001600160a01b03166306a7b3766040518163ffffffff1660e01b8152600401602060405180830381865afa1580156102ae573d6000803e3d6000fd5b505050506040513d601f19601f820116820180604052508101906102d2919061051f565b6102dc919061053a565b6005600b6101000a81548162ffffff021916908362ffffff16021790555050565b610140516040516370a0823160e01b81523060048201526000916001600160a01b0316906370a0823190602401602060405180830381865afa158015610347573d6000803e3d6000fd5b505050506040513d601f19601f8201168201806040525081019061036b9190610555565b905090565b6001600160a01b038116811461038557600080fd5b50565b805164ffffffffff8116811461039d57600080fd5b919050565b805162ffffff8116811461039d57600080fd5b6000806000806000806000806000806000806101808d8f0312156103d857600080fd5b8c516103e381610370565b60208e0151909c506103f481610370565b60408e0151909b5061040581610370565b60608e0151909a5061041681610370565b60808e015160a08f0151919a509850965061043360c08e01610388565b955061044160e08e01610388565b94506104506101008e01610388565b935061045f6101208e016103a2565b6101408e015190935091506104776101608e016103a2565b90509295989b509295989b509295989b565b634e487b7160e01b600052601160045260246000fd5b64ffffffffff81811683821601908111156104bc576104bc610489565b92915050565b80820281158282048414176104bc576104bc610489565b6000826104f657634e487b7160e01b600052601260045260246000fd5b500490565b60006020828403121561050d57600080fd5b815161051881610370565b9392505050565b60006020828403121561053157600080fd5b610518826103a2565b62ffffff81811683821601908111156104bc576104bc610489565b60006020828403121561056757600080fd5b5051919050565b60805160a05160c05160e05161010051610120516101405161016051610180516101a05161317661075c600039600081816103a901528181610d25015281816117c30152818161180901528181611a7a01528181611fa601528181612122015281816126e40152612b7a0152600081816104bc01526125fe0152600081816105f7015281816119d601528181611d8c0152612a75015260008181610691015281816114e801528181611ba901528181611d0f0152611e1f0152600081816105500152818161083f01528181610ae201528181610c2801528181610cc601528181610da2015281816111bb01528181611af901528181611eb201528181611f750152818161209801528181612149015281816126b10152612b490152600081816103570152818161098a01528181610a1b01528181610f220152818161101f0152818161111101528181611197015281816112740152818161149a015281816116c30152818161194901528181611ad5015281816122c20152818161235001526127a701526000818161042e01528181610e0d01528181610e62015281816112f201528181612219015261263801526000818161061e01526107f80152600081816106fc0152610efb0152600081816105ac01528181610e3c015281816118c3015261190401526131766000f3fe608060405234801561001057600080fd5b50600436106102a05760003560e01c8063787a08a611610167578063babe7c74116100ce578063d8dfeb4511610087578063d8dfeb451461068c578063d9caed12146106b3578063e5a4bed3146106c6578063f2fde38b146106ce578063f37c2ecf146106e1578063f3f480d9146106f757600080fd5b8063babe7c74146105f2578063be9a655514610619578063c2b6b58c14610640578063c392f7661461065d578063c54a89ca14610666578063cfb636f01461067957600080fd5b80639de2f796116101205780639de2f7961461058b578063a035b1fe1461059e578063a4d66daf146105a7578063a8a3e31d146105ce578063b8e2426c146105d6578063ba5d3078146105e957600080fd5b8063787a08a6146104de5780637b3baab4146104ef5780637ccd4f711461050057806382b8eaf51461054b5780638da5cb5b146105725780638ea875f31461058357600080fd5b80633a7c29fb1161020b5780635be980f5116101c45780635be980f5146104635780636d4749fa146104765780636f871cec14610489578063715018a61461049c57806372bf079e146104a4578063730d48b7146104b757600080fd5b80633a7c29fb146103a45780633df01eb2146103df57806340c10f19146103e85780634665096d146103fb57806346c715fa1461042957806349746f101461045057600080fd5b806329d93d671161025d57806329d93d671461030c5780632a37eeae14610314578063329864aa1461031c578063350c35e91461033f578063365a86fc14610352578063371fd8e61461039157600080fd5b80630e49d77e146102a557806314a6bf0f146102af5780631bbea34c146102ca5780631dbcff26146102dd578063211d7983146102f057806324e657fe14610303575b600080fd5b6102ad61071e565b005b6102b76107e7565b6040519081526020015b60405180910390f35b6102ad6102d8366004612ccb565b6107f6565b6102ad6102eb366004612d83565b61097f565b6102ad6102fe366004612daf565b610a10565b6102b760035481565b6102b7610de7565b6102b7610e01565b610324610ee2565b6040805192835264ffffffffff9091166020830152016102c1565b6102ad61034d366004612d83565b610f20565b6103797f000000000000000000000000000000000000000000000000000000000000000081565b6040516001600160a01b0390911681526020016102c1565b6102b761039f366004612de4565b610fce565b6103cb7f000000000000000000000000000000000000000000000000000000000000000081565b60405162ffffff90911681526020016102c1565b6102b760045481565b6102ad6103f6366004612d83565b61101d565b60055461041390600160281b900464ffffffffff1681565b60405164ffffffffff90911681526020016102c1565b6103797f000000000000000000000000000000000000000000000000000000000000000081565b6102ad61045e366004612de4565b611106565b6102ad610471366004612de4565b61117a565b6102ad610484366004612e10565b611269565b6102ad610497366004612e49565b6114c2565b6102ad611651565b6102ad6104b2366004612de4565b611663565b6103cb7f000000000000000000000000000000000000000000000000000000000000000081565b6005546104139064ffffffffff1681565b6008546104139064ffffffffff1681565b61051361050e366004612de4565b6116b2565b604080516001600160a01b039096168652602086019490945292840191909152606083015263ffffffff16608082015260a0016102c1565b6103797f000000000000000000000000000000000000000000000000000000000000000081565b6000546001600160a01b0316610379565b6102b76117ef565b6102b7610599366004612de4565b6117fc565b6102b760015481565b6102b77f000000000000000000000000000000000000000000000000000000000000000081565b6102b7611872565b6102ad6105e4366004612e75565b61193e565b6102b760065481565b6102b77f000000000000000000000000000000000000000000000000000000000000000081565b6104137f000000000000000000000000000000000000000000000000000000000000000081565b600554600160501b900460ff1660405190151581526020016102c1565b6102b760075481565b6102b7610674366004612de4565b611a6f565b6102ad610687366004612de4565b611ab8565b6103797f000000000000000000000000000000000000000000000000000000000000000081565b6102ad6106c1366004612e97565b611b9f565b6102b7611c85565b6102ad6106dc366004612ed8565b611c8f565b6005546103cb90600160581b900462ffffff1681565b6104137f000000000000000000000000000000000000000000000000000000000000000081565b6003541561073f5760405163d26e2de960e01b815260040160405180910390fd5b60055464ffffffffff16421161076857604051631c02820f60e21b815260040160405180910390fd5b600554600160281b900464ffffffffff1642106107ba576005546040516238ddd760e41b815264ffffffffff4281166004830152600160281b9092049190911660248201526044015b60405180910390fd5b600554600160501b900460ff16156107e557604051631cdde67b60e01b815260040160405180910390fd5b565b60006107f1611cca565b905090565b7f000000000000000000000000000000000000000000000000000000000000000064ffffffffff16421061083d5760405163ecdd1c2960e01b815260040160405180910390fd5b7f00000000000000000000000000000000000000000000000000000000000000006001600160a01b031663cd3293de6040518163ffffffff1660e01b8152600401602060405180830381865afa15801561089b573d6000803e3d6000fd5b505050506040513d601f19601f820116820180604052508101906108bf9190612ef5565b6001600160a01b031663352e3a833386866040518463ffffffff1660e01b81526004016108ee93929190612f12565b60006040518083038186803b15801561090657600080fd5b505afa15801561091a573d6000803e3d6000fd5b505050506109366005805460ff60501b1916600160501b179055565b336001600160a01b03167faca80c800ec0d2aa9d9d31b7f886a1dd3067d4676abc637626a18ffb9381653d8383604051610971929190612f70565b60405180910390a250505050565b336001600160a01b037f000000000000000000000000000000000000000000000000000000000000000016146109c8576040516313bd2e8360e31b815260040160405180910390fd5b60006109d48383611ce1565b600154600654604080518481526020810193909352820152909150600080516020613121833981519152906060015b60405180910390a1505050565b336001600160a01b037f00000000000000000000000000000000000000000000000000000000000000001614610a59576040516313bd2e8360e31b815260040160405180910390fd5b600554600160281b900464ffffffffff16421015610a8a576040516302de694d60e41b815260040160405180910390fd5b60035415610aab5760405163d26e2de960e01b815260040160405180910390fd5b6000610ab5611dd1565b600654610ac29190612fb5565b90506000610ad08585611ce1565b905081600003610bde578215610b9c577f00000000000000000000000000000000000000000000000000000000000000006001600160a01b03166323b872dd86610b226000546001600160a01b031690565b6040516001600160e01b031960e085901b1681526001600160a01b03928316600482015291166024820152604481018690526064016020604051808303816000875af1158015610b76573d6000803e3d6000fd5b505050506040513d601f19601f82011682018060405250810190610b9a9190612fc8565b505b600080516020613121833981519152610bb3611e07565b6001546006546040805193845260208401929092529082015260600160405180910390a15050505050565b610be88584611e6e565b9250610bf48584611f31565b925080158015610c1357506000600754600654610c119190612fb5565b115b15610d9a578215610c2657610c26612fea565b7f00000000000000000000000000000000000000000000000000000000000000006001600160a01b031663d1fa5e9830600754600654610c669190612fb5565b6040516001600160e01b031960e085901b1681526001600160a01b0390921660048301526024820152604401600060405180830381600087803b158015610cac57600080fd5b505af1158015610cc0573d6000803e3d6000fd5b505050507f00000000000000000000000000000000000000000000000000000000000000006001600160a01b031663c7641866600754600654610d039190612fb5565b6040516001600160e01b031960e084901b168152600481019190915262ffffff7f0000000000000000000000000000000000000000000000000000000000000000166024820152604401600060405180830381600087803b158015610d6757600080fd5b505af1158015610d7b573d6000803e3d6000fd5b50505050610d8a6006546121d0565b610d9560075461228f565b610b9c565b8215610b9c577f00000000000000000000000000000000000000000000000000000000000000006001600160a01b03166323b872dd86610b226000546001600160a01b031690565b505050565b60006107f1610df4611dd1565b60065461039f9190612fb5565b60006001600160a01b037f0000000000000000000000000000000000000000000000000000000000000000163003610e60576002546107f1907f0000000000000000000000000000000000000000000000000000000000000000613000565b7f00000000000000000000000000000000000000000000000000000000000000006001600160a01b031663a8a3e31d6040518163ffffffff1660e01b8152600401602060405180830381865afa158015610ebe573d6000803e3d6000fd5b505050506040513d601f19601f820116820180604052508101906107f19190613013565b600080610ef8610ef0611e07565b6001546123c7565b927f000000000000000000000000000000000000000000000000000000000000000092509050565b7f00000000000000000000000000000000000000000000000000000000000000006001600160a01b031663f09e9e3a6040518163ffffffff1660e01b8152600401602060405180830381865afa158015610f7e573d6000803e3d6000fd5b505050506040513d601f19601f82011682018060405250810190610fa29190612ef5565b6001600160a01b0316336001600160a01b031614610fc257610fc2612422565b60006109d4838361244f565b600080610fda836124b6565b9050600080516020613121833981519152610ff3611e07565b6001546006546040805193845260208401929092529082015260600160405180910390a192915050565b7f00000000000000000000000000000000000000000000000000000000000000006001600160a01b031663f09e9e3a6040518163ffffffff1660e01b8152600401602060405180830381865afa15801561107b573d6000803e3d6000fd5b505050506040513d601f19601f8201168201806040525081019061109f9190612ef5565b6001600160a01b0316336001600160a01b0316146110bf576110bf612422565b60006110c9611e07565b90506110d68383836124f4565b60015460065460408051848152602081019390935282015260008051602061312183398151915290606001610a03565b336001600160a01b037f0000000000000000000000000000000000000000000000000000000000000000161461114f576040516313bd2e8360e31b815260040160405180910390fd5b80600360008282546111619190613000565b9091555050600060045561117762015180612763565b50565b60405163aa5dd7f160e01b81523360048201526001600160a01b037f00000000000000000000000000000000000000000000000000000000000000008116917f00000000000000000000000000000000000000000000000000000000000000009091169063aa5dd7f190602401602060405180830381865afa158015611204573d6000803e3d6000fd5b505050506040513d601f19601f820116820180604052508101906112289190612ef5565b6001600160a01b03161461124f576040516313bd2e8360e31b815260040160405180910390fd5b80600260008282546112619190613000565b909155505050565b336001600160a01b037f000000000000000000000000000000000000000000000000000000000000000016146112b2576040516313bd2e8360e31b815260040160405180910390fd5b600554600160281b900464ffffffffff16156112e05760405162dc149f60e41b815260040160405180910390fd5b428164ffffffffff16108061138357507f00000000000000000000000000000000000000000000000000000000000000006001600160a01b0316634665096d6040518163ffffffff1660e01b8152600401602060405180830381865afa15801561134e573d6000803e3d6000fd5b505050506040513d601f19601f82011682018060405250810190611372919061302c565b64ffffffffff168164ffffffffff16115b156113a157604051637d9533a960e11b815260040160405180910390fd5b806005806101000a81548164ffffffffff021916908364ffffffffff160217905550816001600160a01b031663a035b1fe6040518163ffffffff1660e01b8152600401602060405180830381865afa158015611401573d6000803e3d6000fd5b505050506040513d601f19601f820116820180604052508101906114259190613013565b600181905550611495826001600160a01b031663730d48b76040518163ffffffff1660e01b8152600401602060405180830381865afa15801561146c573d6000803e3d6000fd5b505050506040513d601f19601f820116820180604052508101906114909190613049565b6127a4565b6114be7f00000000000000000000000000000000000000000000000000000000000000006128b3565b5050565b6114ca612422565b60006114d4611e07565b905080831115611593576001600160a01b037f0000000000000000000000000000000000000000000000000000000000000000166323b872dd33306115198588613000565b6040516001600160e01b031960e086901b1681526001600160a01b03938416600482015292909116602483015260448201526064016020604051808303816000875af115801561156d573d6000803e3d6000fd5b505050506040513d601f19601f820116820180604052508101906115919190612fc8565b505b6006548410156115cb5760006115a7611dd1565b6006546115b49190612fb5565b90506115c86115c38683613000565b6124b6565b50505b808310156115e8576115e6336115e18584613000565b61244f565b505b60065484111561160a5761160a33600654866116049190613000565b856124f4565b600154821461161c5761161c82612903565b60408051848152602081018490529081018590526000805160206131218339815191529060600160405180910390a150505050565b611659612422565b6107e560006128b3565b61166b612422565b61167481612903565b60008051602061312183398151915261168b611e07565b6001546006546040805193845260208401929092529082015260600160405180910390a150565b600080808080336001600160a01b037f00000000000000000000000000000000000000000000000000000000000000001614611701576040516313bd2e8360e31b815260040160405180910390fd5b611709611dd1565b50856003600082825461171c9190613000565b909155506000905061172c611e07565b90508681101561173a578096505b60008115611760578188600754611751919061306e565b61175b9190613085565b611763565b60005b90506000821561178b57828960065461177c919061306e565b6117869190613085565b61178e565b60005b90506117998261228f565b6117a2816121d0565b6117ae6203f480612763565b6000546001600160a01b0316999097509095507f000000000000000000000000000000000000000000000000000000000000000062ffffff16945092505050565b60006107f1610ef0611e07565b60008115611869576118317f0000000000000000000000000000000000000000000000000000000000000000620f42406130a7565b62ffffff16600161184584620f424061306e565b61184f9190613000565b6118599190613085565b611864906001612fb5565b61186c565b60005b92915050565b600080670de0b6b3a7640000600154611889611e07565b611893919061306e565b61189d9190613085565b9050600081600654116118bc576006546118b79083613000565b6118bf565b60005b90507f0000000000000000000000000000000000000000000000000000000000000000816002546118f09190612fb5565b106118fe5760009250505090565b806002547f000000000000000000000000000000000000000000000000000000000000000061192d9190613000565b6119379190613000565b9250505090565b336001600160a01b037f00000000000000000000000000000000000000000000000000000000000000001614611987576040516313bd2e8360e31b815260040160405180910390fd5b600554600160281b900464ffffffffff1642106119d4576005546040516238ddd760e41b815264ffffffffff4281166004830152600160281b9092049190911660248201526044016107b1565b7f000000000000000000000000000000000000000000000000000000000000000082108015611a095750611a06611e07565b82105b15611a2757604051633c80636b60e21b815260040160405180910390fd5b81600003611a4857604051633c80636b60e21b815260040160405180910390fd5b8160036000828254611a5a9190612fb5565b90915550506004546000036114be5760045550565b6000620f4240611a9f7f0000000000000000000000000000000000000000000000000000000000000000826130a7565b611aae9062ffffff168461306e565b61186c9190613085565b60405163aa5dd7f160e01b81523360048201526001600160a01b037f00000000000000000000000000000000000000000000000000000000000000008116917f00000000000000000000000000000000000000000000000000000000000000009091169063aa5dd7f190602401602060405180830381865afa158015611b42573d6000803e3d6000fd5b505050506040513d601f19601f82011682018060405250810190611b669190612ef5565b6001600160a01b031614611b8d576040516313bd2e8360e31b815260040160405180910390fd5b80600260008282546112619190612fb5565b611ba7612422565b7f00000000000000000000000000000000000000000000000000000000000000006001600160a01b0316836001600160a01b031603611bea57610de28282610f20565b6000611bf4611e07565b60405163a9059cbb60e01b81526001600160a01b038581166004830152602482018590529192509085169063a9059cbb906044016020604051808303816000875af1158015611c47573d6000803e3d6000fd5b505050506040513d601f19601f82011682018060405250810190611c6b9190612fc8565b50611c74611e07565b8114611c7f57600080fd5b50505050565b60006107f16129e6565b611c97612422565b6001600160a01b038116611cc157604051631e4fbdf760e01b8152600060048201526024016107b1565b611177816128b3565b6000611cd46129e6565b6006546107f19190612fb5565b60008115611d7e5760405163a9059cbb60e01b81526001600160a01b038481166004830152602482018490527f0000000000000000000000000000000000000000000000000000000000000000169063a9059cbb906044016020604051808303816000875af1158015611d58573d6000803e3d6000fd5b505050506040513d601f19601f82011682018060405250810190611d7c9190612fc8565b505b6000611d88611e07565b90507f0000000000000000000000000000000000000000000000000000000000000000811015611dca57611dca6005805460ff60501b1916600160501b179055565b9392505050565b6000611ddb6129e6565b9050600754811115611ded5760078190555b6008805464ffffffffff19164264ffffffffff1617905590565b6040516370a0823160e01b81523060048201526000907f00000000000000000000000000000000000000000000000000000000000000006001600160a01b0316906370a0823190602401602060405180830381865afa158015610ebe573d6000803e3d6000fd5b6000808260075411611e8257600754611e84565b825b90508015611f295760405163375edc7760e11b81526001600160a01b038581166004830152602482018390527f00000000000000000000000000000000000000000000000000000000000000001690636ebdb8ee90604401600060405180830381600087803b158015611ef657600080fd5b505af1158015611f0a573d6000803e3d6000fd5b50505050611f178161228f565b611f218184613000565b91505061186c565b509092915050565b6000806006548311611f435782611f47565b6006545b90508015611f29576000611f5c600654611a6f565b90506000828211611f6d5781611f6f565b825b905060007f00000000000000000000000000000000000000000000000000000000000000006001600160a01b0316631aeea54688847f00000000000000000000000000000000000000000000000000000000000000006040518463ffffffff1660e01b8152600401611fe3939291906130c2565b6020604051808303816000875af1158015612002573d6000803e3d6000fd5b505050506040513d601f19601f820116820180604052508101906120269190613013565b9050612031816121d0565b61203b8287613000565b9550600060065411801561204f5750600086115b156121c457600060065487116120655786612069565b6006545b6040516323b872dd60e01b81526001600160a01b038a81166004830152306024830152604482018390529192507f0000000000000000000000000000000000000000000000000000000000000000909116906323b872dd906064016020604051808303816000875af11580156120e3573d6000803e3d6000fd5b505050506040513d601f19601f820116820180604052508101906121079190612fc8565b506040516363b20c3360e11b81526004810182905262ffffff7f00000000000000000000000000000000000000000000000000000000000000001660248201527f00000000000000000000000000000000000000000000000000000000000000006001600160a01b03169063c764186690604401600060405180830381600087803b15801561219557600080fd5b505af11580156121a9573d6000803e3d6000fd5b505050506121b6816121d0565b6121c08188613000565b9650505b8594505050505061186c565b600654811115612203576006546121e79082613000565b604051635795d46960e11b81526004016107b191815260200190565b604051635be980f560e01b8152600481018290527f00000000000000000000000000000000000000000000000000000000000000006001600160a01b031690635be980f590602401600060405180830381600087803b15801561226557600080fd5b505af1158015612279573d6000803e3d6000fd5b5050505080600660008282546112619190613000565b6007548111156122a6576007546121e79082613000565b6040516301ffc9a760e01b8152632464e41b60e21b60048201527f00000000000000000000000000000000000000000000000000000000000000006001600160a01b0316906301ffc9a790602401602060405180830381865afa158015612311573d6000803e3d6000fd5b505050506040513d601f19601f820116820180604052508101906123359190612fc8565b156123b557604051637d0ea02d60e01b8152600481018290527f00000000000000000000000000000000000000000000000000000000000000006001600160a01b031690637d0ea02d90602401600060405180830381600087803b15801561239c57600080fd5b505af11580156123b0573d6000803e3d6000fd5b505050505b80600760008282546112619190613000565b600454600090156123db575060045461186c565b826000036123ea57508061186c565b600083670de0b6b3a76400006123fe611cca565b612408919061306e565b6124129190613085565b9050828110611f29579392505050565b6000546001600160a01b031633146107e55760405163118cdaa760e01b81523360048201526024016107b1565b600354600090156124735760405163d26e2de960e01b815260040160405180910390fd5b60055464ffffffffff16421161249c57604051631c02820f60e21b815260040160405180910390fd5b60006124a88484611ce1565b9050611dca81600154612a71565b60006124c0611dd1565b50816000036124d157506000919050565b816124dc3382611e6e565b90506124e83382612b11565b9050611dca8184613000565b600354156125155760405163d26e2de960e01b815260040160405180910390fd5b60055464ffffffffff16421161253e57604051631c02820f60e21b815260040160405180910390fd5b600554600160281b900464ffffffffff16421061258b576005546040516238ddd760e41b815264ffffffffff4281166004830152600160281b9092049190911660248201526044016107b1565b600554600160501b900460ff16156125b657604051631cdde67b60e01b815260040160405180910390fd5b6125be610e01565b8211156125f057816125ce610e01565b604051634779077960e11b8152600481019290925260248201526044016107b1565b6125f8611dd1565b506126227f00000000000000000000000000000000000000000000000000000000000000006127a4565b604051630cfb636f60e41b8152600481018390527f00000000000000000000000000000000000000000000000000000000000000006001600160a01b03169063cfb636f090602401600060405180830381600087803b15801561268457600080fd5b505af1158015612698573d6000803e3d6000fd5b505060405163165203b760e31b81526001600160a01b037f000000000000000000000000000000000000000000000000000000000000000016925063b2901db8915061270c90869086907f0000000000000000000000000000000000000000000000000000000000000000906004016130c2565b600060405180830381600087803b15801561272657600080fd5b505af115801561273a573d6000803e3d6000fd5b5050505081600660008282546127509190612fb5565b92505081905550610de281600154612a71565b600061276f82426130e8565b60055490915064ffffffffff90811690821611156114be576005805464ffffffffff831664ffffffffff199091161790555050565b807f00000000000000000000000000000000000000000000000000000000000000006001600160a01b031663664e97046040518163ffffffff1660e01b8152600401602060405180830381865afa158015612803573d6000803e3d6000fd5b505050506040513d601f19601f820116820180604052508101906128279190612ef5565b6001600160a01b03166306a7b3766040518163ffffffff1660e01b8152600401602060405180830381865afa158015612864573d6000803e3d6000fd5b505050506040513d601f19601f820116820180604052508101906128889190613049565b6128929190613105565b6005600b6101000a81548162ffffff021916908362ffffff16021790555050565b600080546001600160a01b038381166001600160a01b0319831681178455604051919092169283917f8be0079c531659141344cd1fd0a4f28419497f9722a3daafe3b4186f6b6457e09190a35050565b600354156129245760405163d26e2de960e01b815260040160405180910390fd5b600554600160281b900464ffffffffff164210612971576005546040516238ddd760e41b815264ffffffffff4281166004830152600160281b9092049190911660248201526044016107b1565b600554600160501b900460ff161561299c57604051631cdde67b60e01b815260040160405180910390fd5b6001548111156129b7576129b26203f480612763565b6129c8565b6129c86129c2611e07565b82612a71565b611177816129d4610e01565b6006546129e19190612fb5565b612c0d565b600754600854429064ffffffffff1681118015612a0557506000600654115b15612a6d57600854600090612a219064ffffffffff1683613000565b9050651cae8c13e000816005600b9054906101000a900462ffffff1662ffffff16600654612a4f919061306e565b612a59919061306e565b612a639190613085565b6119379084612fb5565b5090565b60007f00000000000000000000000000000000000000000000000000000000000000008310612aa05782612aa3565b60005b90506000612aaf611cca565b9050612ac3670de0b6b3a76400008261306e565b612acd848461306e565b1015611c7f57612add838361306e565b612aef670de0b6b3a76400008361306e565b604051632c1f8ef160e21b8152600481019290925260248201526044016107b1565b6000808260065411612b2557600654612b27565b825b90508015611f29576040516318af9f3960e11b81526000906001600160a01b037f0000000000000000000000000000000000000000000000000000000000000000169063315f3e7290612ba290889086907f0000000000000000000000000000000000000000000000000000000000000000906004016130c2565b6020604051808303816000875af1158015612bc1573d6000803e3d6000fd5b505050506040513d601f19601f82011682018060405250810190612be59190613013565b9050612bf0826121d0565b612bfa8183613000565b612c049085613000565b9250505061186c565b6000612c17611e07565b9050612c2b670de0b6b3a76400008361306e565b612c35828561306e565b1115612c7b578281612c4f670de0b6b3a76400008561306e565b612c599190613085565b6040516387ebe85d60e01b8152600481019290925260248201526044016107b1565b5050600155565b60008083601f840112612c9457600080fd5b50813567ffffffffffffffff811115612cac57600080fd5b602083019150836020828501011115612cc457600080fd5b9250929050565b60008060008060408587031215612ce157600080fd5b843567ffffffffffffffff811115612cf857600080fd5b8501601f81018713612d0957600080fd5b803567ffffffffffffffff811115612d2057600080fd5b8760208260051b8401011115612d3557600080fd5b60209182019550935085013567ffffffffffffffff811115612d5657600080fd5b612d6287828801612c82565b95989497509550505050565b6001600160a01b038116811461117757600080fd5b60008060408385031215612d9657600080fd5b8235612da181612d6e565b946020939093013593505050565b600080600060608486031215612dc457600080fd5b8335612dcf81612d6e565b95602085013595506040909401359392505050565b600060208284031215612df657600080fd5b5035919050565b64ffffffffff8116811461117757600080fd5b60008060408385031215612e2357600080fd5b8235612e2e81612d6e565b91506020830135612e3e81612dfd565b809150509250929050565b600080600060608486031215612e5e57600080fd5b505081359360208301359350604090920135919050565b60008060408385031215612e8857600080fd5b50508035926020909101359150565b600080600060608486031215612eac57600080fd5b8335612eb781612d6e565b92506020840135612ec781612d6e565b929592945050506040919091013590565b600060208284031215612eea57600080fd5b8135611dca81612d6e565b600060208284031215612f0757600080fd5b8151611dca81612d6e565b6001600160a01b0384168152604060208201819052810182905260008360608301825b85811015612f65578235612f4881612d6e565b6001600160a01b0316825260209283019290910190600101612f35565b509695505050505050565b60208152816020820152818360408301376000818301604090810191909152601f909201601f19160101919050565b634e487b7160e01b600052601160045260246000fd5b8082018082111561186c5761186c612f9f565b600060208284031215612fda57600080fd5b81518015158114611dca57600080fd5b634e487b7160e01b600052600160045260246000fd5b8181038181111561186c5761186c612f9f565b60006020828403121561302557600080fd5b5051919050565b60006020828403121561303e57600080fd5b8151611dca81612dfd565b60006020828403121561305b57600080fd5b815162ffffff81168114611dca57600080fd5b808202811582820484141761186c5761186c612f9f565b6000826130a257634e487b7160e01b600052601260045260246000fd5b500490565b62ffffff828116828216039081111561186c5761186c612f9f565b6001600160a01b03939093168352602083019190915262ffffff16604082015260600190565b64ffffffffff818116838216019081111561186c5761186c612f9f565b62ffffff818116838216019081111561186c5761186c612f9f56fe9483a26ad376f30b5199a79e75df3bb05158c4ee32a348f53e83245a5e50c86ea2646970667358221220d8888469b90fc84bbdcf217de231f02b83b0abb0eb6a12731fd8ba48dea5638064736f6c634300081a0033a2646970667358221220fa4705e72de8a44d474c27bafd3c16e77f12f277560cac941b8ce6a6549e799a64736f6c634300081a0033",
  "devdoc": {
    "kind": "dev",
    "methods": {
      "clonePosition(address)": {
        "params": {
          "_parent": "address of the position we want to clone"
        },
        "returns": {
          "_0": "address of the newly created clone position"
        }
      }
    },
    "version": 1
  },
  "userdoc": {
    "kind": "user",
    "methods": {
      "clonePosition(address)": {
        "notice": "Clone an existing position. This can be a clone of another clone, or an original position."
      },
      "createNewPosition(address,address,address,uint256,uint256,uint40,uint40,uint40,uint24,uint256,uint24)": {
        "notice": "Create a completely new position in a newly deployed contract. Must be called through the minting hub to be recognized as a valid position."
      }
    },
    "version": 1
  },
  "storageLayout": {
    "storage": [],
    "types": null
  }
}