{
  "address": "0x7C82b33251eb78480E6Ca8536D4B9BD4e537cA56",
  "abi": [
    {
      "inputs": [
        {
          "internalType": "contract IDecentralizedEURO",
          "name": "deuro_",
          "type": "address"
        },
        {
          "internalType": "uint24",
          "name": "initialRatePPM",
          "type": "uint24"
        },
        {
          "internalType": "address",
          "name": "gateway_",
          "type": "address"
        }
      ],
      "stateMutability": "nonpayable",
      "type": "constructor"
    },
    {
      "inputs": [],
      "name": "ChangeNotReady",
      "type": "error"
    },
    {
      "inputs": [],
      "name": "ModuleDisabled",
      "type": "error"
    },
    {
      "inputs": [],
      "name": "NoPendingChange",
      "type": "error"
    },
    {
      "inputs": [],
      "name": "NotGateway",
      "type": "error"
    },
    {
      "anonymous": false,
      "inputs": [
        {
          "indexed": true,
          "internalType": "address",
          "name": "account",
          "type": "address"
        },
        {
          "indexed": false,
          "internalType": "uint256",
          "name": "interest",
          "type": "uint256"
        }
      ],
      "name": "InterestCollected",
      "type": "event"
    },
    {
      "anonymous": false,
      "inputs": [
        {
          "indexed": false,
          "internalType": "uint24",
          "name": "newRate",
          "type": "uint24"
        }
      ],
      "name": "RateChanged",
      "type": "event"
    },
    {
      "anonymous": false,
      "inputs": [
        {
          "indexed": false,
          "internalType": "address",
          "name": "who",
          "type": "address"
        },
        {
          "indexed": false,
          "internalType": "uint24",
          "name": "nextRate",
          "type": "uint24"
        },
        {
          "indexed": false,
          "internalType": "uint40",
          "name": "nextChange",
          "type": "uint40"
        }
      ],
      "name": "RateProposed",
      "type": "event"
    },
    {
      "anonymous": false,
      "inputs": [
        {
          "indexed": true,
          "internalType": "address",
          "name": "account",
          "type": "address"
        },
        {
          "indexed": false,
          "internalType": "uint192",
          "name": "amount",
          "type": "uint192"
        }
      ],
      "name": "Saved",
      "type": "event"
    },
    {
      "anonymous": false,
      "inputs": [
        {
          "indexed": true,
          "internalType": "address",
          "name": "account",
          "type": "address"
        },
        {
          "indexed": false,
          "internalType": "uint192",
          "name": "amount",
          "type": "uint192"
        }
      ],
      "name": "Withdrawn",
      "type": "event"
    },
    {
      "inputs": [],
      "name": "GATEWAY",
      "outputs": [
        {
          "internalType": "contract IFrontendGateway",
          "name": "",
          "type": "address"
        }
      ],
      "stateMutability": "view",
      "type": "function"
    },
    {
      "inputs": [
        {
          "internalType": "address",
          "name": "accountOwner",
          "type": "address"
        }
      ],
      "name": "accruedInterest",
      "outputs": [
        {
          "internalType": "uint192",
          "name": "",
          "type": "uint192"
        }
      ],
      "stateMutability": "view",
      "type": "function"
    },
    {
      "inputs": [
        {
          "internalType": "address",
          "name": "accountOwner",
          "type": "address"
        },
        {
          "internalType": "uint256",
          "name": "timestamp",
          "type": "uint256"
        }
      ],
      "name": "accruedInterest",
      "outputs": [
        {
          "internalType": "uint192",
          "name": "",
          "type": "uint192"
        }
      ],
      "stateMutability": "view",
      "type": "function"
    },
    {
      "inputs": [
        {
          "internalType": "uint192",
          "name": "targetAmount",
          "type": "uint192"
        }
      ],
      "name": "adjust",
      "outputs": [],
      "stateMutability": "nonpayable",
      "type": "function"
    },
    {
      "inputs": [
        {
          "internalType": "address",
          "name": "owner",
          "type": "address"
        },
        {
          "internalType": "uint192",
          "name": "targetAmount",
          "type": "uint192"
        }
      ],
      "name": "adjustFor",
      "outputs": [],
      "stateMutability": "nonpayable",
      "type": "function"
    },
    {
      "inputs": [],
      "name": "applyChange",
      "outputs": [],
      "stateMutability": "nonpayable",
      "type": "function"
    },
    {
      "inputs": [
        {
          "components": [
            {
              "internalType": "uint192",
              "name": "saved",
              "type": "uint192"
            },
            {
              "internalType": "uint64",
              "name": "ticks",
              "type": "uint64"
            }
          ],
          "internalType": "struct Savings.Account",
          "name": "account",
          "type": "tuple"
        },
        {
          "internalType": "uint64",
          "name": "ticks",
          "type": "uint64"
        }
      ],
      "name": "calculateInterest",
      "outputs": [
        {
          "internalType": "uint192",
          "name": "",
          "type": "uint192"
        }
      ],
      "stateMutability": "view",
      "type": "function"
    },
    {
      "inputs": [],
      "name": "currentRatePPM",
      "outputs": [
        {
          "internalType": "uint24",
          "name": "",
          "type": "uint24"
        }
      ],
      "stateMutability": "view",
      "type": "function"
    },
    {
      "inputs": [],
      "name": "currentTicks",
      "outputs": [
        {
          "internalType": "uint64",
          "name": "",
          "type": "uint64"
        }
      ],
      "stateMutability": "view",
      "type": "function"
    },
    {
      "inputs": [],
      "name": "deuro",
      "outputs": [
        {
          "internalType": "contract IERC20",
          "name": "",
          "type": "address"
        }
      ],
      "stateMutability": "view",
      "type": "function"
    },
    {
      "inputs": [],
      "name": "equity",
      "outputs": [
        {
          "internalType": "contract IReserve",
          "name": "",
          "type": "address"
        }
      ],
      "stateMutability": "view",
      "type": "function"
    },
    {
      "inputs": [],
      "name": "nextChange",
      "outputs": [
        {
          "internalType": "uint40",
          "name": "",
          "type": "uint40"
        }
      ],
      "stateMutability": "view",
      "type": "function"
    },
    {
      "inputs": [],
      "name": "nextRatePPM",
      "outputs": [
        {
          "internalType": "uint24",
          "name": "",
          "type": "uint24"
        }
      ],
      "stateMutability": "view",
      "type": "function"
    },
    {
      "inputs": [
        {
          "internalType": "uint24",
          "name": "newRatePPM_",
          "type": "uint24"
        },
        {
          "internalType": "address[]",
          "name": "helpers",
          "type": "address[]"
        }
      ],
      "name": "proposeChange",
      "outputs": [],
      "stateMutability": "nonpayable",
      "type": "function"
    },
    {
      "inputs": [
        {
          "internalType": "address",
          "name": "owner",
          "type": "address"
        }
      ],
      "name": "refreshBalance",
      "outputs": [
        {
          "internalType": "uint192",
          "name": "",
          "type": "uint192"
        }
      ],
      "stateMutability": "nonpayable",
      "type": "function"
    },
    {
      "inputs": [],
      "name": "refreshMyBalance",
      "outputs": [
        {
          "internalType": "uint192",
          "name": "",
          "type": "uint192"
        }
      ],
      "stateMutability": "nonpayable",
      "type": "function"
    },
    {
      "inputs": [
        {
          "internalType": "address",
          "name": "owner",
          "type": "address"
        },
        {
          "internalType": "uint192",
          "name": "amount",
          "type": "uint192"
        }
      ],
      "name": "save",
      "outputs": [],
      "stateMutability": "nonpayable",
      "type": "function"
    },
    {
      "inputs": [
        {
          "internalType": "uint192",
          "name": "amount",
          "type": "uint192"
        }
      ],
      "name": "save",
      "outputs": [],
      "stateMutability": "nonpayable",
      "type": "function"
    },
    {
      "inputs": [
        {
          "internalType": "address",
          "name": "sender",
          "type": "address"
        },
        {
          "internalType": "address",
          "name": "target",
          "type": "address"
        },
        {
          "internalType": "uint192",
          "name": "amount",
          "type": "uint192"
        }
      ],
      "name": "saveFor",
      "outputs": [],
      "stateMutability": "nonpayable",
      "type": "function"
    },
    {
      "inputs": [
        {
          "internalType": "address",
          "name": "",
          "type": "address"
        }
      ],
      "name": "savings",
      "outputs": [
        {
          "internalType": "uint192",
          "name": "saved",
          "type": "uint192"
        },
        {
          "internalType": "uint64",
          "name": "ticks",
          "type": "uint64"
        }
      ],
      "stateMutability": "view",
      "type": "function"
    },
    {
      "inputs": [
        {
          "internalType": "uint256",
          "name": "timestamp",
          "type": "uint256"
        }
      ],
      "name": "ticks",
      "outputs": [
        {
          "internalType": "uint64",
          "name": "",
          "type": "uint64"
        }
      ],
      "stateMutability": "view",
      "type": "function"
    },
    {
      "inputs": [
        {
          "internalType": "address",
          "name": "target",
          "type": "address"
        },
        {
          "internalType": "uint192",
          "name": "amount",
          "type": "uint192"
        }
      ],
      "name": "withdraw",
      "outputs": [
        {
          "internalType": "uint256",
          "name": "",
          "type": "uint256"
        }
      ],
      "stateMutability": "nonpayable",
      "type": "function"
    },
    {
      "inputs": [
        {
          "internalType": "address",
          "name": "owner",
          "type": "address"
        },
        {
          "internalType": "address",
          "name": "target",
          "type": "address"
        },
        {
          "internalType": "uint192",
          "name": "amount",
          "type": "uint192"
        }
      ],
      "name": "withdrawFor",
      "outputs": [
        {
          "internalType": "uint256",
          "name": "",
          "type": "uint256"
        }
      ],
      "stateMutability": "nonpayable",
      "type": "function"
    }
  ],
  "transactionHash": "0x4971a50a60ab2ce3a6e07f7714b6f2ba4d0612e33ddccfc620730def10820fc1",
  "args": [
    "0xd02812Be610952aAFBbbfBcA438887A2f3A5f53B",
    5,
    "0xD2E4Db9B2407Dbe9f83B2f76217F48297B8EaBe3"
  ],
  "numDeployments": 1,
  "solcInputHash": "ece481ab51611799f01de526970750f0",
  "bytecode": "0x60e060405234801561001057600080fd5b50604051611a9a380380611a9a83398101604081905261002f9161018b565b8282816001600160a01b031663cd3293de6040518163ffffffff1660e01b8152600401602060405180830381865afa15801561006f573d6000803e3d6000fd5b505050506040513d601f19601f8201168201806040525081019061009391906101e0565b6001600160a01b03811660805260008054600160801b600160c01b03196b010000000000000000000000660100000000000064ffffffffff42811682026affffffffff000000ffffff1962ffffff8a1663010000008102919091166001600160581b031990971696909617861717918204169190910291909116600160581b600160c01b0319919091161790915560405190815282907fd76dfbd4c35cffe2a846b6488bc677c511aa4337e1551f3a360427ac7a78de7b9060200160405180910390a15050506001600160a01b0390811660a0521660c052506102049050565b6001600160a01b038116811461018857600080fd5b50565b6000806000606084860312156101a057600080fd5b83516101ab81610173565b602085015190935062ffffff811681146101c457600080fd5b60408501519092506101d581610173565b809150509250925092565b6000602082840312156101f257600080fd5b81516101fd81610173565b9392505050565b60805160a05160c05161181a6102806000396000818161022d0152818161069401528181610bc701528181610ef3015261126f0152600081816102f00152818161049b0152818161078101528181610aa901528181610daf01528181610fd101526111c301526000818161031f015261057e015261181a6000f3fe608060405234801561001057600080fd5b506004361061014d5760003560e01c806382b8eaf5116100c3578063b6f83c171161007c578063b6f83c171461036f578063b77cd1c71461039d578063bdc65152146103b0578063c1983610146103c3578063c2306089146103d6578063fd449c14146103e957600080fd5b806382b8eaf5146102eb57806385bd12d11461031257806391a0ac6a1461031a578063a696399d14610341578063b079f16314610354578063b105dd211461035c57600080fd5b8063338c537111610115578063338c5371146102285780634278a4a9146102675780634e65037e1461027a578063534cb30d1461028257806377267ec3146102ad5780637915ce20146102d857600080fd5b806306a7b376146101525780631791dc5e1461017a5780631de252e41461019b5780631f7cdd5f146101b05780632e4b20ab14610212575b600080fd5b6000546101619062ffffff1681565b60405162ffffff90911681526020015b60405180910390f35b61018d61018836600461138f565b6103fc565b604051908152602001610171565b6101ae6101a93660046113c2565b610567565b005b6101eb6101be366004611452565b6001602052600090815260409020546001600160c01b03811690600160c01b90046001600160401b031682565b604080516001600160c01b0390931683526001600160401b03909116602083015201610171565b600054610161906301000000900462ffffff1681565b61024f7f000000000000000000000000000000000000000000000000000000000000000081565b6040516001600160a01b039091168152602001610171565b61018d610275366004611474565b61068f565b6101ae610854565b6102956102903660046114b7565b6109be565b6040516001600160401b039091168152602001610171565b6102c06102bb366004611452565b610a08565b6040516001600160c01b039091168152602001610171565b6102c06102e63660046114e7565b610a14565b61024f7f000000000000000000000000000000000000000000000000000000000000000081565b6102c0610b4d565b61024f7f000000000000000000000000000000000000000000000000000000000000000081565b6102c061034f366004611567565b610b5d565b610295610bb9565b6101ae61036a36600461138f565b610bc4565b60005461038790600160301b900464ffffffffff1681565b60405164ffffffffff9091168152602001610171565b6102c06103ab366004611452565b610c8b565b6101ae6103be366004611591565b610ca6565b6101ae6103d136600461138f565b610d17565b6101ae6103e4366004611474565b610ef0565b6101ae6103f7366004611591565b611113565b60008061040833611120565b80549091506001600160c01b0390811690841610610442578054336000908152600160205260408120556001600160c01b03169250610484565b80548390829060009061045f9084906001600160c01b03166115c2565b92506101000a8154816001600160c01b0302191690836001600160c01b031602179055505b60405163a9059cbb60e01b81526001600160a01b037f0000000000000000000000000000000000000000000000000000000000000000169063a9059cbb906104d290879087906004016115e1565b6020604051808303816000875af11580156104f1573d6000803e3d6000fd5b505050506040513d601f19601f820116820180604052508101906105159190611603565b506040516001600160c01b038416815233907f47cf194f5e559cca0413017d38814a7843cc6f3052bc43c8085938774ae581519060200160405180910390a250506001600160c01b0381165b92915050565b60405163352e3a8360e01b81526001600160a01b037f0000000000000000000000000000000000000000000000000000000000000000169063352e3a83906105b790339086908690600401611625565b60006040518083038186803b1580156105cf57600080fd5b505afa1580156105e3573d6000803e3d6000fd5b50506000805465ffffff0000001916630100000062ffffff8816021790555061061190504262093a80611681565b600080546affffffffff0000000000001916600160301b64ffffffffff93841681029190911791829055604080513381526301000000840462ffffff16602082015291909204909216908201527e4964f2e48bd8a460fb41883098593956d335f36fdded4ca9cbac9252d72b2f9060600160405180910390a1505050565b6000337f00000000000000000000000000000000000000000000000000000000000000006001600160a01b0316146106da5760405163e7e601db60e01b815260040160405180910390fd5b60006106e585611120565b80549091506001600160c01b03908116908416106107285780546001600160a01b0386166000908152600160205260408120556001600160c01b0316925061076a565b8054839082906000906107459084906001600160c01b03166115c2565b92506101000a8154816001600160c01b0302191690836001600160c01b031602179055505b60405163a9059cbb60e01b81526001600160a01b037f0000000000000000000000000000000000000000000000000000000000000000169063a9059cbb906107b890879087906004016115e1565b6020604051808303816000875af11580156107d7573d6000803e3d6000fd5b505050506040513d601f19601f820116820180604052508101906107fb9190611603565b506040516001600160c01b03841681526001600160a01b038616907f47cf194f5e559cca0413017d38814a7843cc6f3052bc43c8085938774ae581519060200160405180910390a250506001600160c01b031692915050565b60005462ffffff6301000000820481169116036108845760405163147fde5f60e31b815260040160405180910390fd5b600054429064ffffffffff600160301b909104811690821610156108bb576040516301b3782160e21b815260040160405180910390fd5b60005462ffffff8116906108dd90600160581b900464ffffffffff1683611694565b6108e791906116b1565b64ffffffffff16600060108282829054906101000a90046001600160401b031661091191906116d1565b82546101009290920a6001600160401b038181021990931691909216919091021790555060008054630100000064ffffffffff60581b198216600160581b64ffffffffff8616029081179190910462ffffff166fffffffffff0000000000000000ffffff1990921662ffffff19919091161781179091556040519081527fd76dfbd4c35cffe2a846b6488bc677c511aa4337e1551f3a360427ac7a78de7b9060200160405180910390a150565b6000805462ffffff8116906109e190600160581b900464ffffffffff16846116f0565b6109eb919061170f565b6000546105619190600160801b90046001600160401b03166116d1565b60006105618242610b5d565b600082602001516001600160401b0316826001600160401b0316111580610a46575060208301516001600160401b0316155b15610a5357506000610561565b60006301e13380620f424085600001516001600160c01b0316866020015186610a7c91906116f0565b6001600160401b0316610a8f9190611731565b610a999190611748565b610aa39190611748565b905060007f00000000000000000000000000000000000000000000000000000000000000006001600160a01b03166391a0ac6a6040518163ffffffff1660e01b8152600401602060405180830381865afa158015610b05573d6000803e3d6000fd5b505050506040513d601f19601f82011682018060405250810190610b29919061176a565b905080826001600160c01b03161115610b455791506105619050565b509050610561565b6000610b5833610c8b565b905090565b6001600160a01b03821660009081526001602090815260408083208151808301909252546001600160c01b0381168252600160c01b90046001600160401b031691810191909152610bb1816102e6856109be565b949350505050565b6000610b58426109be565b337f00000000000000000000000000000000000000000000000000000000000000006001600160a01b031614610c0d5760405163e7e601db60e01b815260040160405180910390fd5b6000610c1883611120565b80549091506001600160c01b0380841691161015610c52578054610c4d90849081906103e4906001600160c01b0316866115c2565b505050565b80546001600160c01b0380841691161115610c4d578054610c8590849081906102759086906001600160c01b03166115c2565b50505050565b6000610c9682611120565b546001600160c01b031692915050565b6000610cb133611120565b80549091506001600160c01b0380841691161015610ce6578054610ce2906103f7906001600160c01b0316846115c2565b5050565b80546001600160c01b0380841691161115610ce2578054610c4d9033906101889085906001600160c01b03166115c2565b6000805462ffffff169003610d3f57604051630dbfe5fd60e31b815260040160405180910390fd5b6000546301000000900462ffffff16158015610d6c575060005442600160301b90910464ffffffffff1611155b15610d8a57604051630dbfe5fd60e31b815260040160405180910390fd5b6000610d9583611120565b6040516323b872dd60e01b81529091506001600160a01b037f000000000000000000000000000000000000000000000000000000000000000016906323b872dd90610de890339030908790600401611783565b6020604051808303816000875af1158015610e07573d6000803e3d6000fd5b505050506040513d601f19601f82011682018060405250810190610e2b9190611603565b50610e34610bb9565b81546001600160401b03918216600160c01b9091049091161015610e5a57610e5a6117af565b805482908290600090610e779084906001600160c01b03166117c5565b92506101000a8154816001600160c01b0302191690836001600160c01b03160217905550826001600160a01b03167ff195ce54b48d5147da31c1fc525c8828b8836088b505a329e5de2b35da6731e283604051610ee391906001600160c01b0391909116815260200190565b60405180910390a2505050565b337f00000000000000000000000000000000000000000000000000000000000000006001600160a01b031614610f395760405163e7e601db60e01b815260040160405180910390fd5b6000805462ffffff169003610f6157604051630dbfe5fd60e31b815260040160405180910390fd5b6000546301000000900462ffffff16158015610f8e575060005442600160301b90910464ffffffffff1611155b15610fac57604051630dbfe5fd60e31b815260040160405180910390fd5b6000610fb783611120565b6040516323b872dd60e01b81529091506001600160a01b037f000000000000000000000000000000000000000000000000000000000000000016906323b872dd9061100a90879030908790600401611783565b6020604051808303816000875af1158015611029573d6000803e3d6000fd5b505050506040513d601f19601f8201168201806040525081019061104d9190611603565b50611056610bb9565b81546001600160401b03918216600160c01b909104909116101561107c5761107c6117af565b8054829082906000906110999084906001600160c01b03166117c5565b92506101000a8154816001600160c01b0302191690836001600160c01b03160217905550826001600160a01b03167ff195ce54b48d5147da31c1fc525c8828b8836088b505a329e5de2b35da6731e28360405161110591906001600160c01b0391909116815260200190565b60405180910390a250505050565b61111d3382610d17565b50565b6001600160a01b038116600090815260016020526040812081611141610bb9565b82549091506001600160401b03600160c01b90910481169082161115611355576040805180820190915282546001600160c01b0381168252600160c01b90046001600160401b0316602082015260009061119b9083610a14565b90506001600160c01b0381161561133557604051631a3f4bd360e31b81526001600160a01b037f0000000000000000000000000000000000000000000000000000000000000000169063d1fa5e98906111fa90309085906004016115e1565b600060405180830381600087803b15801561121457600080fd5b505af1158015611228573d6000803e3d6000fd5b505084548392508591506000906112499084906001600160c01b03166117c5565b92506101000a8154816001600160c01b0302191690836001600160c01b031602179055507f00000000000000000000000000000000000000000000000000000000000000006001600160a01b03166331266ff586836040518363ffffffff1660e01b81526004016112bb9291906115e1565b600060405180830381600087803b1580156112d557600080fd5b505af11580156112e9573d6000803e3d6000fd5b50506040516001600160c01b03841681526001600160a01b03881692507fed3bc1b58411ea8e764b3ef8fa6b654877bc1e796a5a1a2373dfc8f1c0e0ea48915060200160405180910390a25b5081546001600160c01b0316600160c01b6001600160401b038316021782555b5092915050565b80356001600160a01b038116811461137357600080fd5b919050565b80356001600160c01b038116811461137357600080fd5b600080604083850312156113a257600080fd5b6113ab8361135c565b91506113b960208401611378565b90509250929050565b6000806000604084860312156113d757600080fd5b833562ffffff811681146113ea57600080fd5b925060208401356001600160401b0381111561140557600080fd5b8401601f8101861361141657600080fd5b80356001600160401b0381111561142c57600080fd5b8660208260051b840101111561144157600080fd5b939660209190910195509293505050565b60006020828403121561146457600080fd5b61146d8261135c565b9392505050565b60008060006060848603121561148957600080fd5b6114928461135c565b92506114a06020850161135c565b91506114ae60408501611378565b90509250925092565b6000602082840312156114c957600080fd5b5035919050565b80356001600160401b038116811461137357600080fd5b60008082840360608112156114fb57600080fd5b604081121561150957600080fd5b50604051604081018181106001600160401b038211171561153a57634e487b7160e01b600052604160045260246000fd5b60405261154684611378565b8152611554602085016114d0565b602082015291506113b9604084016114d0565b6000806040838503121561157a57600080fd5b6115838361135c565b946020939093013593505050565b6000602082840312156115a357600080fd5b61146d82611378565b634e487b7160e01b600052601160045260246000fd5b6001600160c01b038281168282160390811115610561576105616115ac565b6001600160a01b039290921682526001600160c01b0316602082015260400190565b60006020828403121561161557600080fd5b8151801515811461146d57600080fd5b6001600160a01b0384168152604060208201819052810182905260008360608301825b85811015611676576001600160a01b036116618461135c565b16825260209283019290910190600101611648565b509695505050505050565b80820180821115610561576105616115ac565b64ffffffffff8281168282160390811115610561576105616115ac565b64ffffffffff8181168382160290811690818114611355576113556115ac565b6001600160401b038181168382160190811115610561576105616115ac565b6001600160401b038281168282160390811115610561576105616115ac565b6001600160401b038181168382160290811690818114611355576113556115ac565b8082028115828204841417610561576105616115ac565b60008261176557634e487b7160e01b600052601260045260246000fd5b500490565b60006020828403121561177c57600080fd5b5051919050565b6001600160a01b0393841681529190921660208201526001600160c01b03909116604082015260600190565b634e487b7160e01b600052600160045260246000fd5b6001600160c01b038181168382160190811115610561576105616115ac56fea26469706673582212209ecbc1bff0b214884a14bbc8e48ac2baebb82800a95201bc7e4aa5ab02cfc7cb64736f6c634300081a0033",
  "devdoc": {
    "kind": "dev",
    "methods": {},
    "version": 1
  },
  "userdoc": {
    "kind": "user",
    "methods": {
      "applyChange()": {
        "notice": "Setting a previously proposed interest rate change into force."
      },
      "currentTicks()": {
        "notice": "Total accumulated 'interest ticks' since this contract was deployed. One 'tick' is a ppm-second, so one month of 12% annual interest is   120000*30*24*3600 = 311040000000 ticks. Two months of 6% annual interest would result in the same number of ticks. For simplicity, this is linear, so there is no \"interest on interest\"."
      },
      "proposeChange(uint24,address[])": {
        "notice": "Proposes a new interest rate that will automatically be applied after seven days. To cancel a proposal, just overwrite it with a new one proposing the current rate."
      },
      "refreshBalance(address)": {
        "notice": "Collects the accrued interest and adds it to the account. It can be beneficial to do so every now and then in order to start collecting interest on the accrued interest."
      },
      "refreshMyBalance()": {
        "notice": "Shortcut for refreshBalance(msg.sender)"
      },
      "save(address,uint192)": {
        "notice": "Send 'amount' to the account of the provided owner."
      },
      "save(uint192)": {
        "notice": "Save 'amount'."
      },
      "withdraw(address,uint192)": {
        "notice": "Withdraw up to 'amount' to the target address. When trying to withdraw more than available, all that is available is withdrawn. Returns the actually transferred amount."
      }
    },
    "version": 1
  },
  "storageLayout": {
    "storage": [
      {
        "astId": 9371,
        "contract": "contracts/gateway/SavingsGateway.sol:SavingsGateway",
        "label": "currentRatePPM",
        "offset": 0,
        "slot": "0",
        "type": "t_uint24"
      },
      {
        "astId": 9373,
        "contract": "contracts/gateway/SavingsGateway.sol:SavingsGateway",
        "label": "nextRatePPM",
        "offset": 3,
        "slot": "0",
        "type": "t_uint24"
      },
      {
        "astId": 9375,
        "contract": "contracts/gateway/SavingsGateway.sol:SavingsGateway",
        "label": "nextChange",
        "offset": 6,
        "slot": "0",
        "type": "t_uint40"
      },
      {
        "astId": 9377,
        "contract": "contracts/gateway/SavingsGateway.sol:SavingsGateway",
        "label": "anchorTime",
        "offset": 11,
        "slot": "0",
        "type": "t_uint40"
      },
      {
        "astId": 9379,
        "contract": "contracts/gateway/SavingsGateway.sol:SavingsGateway",
        "label": "ticksAnchor",
        "offset": 16,
        "slot": "0",
        "type": "t_uint64"
      },
      {
        "astId": 13607,
        "contract": "contracts/gateway/SavingsGateway.sol:SavingsGateway",
        "label": "savings",
        "offset": 0,
        "slot": "1",
        "type": "t_mapping(t_address,t_struct(Account)13612_storage)"
      }
    ],
    "types": {
      "t_address": {
        "encoding": "inplace",
        "label": "address",
        "numberOfBytes": "20"
      },
      "t_mapping(t_address,t_struct(Account)13612_storage)": {
        "encoding": "mapping",
        "key": "t_address",
        "label": "mapping(address => struct Savings.Account)",
        "numberOfBytes": "32",
        "value": "t_struct(Account)13612_storage"
      },
      "t_struct(Account)13612_storage": {
        "encoding": "inplace",
        "label": "struct Savings.Account",
        "members": [
          {
            "astId": 13609,
            "contract": "contracts/gateway/SavingsGateway.sol:SavingsGateway",
            "label": "saved",
            "offset": 0,
            "slot": "0",
            "type": "t_uint192"
          },
          {
            "astId": 13611,
            "contract": "contracts/gateway/SavingsGateway.sol:SavingsGateway",
            "label": "ticks",
            "offset": 24,
            "slot": "0",
            "type": "t_uint64"
          }
        ],
        "numberOfBytes": "32"
      },
      "t_uint192": {
        "encoding": "inplace",
        "label": "uint192",
        "numberOfBytes": "24"
      },
      "t_uint24": {
        "encoding": "inplace",
        "label": "uint24",
        "numberOfBytes": "3"
      },
      "t_uint40": {
        "encoding": "inplace",
        "label": "uint40",
        "numberOfBytes": "5"
      },
      "t_uint64": {
        "encoding": "inplace",
        "label": "uint64",
        "numberOfBytes": "8"
      }
    }
  }
}