{
  "address": "0x9Ae5cA00c7F1af085225720c905f15c020A753a3",
  "abi": [
    {
      "inputs": [
        {
          "internalType": "contract IDecentralizedEURO",
          "name": "deuro_",
          "type": "address"
        },
        {
          "internalType": "uint24",
          "name": "initialRatePPM",
          "type": "uint24"
        },
        {
          "internalType": "address",
          "name": "gateway_",
          "type": "address"
        }
      ],
      "stateMutability": "nonpayable",
      "type": "constructor"
    },
    {
      "inputs": [],
      "name": "ChangeNotReady",
      "type": "error"
    },
    {
      "inputs": [],
      "name": "ModuleDisabled",
      "type": "error"
    },
    {
      "inputs": [],
      "name": "NoPendingChange",
      "type": "error"
    },
    {
      "anonymous": false,
      "inputs": [
        {
          "indexed": true,
          "internalType": "address",
          "name": "account",
          "type": "address"
        },
        {
          "indexed": false,
          "internalType": "uint256",
          "name": "interest",
          "type": "uint256"
        }
      ],
      "name": "InterestCollected",
      "type": "event"
    },
    {
      "anonymous": false,
      "inputs": [
        {
          "indexed": false,
          "internalType": "uint24",
          "name": "newRate",
          "type": "uint24"
        }
      ],
      "name": "RateChanged",
      "type": "event"
    },
    {
      "anonymous": false,
      "inputs": [
        {
          "indexed": false,
          "internalType": "address",
          "name": "who",
          "type": "address"
        },
        {
          "indexed": false,
          "internalType": "uint24",
          "name": "nextRate",
          "type": "uint24"
        },
        {
          "indexed": false,
          "internalType": "uint40",
          "name": "nextChange",
          "type": "uint40"
        }
      ],
      "name": "RateProposed",
      "type": "event"
    },
    {
      "anonymous": false,
      "inputs": [
        {
          "indexed": true,
          "internalType": "address",
          "name": "account",
          "type": "address"
        },
        {
          "indexed": false,
          "internalType": "uint192",
          "name": "amount",
          "type": "uint192"
        }
      ],
      "name": "Saved",
      "type": "event"
    },
    {
      "anonymous": false,
      "inputs": [
        {
          "indexed": true,
          "internalType": "address",
          "name": "account",
          "type": "address"
        },
        {
          "indexed": false,
          "internalType": "uint192",
          "name": "amount",
          "type": "uint192"
        }
      ],
      "name": "Withdrawn",
      "type": "event"
    },
    {
      "inputs": [],
      "name": "GATEWAY",
      "outputs": [
        {
          "internalType": "contract IFrontendGateway",
          "name": "",
          "type": "address"
        }
      ],
      "stateMutability": "view",
      "type": "function"
    },
    {
      "inputs": [
        {
          "internalType": "address",
          "name": "accountOwner",
          "type": "address"
        }
      ],
      "name": "accruedInterest",
      "outputs": [
        {
          "internalType": "uint192",
          "name": "",
          "type": "uint192"
        }
      ],
      "stateMutability": "view",
      "type": "function"
    },
    {
      "inputs": [
        {
          "internalType": "address",
          "name": "accountOwner",
          "type": "address"
        },
        {
          "internalType": "uint256",
          "name": "timestamp",
          "type": "uint256"
        }
      ],
      "name": "accruedInterest",
      "outputs": [
        {
          "internalType": "uint192",
          "name": "",
          "type": "uint192"
        }
      ],
      "stateMutability": "view",
      "type": "function"
    },
    {
      "inputs": [
        {
          "internalType": "uint192",
          "name": "targetAmount",
          "type": "uint192"
        },
        {
          "internalType": "bytes32",
          "name": "frontendCode",
          "type": "bytes32"
        }
      ],
      "name": "adjust",
      "outputs": [],
      "stateMutability": "nonpayable",
      "type": "function"
    },
    {
      "inputs": [
        {
          "internalType": "uint192",
          "name": "targetAmount",
          "type": "uint192"
        }
      ],
      "name": "adjust",
      "outputs": [],
      "stateMutability": "nonpayable",
      "type": "function"
    },
    {
      "inputs": [],
      "name": "applyChange",
      "outputs": [],
      "stateMutability": "nonpayable",
      "type": "function"
    },
    {
      "inputs": [
        {
          "components": [
            {
              "internalType": "uint192",
              "name": "saved",
              "type": "uint192"
            },
            {
              "internalType": "uint64",
              "name": "ticks",
              "type": "uint64"
            }
          ],
          "internalType": "struct Savings.Account",
          "name": "account",
          "type": "tuple"
        },
        {
          "internalType": "uint64",
          "name": "ticks",
          "type": "uint64"
        }
      ],
      "name": "calculateInterest",
      "outputs": [
        {
          "internalType": "uint192",
          "name": "",
          "type": "uint192"
        }
      ],
      "stateMutability": "view",
      "type": "function"
    },
    {
      "inputs": [],
      "name": "currentRatePPM",
      "outputs": [
        {
          "internalType": "uint24",
          "name": "",
          "type": "uint24"
        }
      ],
      "stateMutability": "view",
      "type": "function"
    },
    {
      "inputs": [],
      "name": "currentTicks",
      "outputs": [
        {
          "internalType": "uint64",
          "name": "",
          "type": "uint64"
        }
      ],
      "stateMutability": "view",
      "type": "function"
    },
    {
      "inputs": [],
      "name": "deuro",
      "outputs": [
        {
          "internalType": "contract IERC20",
          "name": "",
          "type": "address"
        }
      ],
      "stateMutability": "view",
      "type": "function"
    },
    {
      "inputs": [],
      "name": "equity",
      "outputs": [
        {
          "internalType": "contract IReserve",
          "name": "",
          "type": "address"
        }
      ],
      "stateMutability": "view",
      "type": "function"
    },
    {
      "inputs": [],
      "name": "nextChange",
      "outputs": [
        {
          "internalType": "uint40",
          "name": "",
          "type": "uint40"
        }
      ],
      "stateMutability": "view",
      "type": "function"
    },
    {
      "inputs": [],
      "name": "nextRatePPM",
      "outputs": [
        {
          "internalType": "uint24",
          "name": "",
          "type": "uint24"
        }
      ],
      "stateMutability": "view",
      "type": "function"
    },
    {
      "inputs": [
        {
          "internalType": "uint24",
          "name": "newRatePPM_",
          "type": "uint24"
        },
        {
          "internalType": "address[]",
          "name": "helpers",
          "type": "address[]"
        }
      ],
      "name": "proposeChange",
      "outputs": [],
      "stateMutability": "nonpayable",
      "type": "function"
    },
    {
      "inputs": [
        {
          "internalType": "address",
          "name": "owner",
          "type": "address"
        }
      ],
      "name": "refreshBalance",
      "outputs": [
        {
          "internalType": "uint192",
          "name": "",
          "type": "uint192"
        }
      ],
      "stateMutability": "nonpayable",
      "type": "function"
    },
    {
      "inputs": [],
      "name": "refreshMyBalance",
      "outputs": [
        {
          "internalType": "uint192",
          "name": "",
          "type": "uint192"
        }
      ],
      "stateMutability": "nonpayable",
      "type": "function"
    },
    {
      "inputs": [
        {
          "internalType": "uint192",
          "name": "amount",
          "type": "uint192"
        },
        {
          "internalType": "bytes32",
          "name": "frontendCode",
          "type": "bytes32"
        }
      ],
      "name": "save",
      "outputs": [],
      "stateMutability": "nonpayable",
      "type": "function"
    },
    {
      "inputs": [
        {
          "internalType": "address",
          "name": "owner",
          "type": "address"
        },
        {
          "internalType": "uint192",
          "name": "amount",
          "type": "uint192"
        }
      ],
      "name": "save",
      "outputs": [],
      "stateMutability": "nonpayable",
      "type": "function"
    },
    {
      "inputs": [
        {
          "internalType": "address",
          "name": "owner",
          "type": "address"
        },
        {
          "internalType": "uint192",
          "name": "amount",
          "type": "uint192"
        },
        {
          "internalType": "bytes32",
          "name": "frontendCode",
          "type": "bytes32"
        }
      ],
      "name": "save",
      "outputs": [],
      "stateMutability": "nonpayable",
      "type": "function"
    },
    {
      "inputs": [
        {
          "internalType": "uint192",
          "name": "amount",
          "type": "uint192"
        }
      ],
      "name": "save",
      "outputs": [],
      "stateMutability": "nonpayable",
      "type": "function"
    },
    {
      "inputs": [
        {
          "internalType": "address",
          "name": "",
          "type": "address"
        }
      ],
      "name": "savings",
      "outputs": [
        {
          "internalType": "uint192",
          "name": "saved",
          "type": "uint192"
        },
        {
          "internalType": "uint64",
          "name": "ticks",
          "type": "uint64"
        }
      ],
      "stateMutability": "view",
      "type": "function"
    },
    {
      "inputs": [
        {
          "internalType": "uint256",
          "name": "timestamp",
          "type": "uint256"
        }
      ],
      "name": "ticks",
      "outputs": [
        {
          "internalType": "uint64",
          "name": "",
          "type": "uint64"
        }
      ],
      "stateMutability": "view",
      "type": "function"
    },
    {
      "inputs": [
        {
          "internalType": "address",
          "name": "target",
          "type": "address"
        },
        {
          "internalType": "uint192",
          "name": "amount",
          "type": "uint192"
        }
      ],
      "name": "withdraw",
      "outputs": [
        {
          "internalType": "uint256",
          "name": "",
          "type": "uint256"
        }
      ],
      "stateMutability": "nonpayable",
      "type": "function"
    },
    {
      "inputs": [
        {
          "internalType": "address",
          "name": "target",
          "type": "address"
        },
        {
          "internalType": "uint192",
          "name": "amount",
          "type": "uint192"
        },
        {
          "internalType": "bytes32",
          "name": "frontendCode",
          "type": "bytes32"
        }
      ],
      "name": "withdraw",
      "outputs": [
        {
          "internalType": "uint256",
          "name": "",
          "type": "uint256"
        }
      ],
      "stateMutability": "nonpayable",
      "type": "function"
    }
  ],
  "transactionHash": "0x1b49538167bd1edf39acd9521fc12d0fb83e8a43540df687844f46a10d13a83f",
  "args": [
    "0xe56E05a3E1375a147C122E5883667e57159485e6",
    5,
    "0x4693ed9c9ACfeF5df8E7D9c8F97d5eEBf406e7C7"
  ],
  "numDeployments": 2,
  "solcInputHash": "4a5a3784dacf73f644d615d19c184266",
  "bytecode": "0x60e060405234801561001057600080fd5b506040516117d03803806117d083398101604081905261002f9161018b565b8282816001600160a01b031663cd3293de6040518163ffffffff1660e01b8152600401602060405180830381865afa15801561006f573d6000803e3d6000fd5b505050506040513d601f19601f8201168201806040525081019061009391906101e0565b6001600160a01b03811660805260008054600160801b600160c01b03196b010000000000000000000000660100000000000064ffffffffff42811682026affffffffff000000ffffff1962ffffff8a1663010000008102919091166001600160581b031990971696909617861717918204169190910291909116600160581b600160c01b0319919091161790915560405190815282907fd76dfbd4c35cffe2a846b6488bc677c511aa4337e1551f3a360427ac7a78de7b9060200160405180910390a15050506001600160a01b0390811660a0521660c052506102049050565b6001600160a01b038116811461018857600080fd5b50565b6000806000606084860312156101a057600080fd5b83516101ab81610173565b602085015190935062ffffff811681146101c457600080fd5b60408501519092506101d581610173565b809150509250925092565b6000602082840312156101f257600080fd5b81516101fd81610173565b9392505050565b60805160a05160c05161155e610272600039600081816102380152818161086b01528181610a4f01528181610ddd0152610fc901526000818161030e015281816104b90152818161099f01528181610c990152610f1d01526000818161033d015261059c015261155e6000f3fe608060405234801561001057600080fd5b50600436106101585760003560e01c806382b8eaf5116100c3578063b6f83c171161007c578063b6f83c171461038d578063b77cd1c7146103bb578063bdc65152146103ce578063c1983610146103e1578063cbcf9676146103f4578063fd449c141461040757600080fd5b806382b8eaf51461030957806385bd12d11461033057806391a0ac6a146103385780639e2363dc1461035f578063a696399d14610372578063b079f1631461038557600080fd5b80634e65037e116101155780634e65037e14610272578063534cb30d1461027a578063753ef93c146102a557806377267ec3146102b85780637915ce20146102e3578063829a0476146102f657600080fd5b806306a7b3761461015d5780631791dc5e146101855780631de252e4146101a65780631f7cdd5f146101bb5780632e4b20ab1461021d578063338c537114610233575b600080fd5b60005461016c9062ffffff1681565b60405162ffffff90911681526020015b60405180910390f35b6101986101933660046110e9565b61041a565b60405190815260200161017c565b6101b96101b436600461111c565b610585565b005b6101f66101c93660046111ac565b6001602052600090815260409020546001600160c01b03811690600160c01b90046001600160401b031682565b604080516001600160c01b0390931683526001600160401b0390911660208301520161017c565b60005461016c906301000000900462ffffff1681565b61025a7f000000000000000000000000000000000000000000000000000000000000000081565b6040516001600160a01b03909116815260200161017c565b6101b96106ad565b61028d6102883660046111ce565b610817565b6040516001600160401b03909116815260200161017c565b6101b96102b33660046111e7565b610861565b6102cb6102c63660046111ac565b6108fe565b6040516001600160c01b03909116815260200161017c565b6102cb6102f1366004611228565b61090a565b6101986103043660046112a8565b610a43565b61025a7f000000000000000000000000000000000000000000000000000000000000000081565b6102cb610ae7565b61025a7f000000000000000000000000000000000000000000000000000000000000000081565b6101b961036d3660046111e7565b610af7565b6102cb6103803660046112e5565b610b02565b61028d610b56565b6000546103a590600160301b900464ffffffffff1681565b60405164ffffffffff909116815260200161017c565b6102cb6103c93660046111ac565b610b61565b6101b96103dc366004611301565b610b7c565b6101b96103ef3660046110e9565b610bee565b6101b96104023660046112a8565b610dd3565b6101b9610415366004611301565b610e6d565b60008061042633610e7a565b80549091506001600160c01b0390811690841610610460578054336000908152600160205260408120556001600160c01b031692506104a2565b80548390829060009061047d9084906001600160c01b0316611332565b92506101000a8154816001600160c01b0302191690836001600160c01b031602179055505b60405163a9059cbb60e01b81526001600160a01b037f0000000000000000000000000000000000000000000000000000000000000000169063a9059cbb906104f09087908790600401611351565b6020604051808303816000875af115801561050f573d6000803e3d6000fd5b505050506040513d601f19601f820116820180604052508101906105339190611373565b506040516001600160c01b038416815233907f47cf194f5e559cca0413017d38814a7843cc6f3052bc43c8085938774ae581519060200160405180910390a250506001600160c01b0381165b92915050565b60405163352e3a8360e01b81526001600160a01b037f0000000000000000000000000000000000000000000000000000000000000000169063352e3a83906105d590339086908690600401611395565b60006040518083038186803b1580156105ed57600080fd5b505afa158015610601573d6000803e3d6000fd5b50506000805465ffffff0000001916630100000062ffffff8816021790555061062f90504262093a806113f1565b600080546affffffffff0000000000001916600160301b64ffffffffff93841681029190911791829055604080513381526301000000840462ffffff16602082015291909204909216908201527e4964f2e48bd8a460fb41883098593956d335f36fdded4ca9cbac9252d72b2f9060600160405180910390a1505050565b60005462ffffff6301000000820481169116036106dd5760405163147fde5f60e31b815260040160405180910390fd5b600054429064ffffffffff600160301b90910481169082161015610714576040516301b3782160e21b815260040160405180910390fd5b60005462ffffff81169061073690600160581b900464ffffffffff1683611404565b6107409190611421565b64ffffffffff16600060108282829054906101000a90046001600160401b031661076a9190611441565b82546101009290920a6001600160401b038181021990931691909216919091021790555060008054630100000064ffffffffff60581b198216600160581b64ffffffffff8616029081179190910462ffffff166fffffffffff0000000000000000ffffff1990921662ffffff19919091161781179091556040519081527fd76dfbd4c35cffe2a846b6488bc677c511aa4337e1551f3a360427ac7a78de7b9060200160405180910390a150565b6000805462ffffff81169061083a90600160581b900464ffffffffff1684611460565b610844919061147f565b60005461057f9190600160801b90046001600160401b0316611441565b6001600160a01b037f00000000000000000000000000000000000000000000000000000000000000001663423bf674336040516001600160e01b031960e084901b1681526001600160a01b03909116600482015260248101849052604401600060405180830381600087803b1580156108d957600080fd5b505af11580156108ed573d6000803e3d6000fd5b505050506108fa82610b7c565b5050565b600061057f8242610b02565b600082602001516001600160401b0316826001600160401b031611158061093c575060208301516001600160401b0316155b156109495750600061057f565b60006301e13380620f424085600001516001600160c01b03168660200151866109729190611460565b6001600160401b031661098591906114a1565b61098f91906114b8565b61099991906114b8565b905060007f00000000000000000000000000000000000000000000000000000000000000006001600160a01b03166391a0ac6a6040518163ffffffff1660e01b8152600401602060405180830381865afa1580156109fb573d6000803e3d6000fd5b505050506040513d601f19601f82011682018060405250810190610a1f91906114da565b905080826001600160c01b03161115610a3b57915061057f9050565b50905061057f565b60006001600160a01b037f00000000000000000000000000000000000000000000000000000000000000001663423bf674336040516001600160e01b031960e084901b1681526001600160a01b03909116600482015260248101859052604401600060405180830381600087803b158015610abd57600080fd5b505af1158015610ad1573d6000803e3d6000fd5b50505050610adf848461041a565b949350505050565b6000610af233610b61565b905090565b6108fa338383610dd3565b6001600160a01b03821660009081526001602090815260408083208151808301909252546001600160c01b0381168252600160c01b90046001600160401b031691810191909152610adf816102f185610817565b6000610af242610817565b6000610b6c82610e7a565b546001600160c01b031692915050565b6000610b8733610e7a565b80549091506001600160c01b0380841691161015610bb85780546108fa90610415906001600160c01b031684611332565b80546001600160c01b03808416911611156108fa578054610be99033906101939085906001600160c01b0316611332565b505050565b6000805462ffffff169003610c1657604051630dbfe5fd60e31b815260040160405180910390fd5b6000546301000000900462ffffff16158015610c43575060005442600160301b90910464ffffffffff1611155b15610c6157604051630dbfe5fd60e31b815260040160405180910390fd5b6000610c6c83610e7a565b6040516323b872dd60e01b81523360048201523060248201526001600160c01b03841660448201529091507f00000000000000000000000000000000000000000000000000000000000000006001600160a01b0316906323b872dd906064016020604051808303816000875af1158015610cea573d6000803e3d6000fd5b505050506040513d601f19601f82011682018060405250810190610d0e9190611373565b50610d17610b56565b81546001600160401b03918216600160c01b9091049091161015610d3d57610d3d6114f3565b805482908290600090610d5a9084906001600160c01b0316611509565b92506101000a8154816001600160c01b0302191690836001600160c01b03160217905550826001600160a01b03167ff195ce54b48d5147da31c1fc525c8828b8836088b505a329e5de2b35da6731e283604051610dc691906001600160c01b0391909116815260200190565b60405180910390a2505050565b6001600160a01b037f00000000000000000000000000000000000000000000000000000000000000001663423bf674336040516001600160e01b031960e084901b1681526001600160a01b03909116600482015260248101849052604401600060405180830381600087803b158015610e4b57600080fd5b505af1158015610e5f573d6000803e3d6000fd5b50505050610be98383610bee565b610e773382610bee565b50565b6001600160a01b038116600090815260016020526040812081610e9b610b56565b82549091506001600160401b03600160c01b909104811690821611156110af576040805180820190915282546001600160c01b0381168252600160c01b90046001600160401b03166020820152600090610ef5908361090a565b90506001600160c01b0381161561108f576040516308b8bb4b60e01b81526001600160a01b037f000000000000000000000000000000000000000000000000000000000000000016906308b8bb4b90610f549030908590600401611351565b600060405180830381600087803b158015610f6e57600080fd5b505af1158015610f82573d6000803e3d6000fd5b50508454839250859150600090610fa39084906001600160c01b0316611509565b92506101000a8154816001600160c01b0302191690836001600160c01b031602179055507f00000000000000000000000000000000000000000000000000000000000000006001600160a01b03166331266ff586836040518363ffffffff1660e01b8152600401611015929190611351565b600060405180830381600087803b15801561102f57600080fd5b505af1158015611043573d6000803e3d6000fd5b50506040516001600160c01b03841681526001600160a01b03881692507fed3bc1b58411ea8e764b3ef8fa6b654877bc1e796a5a1a2373dfc8f1c0e0ea48915060200160405180910390a25b5081546001600160c01b0316600160c01b6001600160401b038316021782555b5092915050565b80356001600160a01b03811681146110cd57600080fd5b919050565b80356001600160c01b03811681146110cd57600080fd5b600080604083850312156110fc57600080fd5b611105836110b6565b9150611113602084016110d2565b90509250929050565b60008060006040848603121561113157600080fd5b833562ffffff8116811461114457600080fd5b925060208401356001600160401b0381111561115f57600080fd5b8401601f8101861361117057600080fd5b80356001600160401b0381111561118657600080fd5b8660208260051b840101111561119b57600080fd5b939660209190910195509293505050565b6000602082840312156111be57600080fd5b6111c7826110b6565b9392505050565b6000602082840312156111e057600080fd5b5035919050565b600080604083850312156111fa57600080fd5b611203836110d2565b946020939093013593505050565b80356001600160401b03811681146110cd57600080fd5b600080828403606081121561123c57600080fd5b604081121561124a57600080fd5b50604051604081018181106001600160401b038211171561127b57634e487b7160e01b600052604160045260246000fd5b604052611287846110d2565b815261129560208501611211565b6020820152915061111360408401611211565b6000806000606084860312156112bd57600080fd5b6112c6846110b6565b92506112d4602085016110d2565b929592945050506040919091013590565b600080604083850312156112f857600080fd5b611203836110b6565b60006020828403121561131357600080fd5b6111c7826110d2565b634e487b7160e01b600052601160045260246000fd5b6001600160c01b03828116828216039081111561057f5761057f61131c565b6001600160a01b039290921682526001600160c01b0316602082015260400190565b60006020828403121561138557600080fd5b815180151581146111c757600080fd5b6001600160a01b0384168152604060208201819052810182905260008360608301825b858110156113e6576001600160a01b036113d1846110b6565b168252602092830192909101906001016113b8565b509695505050505050565b8082018082111561057f5761057f61131c565b64ffffffffff828116828216039081111561057f5761057f61131c565b64ffffffffff81811683821602908116908181146110af576110af61131c565b6001600160401b03818116838216019081111561057f5761057f61131c565b6001600160401b03828116828216039081111561057f5761057f61131c565b6001600160401b0381811683821602908116908181146110af576110af61131c565b808202811582820484141761057f5761057f61131c565b6000826114d557634e487b7160e01b600052601260045260246000fd5b500490565b6000602082840312156114ec57600080fd5b5051919050565b634e487b7160e01b600052600160045260246000fd5b6001600160c01b03818116838216019081111561057f5761057f61131c56fea2646970667358221220c3a52c0e877ee10620f8422a266c6fcfe6b5e03ab3829caa1324b28b90b814bb64736f6c634300081a0033",
  "devdoc": {
    "kind": "dev",
    "methods": {},
    "version": 1
  },
  "userdoc": {
    "kind": "user",
    "methods": {
      "applyChange()": {
        "notice": "Setting a previously proposed interest rate change into force."
      },
      "currentTicks()": {
        "notice": "Total accumulated 'interest ticks' since this contract was deployed. One 'tick' is a ppm-second, so one month of 12% annual interest is   120000*30*24*3600 = 311040000000 ticks. Two months of 6% annual interest would result in the same number of ticks. For simplicity, this is linear, so there is no \"interest on interest\"."
      },
      "proposeChange(uint24,address[])": {
        "notice": "Proposes a new interest rate that will automatically be applied after seven days. To cancel a proposal, just overwrite it with a new one proposing the current rate."
      },
      "refreshBalance(address)": {
        "notice": "Collects the accrued interest and adds it to the account. It can be beneficial to do so every now and then in order to start collecting interest on the accrued interest."
      },
      "refreshMyBalance()": {
        "notice": "Shortcut for refreshBalance(msg.sender)"
      },
      "save(address,uint192)": {
        "notice": "Send 'amount' to the account of the provided owner."
      },
      "save(uint192)": {
        "notice": "Save 'amount'."
      },
      "withdraw(address,uint192)": {
        "notice": "Withdraw up to 'amount' to the target address. When trying to withdraw more than available, all that is available is withdrawn. Returns the actually transferred amount."
      }
    },
    "version": 1
  },
  "storageLayout": {
    "storage": [
      {
        "astId": 9434,
        "contract": "contracts/gateway/SavingsGateway.sol:SavingsGateway",
        "label": "currentRatePPM",
        "offset": 0,
        "slot": "0",
        "type": "t_uint24"
      },
      {
        "astId": 9436,
        "contract": "contracts/gateway/SavingsGateway.sol:SavingsGateway",
        "label": "nextRatePPM",
        "offset": 3,
        "slot": "0",
        "type": "t_uint24"
      },
      {
        "astId": 9438,
        "contract": "contracts/gateway/SavingsGateway.sol:SavingsGateway",
        "label": "nextChange",
        "offset": 6,
        "slot": "0",
        "type": "t_uint40"
      },
      {
        "astId": 9440,
        "contract": "contracts/gateway/SavingsGateway.sol:SavingsGateway",
        "label": "anchorTime",
        "offset": 11,
        "slot": "0",
        "type": "t_uint40"
      },
      {
        "astId": 9442,
        "contract": "contracts/gateway/SavingsGateway.sol:SavingsGateway",
        "label": "ticksAnchor",
        "offset": 16,
        "slot": "0",
        "type": "t_uint64"
      },
      {
        "astId": 14100,
        "contract": "contracts/gateway/SavingsGateway.sol:SavingsGateway",
        "label": "savings",
        "offset": 0,
        "slot": "1",
        "type": "t_mapping(t_address,t_struct(Account)14105_storage)"
      }
    ],
    "types": {
      "t_address": {
        "encoding": "inplace",
        "label": "address",
        "numberOfBytes": "20"
      },
      "t_mapping(t_address,t_struct(Account)14105_storage)": {
        "encoding": "mapping",
        "key": "t_address",
        "label": "mapping(address => struct Savings.Account)",
        "numberOfBytes": "32",
        "value": "t_struct(Account)14105_storage"
      },
      "t_struct(Account)14105_storage": {
        "encoding": "inplace",
        "label": "struct Savings.Account",
        "members": [
          {
            "astId": 14102,
            "contract": "contracts/gateway/SavingsGateway.sol:SavingsGateway",
            "label": "saved",
            "offset": 0,
            "slot": "0",
            "type": "t_uint192"
          },
          {
            "astId": 14104,
            "contract": "contracts/gateway/SavingsGateway.sol:SavingsGateway",
            "label": "ticks",
            "offset": 24,
            "slot": "0",
            "type": "t_uint64"
          }
        ],
        "numberOfBytes": "32"
      },
      "t_uint192": {
        "encoding": "inplace",
        "label": "uint192",
        "numberOfBytes": "24"
      },
      "t_uint24": {
        "encoding": "inplace",
        "label": "uint24",
        "numberOfBytes": "3"
      },
      "t_uint40": {
        "encoding": "inplace",
        "label": "uint40",
        "numberOfBytes": "5"
      },
      "t_uint64": {
        "encoding": "inplace",
        "label": "uint64",
        "numberOfBytes": "8"
      }
    }
  }
}