{
  "address": "0xa1b05B70107E87CeA3ef8fd2d7a4282a93F1682F",
  "abi": [
    {
      "inputs": [
        {
          "internalType": "contract IDecentralizedEURO",
          "name": "deuro_",
          "type": "address"
        },
        {
          "internalType": "uint24",
          "name": "initialRatePPM",
          "type": "uint24"
        }
      ],
      "stateMutability": "nonpayable",
      "type": "constructor"
    },
    {
      "inputs": [],
      "name": "ChangeNotReady",
      "type": "error"
    },
    {
      "inputs": [],
      "name": "ModuleDisabled",
      "type": "error"
    },
    {
      "inputs": [],
      "name": "NoPendingChange",
      "type": "error"
    },
    {
      "anonymous": false,
      "inputs": [
        {
          "indexed": true,
          "internalType": "address",
          "name": "account",
          "type": "address"
        },
        {
          "indexed": false,
          "internalType": "uint256",
          "name": "interest",
          "type": "uint256"
        }
      ],
      "name": "InterestCollected",
      "type": "event"
    },
    {
      "anonymous": false,
      "inputs": [
        {
          "indexed": false,
          "internalType": "uint24",
          "name": "newRate",
          "type": "uint24"
        }
      ],
      "name": "RateChanged",
      "type": "event"
    },
    {
      "anonymous": false,
      "inputs": [
        {
          "indexed": false,
          "internalType": "address",
          "name": "who",
          "type": "address"
        },
        {
          "indexed": false,
          "internalType": "uint24",
          "name": "nextRate",
          "type": "uint24"
        },
        {
          "indexed": false,
          "internalType": "uint40",
          "name": "nextChange",
          "type": "uint40"
        }
      ],
      "name": "RateProposed",
      "type": "event"
    },
    {
      "anonymous": false,
      "inputs": [
        {
          "indexed": true,
          "internalType": "address",
          "name": "account",
          "type": "address"
        },
        {
          "indexed": false,
          "internalType": "uint192",
          "name": "amount",
          "type": "uint192"
        }
      ],
      "name": "Saved",
      "type": "event"
    },
    {
      "anonymous": false,
      "inputs": [
        {
          "indexed": true,
          "internalType": "address",
          "name": "account",
          "type": "address"
        },
        {
          "indexed": false,
          "internalType": "uint192",
          "name": "amount",
          "type": "uint192"
        }
      ],
      "name": "Withdrawn",
      "type": "event"
    },
    {
      "inputs": [
        {
          "internalType": "address",
          "name": "accountOwner",
          "type": "address"
        }
      ],
      "name": "accruedInterest",
      "outputs": [
        {
          "internalType": "uint192",
          "name": "",
          "type": "uint192"
        }
      ],
      "stateMutability": "view",
      "type": "function"
    },
    {
      "inputs": [
        {
          "internalType": "address",
          "name": "accountOwner",
          "type": "address"
        },
        {
          "internalType": "uint256",
          "name": "timestamp",
          "type": "uint256"
        }
      ],
      "name": "accruedInterest",
      "outputs": [
        {
          "internalType": "uint192",
          "name": "",
          "type": "uint192"
        }
      ],
      "stateMutability": "view",
      "type": "function"
    },
    {
      "inputs": [
        {
          "internalType": "uint192",
          "name": "targetAmount",
          "type": "uint192"
        }
      ],
      "name": "adjust",
      "outputs": [],
      "stateMutability": "nonpayable",
      "type": "function"
    },
    {
      "inputs": [],
      "name": "applyChange",
      "outputs": [],
      "stateMutability": "nonpayable",
      "type": "function"
    },
    {
      "inputs": [
        {
          "components": [
            {
              "internalType": "uint192",
              "name": "saved",
              "type": "uint192"
            },
            {
              "internalType": "uint64",
              "name": "ticks",
              "type": "uint64"
            }
          ],
          "internalType": "struct Savings.Account",
          "name": "account",
          "type": "tuple"
        },
        {
          "internalType": "uint64",
          "name": "ticks",
          "type": "uint64"
        }
      ],
      "name": "calculateInterest",
      "outputs": [
        {
          "internalType": "uint192",
          "name": "",
          "type": "uint192"
        }
      ],
      "stateMutability": "view",
      "type": "function"
    },
    {
      "inputs": [],
      "name": "currentRatePPM",
      "outputs": [
        {
          "internalType": "uint24",
          "name": "",
          "type": "uint24"
        }
      ],
      "stateMutability": "view",
      "type": "function"
    },
    {
      "inputs": [],
      "name": "currentTicks",
      "outputs": [
        {
          "internalType": "uint64",
          "name": "",
          "type": "uint64"
        }
      ],
      "stateMutability": "view",
      "type": "function"
    },
    {
      "inputs": [],
      "name": "deuro",
      "outputs": [
        {
          "internalType": "contract IERC20",
          "name": "",
          "type": "address"
        }
      ],
      "stateMutability": "view",
      "type": "function"
    },
    {
      "inputs": [],
      "name": "equity",
      "outputs": [
        {
          "internalType": "contract IReserve",
          "name": "",
          "type": "address"
        }
      ],
      "stateMutability": "view",
      "type": "function"
    },
    {
      "inputs": [],
      "name": "nextChange",
      "outputs": [
        {
          "internalType": "uint40",
          "name": "",
          "type": "uint40"
        }
      ],
      "stateMutability": "view",
      "type": "function"
    },
    {
      "inputs": [],
      "name": "nextRatePPM",
      "outputs": [
        {
          "internalType": "uint24",
          "name": "",
          "type": "uint24"
        }
      ],
      "stateMutability": "view",
      "type": "function"
    },
    {
      "inputs": [
        {
          "internalType": "uint24",
          "name": "newRatePPM_",
          "type": "uint24"
        },
        {
          "internalType": "address[]",
          "name": "helpers",
          "type": "address[]"
        }
      ],
      "name": "proposeChange",
      "outputs": [],
      "stateMutability": "nonpayable",
      "type": "function"
    },
    {
      "inputs": [
        {
          "internalType": "address",
          "name": "owner",
          "type": "address"
        }
      ],
      "name": "refreshBalance",
      "outputs": [
        {
          "internalType": "uint192",
          "name": "",
          "type": "uint192"
        }
      ],
      "stateMutability": "nonpayable",
      "type": "function"
    },
    {
      "inputs": [],
      "name": "refreshMyBalance",
      "outputs": [
        {
          "internalType": "uint192",
          "name": "",
          "type": "uint192"
        }
      ],
      "stateMutability": "nonpayable",
      "type": "function"
    },
    {
      "inputs": [
        {
          "internalType": "address",
          "name": "owner",
          "type": "address"
        },
        {
          "internalType": "uint192",
          "name": "amount",
          "type": "uint192"
        }
      ],
      "name": "save",
      "outputs": [],
      "stateMutability": "nonpayable",
      "type": "function"
    },
    {
      "inputs": [
        {
          "internalType": "uint192",
          "name": "amount",
          "type": "uint192"
        }
      ],
      "name": "save",
      "outputs": [],
      "stateMutability": "nonpayable",
      "type": "function"
    },
    {
      "inputs": [
        {
          "internalType": "address",
          "name": "",
          "type": "address"
        }
      ],
      "name": "savings",
      "outputs": [
        {
          "internalType": "uint192",
          "name": "saved",
          "type": "uint192"
        },
        {
          "internalType": "uint64",
          "name": "ticks",
          "type": "uint64"
        }
      ],
      "stateMutability": "view",
      "type": "function"
    },
    {
      "inputs": [
        {
          "internalType": "uint256",
          "name": "timestamp",
          "type": "uint256"
        }
      ],
      "name": "ticks",
      "outputs": [
        {
          "internalType": "uint64",
          "name": "",
          "type": "uint64"
        }
      ],
      "stateMutability": "view",
      "type": "function"
    },
    {
      "inputs": [
        {
          "internalType": "address",
          "name": "target",
          "type": "address"
        },
        {
          "internalType": "uint192",
          "name": "amount",
          "type": "uint192"
        }
      ],
      "name": "withdraw",
      "outputs": [
        {
          "internalType": "uint256",
          "name": "",
          "type": "uint256"
        }
      ],
      "stateMutability": "nonpayable",
      "type": "function"
    }
  ],
  "transactionHash": "0xb09737c88c2f3363e7a49dd041b580c1c0deab46dec8d358c20432094f4272f1",
  "args": [
    "0xd02812Be610952aAFBbbfBcA438887A2f3A5f53B",
    5
  ],
  "numDeployments": 4,
  "solcInputHash": "ece481ab51611799f01de526970750f0",
  "bytecode": "0x60c060405234801561001057600080fd5b5060405161142838038061142883398101604081905261002f91610180565b816001600160a01b031663cd3293de6040518163ffffffff1660e01b8152600401602060405180830381865afa15801561006d573d6000803e3d6000fd5b505050506040513d601f19601f8201168201806040525081019061009191906101c2565b6001600160a01b03811660805260008054600160801b600160c01b03196b010000000000000000000000660100000000000064ffffffffff42811682026affffffffff000000ffffff1962ffffff8a1663010000008102919091166001600160581b031990971696909617861717918204169190910291909116600160581b600160c01b0319919091161790915560405190815282907fd76dfbd4c35cffe2a846b6488bc677c511aa4337e1551f3a360427ac7a78de7b9060200160405180910390a15050506001600160a01b031660a0526101e6565b6001600160a01b038116811461017d57600080fd5b50565b6000806040838503121561019357600080fd5b825161019e81610168565b602084015190925062ffffff811681146101b757600080fd5b809150509250929050565b6000602082840312156101d457600080fd5b81516101df81610168565b9392505050565b60805160a0516111fa61022e60003960008181610272015281816104260152818161086201528181610ab90152610cb00152600081816102b901526104fc01526111fa6000f3fe608060405234801561001057600080fd5b50600436106101215760003560e01c806382b8eaf5116100ad578063b6f83c1711610071578063b6f83c17146102f6578063b77cd1c714610324578063bdc6515214610337578063c19836101461034a578063fd449c141461035d57600080fd5b806382b8eaf51461026d57806385bd12d1146102ac57806391a0ac6a146102b4578063a696399d146102db578063b079f163146102ee57600080fd5b80632e4b20ab116100f45780632e4b20ab146101e65780634e65037e146101fc578063534cb30d1461020457806377267ec31461022f5780637915ce201461025a57600080fd5b806306a7b376146101265780631791dc5e1461014e5780631de252e41461016f5780631f7cdd5f14610184575b600080fd5b6000546101359062ffffff1681565b60405162ffffff90911681526020015b60405180910390f35b61016161015c366004610e00565b610370565b604051908152602001610145565b61018261017d366004610e33565b6104e5565b005b6101bf610192366004610ec3565b6001602052600090815260409020546001600160c01b03811690600160c01b90046001600160401b031682565b604080516001600160c01b0390931683526001600160401b03909116602083015201610145565b600054610135906301000000900462ffffff1681565b61018261060d565b610217610212366004610ee5565b610777565b6040516001600160401b039091168152602001610145565b61024261023d366004610ec3565b6107c1565b6040516001600160c01b039091168152602001610145565b610242610268366004610f15565b6107cd565b6102947f000000000000000000000000000000000000000000000000000000000000000081565b6040516001600160a01b039091168152602001610145565b610242610906565b6102947f000000000000000000000000000000000000000000000000000000000000000081565b6102426102e9366004610f95565b610916565b610217610972565b60005461030e90600160301b900464ffffffffff1681565b60405164ffffffffff9091168152602001610145565b610242610332366004610ec3565b61097d565b610182610345366004610fbf565b610998565b610182610358366004610e00565b610a0e565b61018261036b366004610fbf565b610bf3565b60008061037c33610c00565b80549091506001600160c01b03908116908416106103b6578054336000908152600160205260408120556001600160c01b031692506103f8565b8054839082906000906103d39084906001600160c01b0316610ff0565b92506101000a8154816001600160c01b0302191690836001600160c01b031602179055505b60405163a9059cbb60e01b81526001600160a01b0385811660048301526001600160c01b03851660248301527f0000000000000000000000000000000000000000000000000000000000000000169063a9059cbb906044016020604051808303816000875af115801561046f573d6000803e3d6000fd5b505050506040513d601f19601f82011682018060405250810190610493919061100f565b506040516001600160c01b038416815233907f47cf194f5e559cca0413017d38814a7843cc6f3052bc43c8085938774ae581519060200160405180910390a250506001600160c01b0381165b92915050565b60405163352e3a8360e01b81526001600160a01b037f0000000000000000000000000000000000000000000000000000000000000000169063352e3a839061053590339086908690600401611031565b60006040518083038186803b15801561054d57600080fd5b505afa158015610561573d6000803e3d6000fd5b50506000805465ffffff0000001916630100000062ffffff8816021790555061058f90504262093a8061108d565b600080546affffffffff0000000000001916600160301b64ffffffffff93841681029190911791829055604080513381526301000000840462ffffff16602082015291909204909216908201527e4964f2e48bd8a460fb41883098593956d335f36fdded4ca9cbac9252d72b2f9060600160405180910390a1505050565b60005462ffffff63010000008204811691160361063d5760405163147fde5f60e31b815260040160405180910390fd5b600054429064ffffffffff600160301b90910481169082161015610674576040516301b3782160e21b815260040160405180910390fd5b60005462ffffff81169061069690600160581b900464ffffffffff16836110a0565b6106a091906110bd565b64ffffffffff16600060108282829054906101000a90046001600160401b03166106ca91906110dd565b82546101009290920a6001600160401b038181021990931691909216919091021790555060008054630100000064ffffffffff60581b198216600160581b64ffffffffff8616029081179190910462ffffff166fffffffffff0000000000000000ffffff1990921662ffffff19919091161781179091556040519081527fd76dfbd4c35cffe2a846b6488bc677c511aa4337e1551f3a360427ac7a78de7b9060200160405180910390a150565b6000805462ffffff81169061079a90600160581b900464ffffffffff16846110fc565b6107a4919061111b565b6000546104df9190600160801b90046001600160401b03166110dd565b60006104df8242610916565b600082602001516001600160401b0316826001600160401b03161115806107ff575060208301516001600160401b0316155b1561080c575060006104df565b60006301e13380620f424085600001516001600160c01b031686602001518661083591906110fc565b6001600160401b0316610848919061113d565b6108529190611154565b61085c9190611154565b905060007f00000000000000000000000000000000000000000000000000000000000000006001600160a01b03166391a0ac6a6040518163ffffffff1660e01b8152600401602060405180830381865afa1580156108be573d6000803e3d6000fd5b505050506040513d601f19601f820116820180604052508101906108e29190611176565b905080826001600160c01b031611156108fe5791506104df9050565b5090506104df565b60006109113361097d565b905090565b6001600160a01b03821660009081526001602090815260408083208151808301909252546001600160c01b0381168252600160c01b90046001600160401b03169181019190915261096a8161026885610777565b949350505050565b600061091142610777565b600061098882610c00565b546001600160c01b031692915050565b60006109a333610c00565b80549091506001600160c01b03808416911610156109d85780546109d49061036b906001600160c01b031684610ff0565b5050565b80546001600160c01b03808416911611156109d4578054610a0990339061015c9085906001600160c01b0316610ff0565b505050565b6000805462ffffff169003610a3657604051630dbfe5fd60e31b815260040160405180910390fd5b6000546301000000900462ffffff16158015610a63575060005442600160301b90910464ffffffffff1611155b15610a8157604051630dbfe5fd60e31b815260040160405180910390fd5b6000610a8c83610c00565b6040516323b872dd60e01b81523360048201523060248201526001600160c01b03841660448201529091507f00000000000000000000000000000000000000000000000000000000000000006001600160a01b0316906323b872dd906064016020604051808303816000875af1158015610b0a573d6000803e3d6000fd5b505050506040513d601f19601f82011682018060405250810190610b2e919061100f565b50610b37610972565b81546001600160401b03918216600160c01b9091049091161015610b5d57610b5d61118f565b805482908290600090610b7a9084906001600160c01b03166111a5565b92506101000a8154816001600160c01b0302191690836001600160c01b03160217905550826001600160a01b03167ff195ce54b48d5147da31c1fc525c8828b8836088b505a329e5de2b35da6731e283604051610be691906001600160c01b0391909116815260200190565b60405180910390a2505050565b610bfd3382610a0e565b50565b6001600160a01b038116600090815260016020526040812081610c21610972565b82549091506001600160401b03600160c01b90910481169082161115610dc6576040805180820190915282546001600160c01b0381168252600160c01b90046001600160401b03166020820152600090610c7b90836107cd565b90506001600160c01b03811615610da657604051631a3f4bd360e31b81523060048201526001600160c01b03821660248201527f00000000000000000000000000000000000000000000000000000000000000006001600160a01b03169063d1fa5e9890604401600060405180830381600087803b158015610cfc57600080fd5b505af1158015610d10573d6000803e3d6000fd5b50508454839250859150600090610d319084906001600160c01b03166111a5565b92506101000a8154816001600160c01b0302191690836001600160c01b03160217905550846001600160a01b03167fed3bc1b58411ea8e764b3ef8fa6b654877bc1e796a5a1a2373dfc8f1c0e0ea4882604051610d9d91906001600160c01b0391909116815260200190565b60405180910390a25b5081546001600160c01b0316600160c01b6001600160401b038316021782555b5092915050565b80356001600160a01b0381168114610de457600080fd5b919050565b80356001600160c01b0381168114610de457600080fd5b60008060408385031215610e1357600080fd5b610e1c83610dcd565b9150610e2a60208401610de9565b90509250929050565b600080600060408486031215610e4857600080fd5b833562ffffff81168114610e5b57600080fd5b925060208401356001600160401b03811115610e7657600080fd5b8401601f81018613610e8757600080fd5b80356001600160401b03811115610e9d57600080fd5b8660208260051b8401011115610eb257600080fd5b939660209190910195509293505050565b600060208284031215610ed557600080fd5b610ede82610dcd565b9392505050565b600060208284031215610ef757600080fd5b5035919050565b80356001600160401b0381168114610de457600080fd5b6000808284036060811215610f2957600080fd5b6040811215610f3757600080fd5b50604051604081018181106001600160401b0382111715610f6857634e487b7160e01b600052604160045260246000fd5b604052610f7484610de9565b8152610f8260208501610efe565b60208201529150610e2a60408401610efe565b60008060408385031215610fa857600080fd5b610fb183610dcd565b946020939093013593505050565b600060208284031215610fd157600080fd5b610ede82610de9565b634e487b7160e01b600052601160045260246000fd5b6001600160c01b0382811682821603908111156104df576104df610fda565b60006020828403121561102157600080fd5b81518015158114610ede57600080fd5b6001600160a01b0384168152604060208201819052810182905260008360608301825b85811015611082576001600160a01b0361106d84610dcd565b16825260209283019290910190600101611054565b509695505050505050565b808201808211156104df576104df610fda565b64ffffffffff82811682821603908111156104df576104df610fda565b64ffffffffff8181168382160290811690818114610dc657610dc6610fda565b6001600160401b0381811683821601908111156104df576104df610fda565b6001600160401b0382811682821603908111156104df576104df610fda565b6001600160401b038181168382160290811690818114610dc657610dc6610fda565b80820281158282048414176104df576104df610fda565b60008261117157634e487b7160e01b600052601260045260246000fd5b500490565b60006020828403121561118857600080fd5b5051919050565b634e487b7160e01b600052600160045260246000fd5b6001600160c01b0381811683821601908111156104df576104df610fda56fea26469706673582212203924c3f5df98fc785649c1f86c0b7cf3fb120830c6bf171e1e3a0b8ad0b47ed964736f6c634300081a0033",
  "devdoc": {
    "kind": "dev",
    "methods": {},
    "title": "Savings Module to enable savings based on a Leadrate (\"Leitzins\") module. As the interest rate changes, the speed at which 'ticks' are accumulated is adjusted. The ticks counter serves as the basis for calculating the interest due for the individual accounts.",
    "version": 1
  },
  "userdoc": {
    "kind": "user",
    "methods": {
      "applyChange()": {
        "notice": "Setting a previously proposed interest rate change into force."
      },
      "currentTicks()": {
        "notice": "Total accumulated 'interest ticks' since this contract was deployed. One 'tick' is a ppm-second, so one month of 12% annual interest is   120000*30*24*3600 = 311040000000 ticks. Two months of 6% annual interest would result in the same number of ticks. For simplicity, this is linear, so there is no \"interest on interest\"."
      },
      "proposeChange(uint24,address[])": {
        "notice": "Proposes a new interest rate that will automatically be applied after seven days. To cancel a proposal, just overwrite it with a new one proposing the current rate."
      },
      "refreshBalance(address)": {
        "notice": "Collects the accrued interest and adds it to the account. It can be beneficial to do so every now and then in order to start collecting interest on the accrued interest."
      },
      "refreshMyBalance()": {
        "notice": "Shortcut for refreshBalance(msg.sender)"
      },
      "save(address,uint192)": {
        "notice": "Send 'amount' to the account of the provided owner."
      },
      "save(uint192)": {
        "notice": "Save 'amount'."
      },
      "withdraw(address,uint192)": {
        "notice": "Withdraw up to 'amount' to the target address. When trying to withdraw more than available, all that is available is withdrawn. Returns the actually transferred amount."
      }
    },
    "version": 1
  },
  "storageLayout": {
    "storage": [
      {
        "astId": 9371,
        "contract": "contracts/Savings.sol:Savings",
        "label": "currentRatePPM",
        "offset": 0,
        "slot": "0",
        "type": "t_uint24"
      },
      {
        "astId": 9373,
        "contract": "contracts/Savings.sol:Savings",
        "label": "nextRatePPM",
        "offset": 3,
        "slot": "0",
        "type": "t_uint24"
      },
      {
        "astId": 9375,
        "contract": "contracts/Savings.sol:Savings",
        "label": "nextChange",
        "offset": 6,
        "slot": "0",
        "type": "t_uint40"
      },
      {
        "astId": 9377,
        "contract": "contracts/Savings.sol:Savings",
        "label": "anchorTime",
        "offset": 11,
        "slot": "0",
        "type": "t_uint40"
      },
      {
        "astId": 9379,
        "contract": "contracts/Savings.sol:Savings",
        "label": "ticksAnchor",
        "offset": 16,
        "slot": "0",
        "type": "t_uint64"
      },
      {
        "astId": 13607,
        "contract": "contracts/Savings.sol:Savings",
        "label": "savings",
        "offset": 0,
        "slot": "1",
        "type": "t_mapping(t_address,t_struct(Account)13612_storage)"
      }
    ],
    "types": {
      "t_address": {
        "encoding": "inplace",
        "label": "address",
        "numberOfBytes": "20"
      },
      "t_mapping(t_address,t_struct(Account)13612_storage)": {
        "encoding": "mapping",
        "key": "t_address",
        "label": "mapping(address => struct Savings.Account)",
        "numberOfBytes": "32",
        "value": "t_struct(Account)13612_storage"
      },
      "t_struct(Account)13612_storage": {
        "encoding": "inplace",
        "label": "struct Savings.Account",
        "members": [
          {
            "astId": 13609,
            "contract": "contracts/Savings.sol:Savings",
            "label": "saved",
            "offset": 0,
            "slot": "0",
            "type": "t_uint192"
          },
          {
            "astId": 13611,
            "contract": "contracts/Savings.sol:Savings",
            "label": "ticks",
            "offset": 24,
            "slot": "0",
            "type": "t_uint64"
          }
        ],
        "numberOfBytes": "32"
      },
      "t_uint192": {
        "encoding": "inplace",
        "label": "uint192",
        "numberOfBytes": "24"
      },
      "t_uint24": {
        "encoding": "inplace",
        "label": "uint24",
        "numberOfBytes": "3"
      },
      "t_uint40": {
        "encoding": "inplace",
        "label": "uint40",
        "numberOfBytes": "5"
      },
      "t_uint64": {
        "encoding": "inplace",
        "label": "uint64",
        "numberOfBytes": "8"
      }
    }
  }
}