{
  "address": "0x6BcDB5e4fdad13d0D7a31A0A2F2B1ae812e83eb6",
  "abi": [
    {
      "inputs": [
        {
          "internalType": "address",
          "name": "other",
          "type": "address"
        },
        {
          "internalType": "address",
          "name": "dEUROAddress",
          "type": "address"
        },
        {
          "internalType": "uint256",
          "name": "limit_",
          "type": "uint256"
        },
        {
          "internalType": "uint256",
          "name": "weeks_",
          "type": "uint256"
        }
      ],
      "stateMutability": "nonpayable",
      "type": "constructor"
    },
    {
      "inputs": [
        {
          "internalType": "uint256",
          "name": "time",
          "type": "uint256"
        },
        {
          "internalType": "uint256",
          "name": "expiration",
          "type": "uint256"
        }
      ],
      "name": "Expired",
      "type": "error"
    },
    {
      "inputs": [
        {
          "internalType": "uint256",
          "name": "amount",
          "type": "uint256"
        },
        {
          "internalType": "uint256",
          "name": "limit",
          "type": "uint256"
        }
      ],
      "name": "Limit",
      "type": "error"
    },
    {
      "inputs": [
        {
          "internalType": "address",
          "name": "token",
          "type": "address"
        }
      ],
      "name": "SafeERC20FailedOperation",
      "type": "error"
    },
    {
      "inputs": [
        {
          "internalType": "address",
          "name": "token",
          "type": "address"
        }
      ],
      "name": "UnsupportedToken",
      "type": "error"
    },
    {
      "inputs": [
        {
          "internalType": "uint256",
          "name": "amount",
          "type": "uint256"
        }
      ],
      "name": "burn",
      "outputs": [],
      "stateMutability": "nonpayable",
      "type": "function"
    },
    {
      "inputs": [
        {
          "internalType": "address",
          "name": "target",
          "type": "address"
        },
        {
          "internalType": "uint256",
          "name": "amount",
          "type": "uint256"
        }
      ],
      "name": "burnAndSend",
      "outputs": [],
      "stateMutability": "nonpayable",
      "type": "function"
    },
    {
      "inputs": [],
      "name": "dEURO",
      "outputs": [
        {
          "internalType": "contract IDecentralizedEURO",
          "name": "",
          "type": "address"
        }
      ],
      "stateMutability": "view",
      "type": "function"
    },
    {
      "inputs": [],
      "name": "eur",
      "outputs": [
        {
          "internalType": "contract IERC20",
          "name": "",
          "type": "address"
        }
      ],
      "stateMutability": "view",
      "type": "function"
    },
    {
      "inputs": [],
      "name": "horizon",
      "outputs": [
        {
          "internalType": "uint256",
          "name": "",
          "type": "uint256"
        }
      ],
      "stateMutability": "view",
      "type": "function"
    },
    {
      "inputs": [],
      "name": "limit",
      "outputs": [
        {
          "internalType": "uint256",
          "name": "",
          "type": "uint256"
        }
      ],
      "stateMutability": "view",
      "type": "function"
    },
    {
      "inputs": [
        {
          "internalType": "uint256",
          "name": "amount",
          "type": "uint256"
        }
      ],
      "name": "mint",
      "outputs": [],
      "stateMutability": "nonpayable",
      "type": "function"
    },
    {
      "inputs": [
        {
          "internalType": "address",
          "name": "target",
          "type": "address"
        },
        {
          "internalType": "uint256",
          "name": "amount",
          "type": "uint256"
        }
      ],
      "name": "mintTo",
      "outputs": [],
      "stateMutability": "nonpayable",
      "type": "function"
    },
    {
      "inputs": [],
      "name": "minted",
      "outputs": [
        {
          "internalType": "uint256",
          "name": "",
          "type": "uint256"
        }
      ],
      "stateMutability": "view",
      "type": "function"
    }
  ],
  "transactionHash": "0x9a2c0ddcebb76567607cc13781b4761eb224b39a18ae01c90285e3cd64d270a8",
  "args": [
    "0xdb25f211ab05b1c97d595516f45794528a807ad8",
    "0xe56E05a3E1375a147C122E5883667e57159485e6",
    "500000000000000000000",
    30
  ],
  "numDeployments": 16,
  "solcInputHash": "4a5a3784dacf73f644d615d19c184266",
  "bytecode": "0x61014060405234801561001157600080fd5b50604051610b3d380380610b3d83398101604081905261003091610161565b6001600160a01b03808516608081905290841660a0526040805163313ce56760e01b8152905163313ce567916004808201926020929091908290030181865afa158015610081573d6000803e3d6000fd5b505050506040513d601f19601f820116820180604052508101906100a591906101a4565b60ff1660c08160ff1681525050826001600160a01b031663313ce5676040518163ffffffff1660e01b8152600401602060405180830381865afa1580156100f0573d6000803e3d6000fd5b505050506040513d601f19601f8201168201806040525081019061011491906101a4565b60ff1660e0526101278162093a806101e4565b6101319042610201565b610100525061012052505060008055610214565b80516001600160a01b038116811461015c57600080fd5b919050565b6000806000806080858703121561017757600080fd5b61018085610145565b935061018e60208601610145565b6040860151606090960151949790965092505050565b6000602082840312156101b657600080fd5b815160ff811681146101c757600080fd5b9392505050565b634e487b7160e01b600052601160045260246000fd5b80820281158282048414176101fb576101fb6101ce565b92915050565b808201808211156101fb576101fb6101ce565b60805160a05160c05160e05161010051610120516108956102a86000396000818161016d0152818161057b01526105b6015260008181609d0152818161047201526104ad01526000818161022201526102780152600081816102010152610299015260008181610194015281816102e60152610504015260008181610108015281816101d1015261035101526108956000f3fe608060405234801561001057600080fd5b50600436106100935760003560e01c80637439ae59116100665780637439ae59146101035780639e41b44d14610142578063a0712d6814610155578063a4d66daf14610168578063d395d24b1461018f57600080fd5b80631ce832b51461009857806342966c68146100d2578063449a52f8146100e75780634f02c420146100fa575b600080fd5b6100bf7f000000000000000000000000000000000000000000000000000000000000000081565b6040519081526020015b60405180910390f35b6100e56100e0366004610684565b6101b6565b005b6100e56100f536600461069d565b6101c4565b6100bf60005481565b61012a7f000000000000000000000000000000000000000000000000000000000000000081565b6040516001600160a01b0390911681526020016100c9565b6100e561015036600461069d565b610257565b6100e5610163366004610684565b610266565b6100bf7f000000000000000000000000000000000000000000000000000000000000000081565b61012a7f000000000000000000000000000000000000000000000000000000000000000081565b6101c1333383610270565b50565b6101f96001600160a01b037f000000000000000000000000000000000000000000000000000000000000000016333084610396565b6000610246827f00000000000000000000000000000000000000000000000000000000000000007f0000000000000000000000000000000000000000000000000000000000000000610403565b90506102528382610470565b505050565b610262338383610270565b5050565b6101c133826101c4565b60006102bd827f00000000000000000000000000000000000000000000000000000000000000007f0000000000000000000000000000000000000000000000000000000000000000610403565b60405163079cc67960e41b81526001600160a01b038681166004830152602482018590529192507f0000000000000000000000000000000000000000000000000000000000000000909116906379cc679090604401600060405180830381600087803b15801561032c57600080fd5b505af1158015610340573d6000803e3d6000fd5b5061037a9250506001600160a01b037f000000000000000000000000000000000000000000000000000000000000000016905084836105e2565b8160008082825461038b91906106eb565b909155505050505050565b6040516001600160a01b0384811660248301528381166044830152606482018390526103fd9186918216906323b872dd906084015b604051602081830303815290604052915060e01b6020820180516001600160e01b038381831617835250505050610613565b50505050565b60008160ff168360ff1610156104395761041d8383610704565b61042890600a610804565b6104329085610813565b9050610469565b8160ff168360ff161115610466576104518284610704565b61045c90600a610804565b610432908561082a565b50825b9392505050565b7f00000000000000000000000000000000000000000000000000000000000000004211156104de5760405163aa2fd92560e01b81524260048201527f000000000000000000000000000000000000000000000000000000000000000060248201526044015b60405180910390fd5b6040516340c10f1960e01b81526001600160a01b038381166004830152602482018390527f000000000000000000000000000000000000000000000000000000000000000016906340c10f1990604401600060405180830381600087803b15801561054857600080fd5b505af115801561055c573d6000803e3d6000fd5b5050505080600080828254610571919061084c565b90915550506000547f0000000000000000000000000000000000000000000000000000000000000000101561026257604051631927a4b960e21b8152600481018290527f000000000000000000000000000000000000000000000000000000000000000060248201526044016104d5565b6040516001600160a01b0383811660248301526044820183905261025291859182169063a9059cbb906064016103cb565b600080602060008451602086016000885af180610636576040513d6000823e3d81fd5b50506000513d9150811561064e57806001141561065b565b6001600160a01b0384163b155b156103fd57604051635274afe760e01b81526001600160a01b03851660048201526024016104d5565b60006020828403121561069657600080fd5b5035919050565b600080604083850312156106b057600080fd5b82356001600160a01b03811681146106c757600080fd5b946020939093013593505050565b634e487b7160e01b600052601160045260246000fd5b818103818111156106fe576106fe6106d5565b92915050565b60ff82811682821603908111156106fe576106fe6106d5565b6001815b60018411156107585780850481111561073c5761073c6106d5565b600184161561074a57908102905b60019390931c928002610721565b935093915050565b60008261076f575060016106fe565b8161077c575060006106fe565b8160018114610792576002811461079c576107b8565b60019150506106fe565b60ff8411156107ad576107ad6106d5565b50506001821b6106fe565b5060208310610133831016604e8410600b84101617156107db575081810a6106fe565b6107e8600019848461071d565b80600019048211156107fc576107fc6106d5565b029392505050565b600061046960ff841683610760565b80820281158282048414176106fe576106fe6106d5565b60008261084757634e487b7160e01b600052601260045260246000fd5b500490565b808201808211156106fe576106fe6106d556fea2646970667358221220ddaab1a2961f6ad2e76c173eb26b5966a3b68a9091a462d7ccfa864b0827da4564736f6c634300081a0033",
  "devdoc": {
    "errors": {
      "SafeERC20FailedOperation(address)": [
        {
          "details": "An operation with an ERC-20 token failed."
        }
      ]
    },
    "kind": "dev",
    "methods": {
      "burn(uint256)": {
        "params": {
          "amount": "The amount of dEURO to burn."
        }
      },
      "mintTo(address,uint256)": {
        "details": "This only works if an allowance for the source coins has been set and the caller has enough of them.",
        "params": {
          "amount": "The amount of the source stablecoin to bridge (convert)."
        }
      }
    },
    "title": "Stablecoin Bridge",
    "version": 1
  },
  "userdoc": {
    "kind": "user",
    "methods": {
      "burn(uint256)": {
        "notice": "Convenience method for burnAndSend(msg.sender, amount)"
      },
      "burnAndSend(address,uint256)": {
        "notice": "Burn the indicated amount of dEURO and send the same number of source coins to the caller."
      },
      "horizon()": {
        "notice": "The time horizon after which this bridge expires and needs to be replaced by a new contract."
      },
      "limit()": {
        "notice": "The maximum amount of outstanding converted source stablecoins."
      },
      "mint(uint256)": {
        "notice": "Convenience method for mint(msg.sender, amount)"
      },
      "mintTo(address,uint256)": {
        "notice": "Mint the target amount of dEUROs, taking the equal amount of source coins from the sender."
      }
    },
    "notice": "A minting contract for another Euro stablecoin ('source stablecoin') that we trust.",
    "version": 1
  },
  "storageLayout": {
    "storage": [
      {
        "astId": 14569,
        "contract": "contracts/StablecoinBridge.sol:StablecoinBridge",
        "label": "minted",
        "offset": 0,
        "slot": "0",
        "type": "t_uint256"
      }
    ],
    "types": {
      "t_uint256": {
        "encoding": "inplace",
        "label": "uint256",
        "numberOfBytes": "32"
      }
    }
  }
}